{"contracts/HotChicken.sol":{"HotChicken":{"abi":[{"inputs":[{"internalType":"address","name":"_eshare","type":"address"}],"stateMutability":"nonpayable","type":"constructor"},{"inputs":[{"internalType":"address","name":"owner","type":"address"}],"name":"OwnableInvalidOwner","type":"error"},{"inputs":[{"internalType":"address","name":"account","type":"address"}],"name":"OwnableUnauthorizedAccount","type":"error"},{"inputs":[],"name":"ReentrancyGuardReentrantCall","type":"error"},{"inputs":[{"internalType":"address","name":"token","type":"address"}],"name":"SafeERC20FailedOperation","type":"error"},{"anonymous":false,"inputs":[{"indexed":true,"internalType":"uint256","name":"round","type":"uint256"},{"indexed":true,"internalType":"address","name":"from","type":"address"},{"indexed":true,"internalType":"address","name":"to","type":"address"},{"indexed":false,"internalType":"uint256","name":"amount","type":"uint256"},{"indexed":false,"internalType":"uint256","name":"pot","type":"uint256"},{"indexed":false,"internalType":"uint256","name":"nextMinGrab","type":"uint256"},{"indexed":false,"internalType":"uint256","name":"blocksLeft","type":"uint256"},{"indexed":false,"internalType":"bool","name":"isHotZone","type":"bool"}],"name":"ChickenGrabbed","type":"event"},{"anonymous":false,"inputs":[{"indexed":false,"internalType":"string","name":"param","type":"string"},{"indexed":false,"internalType":"uint256","name":"oldVal","type":"uint256"},{"indexed":false,"internalType":"uint256","name":"newVal","type":"uint256"}],"name":"ConfigUpdated","type":"event"},{"anonymous":false,"inputs":[{"indexed":true,"internalType":"uint256","name":"round","type":"uint256"}],"name":"EmergencySettle","type":"event"},{"anonymous":false,"inputs":[{"indexed":false,"internalType":"uint256","name":"amount","type":"uint256"}],"name":"EmergencyWithdraw","type":"event"},{"anonymous":false,"inputs":[{"indexed":true,"internalType":"address","name":"oldAddr","type":"address"},{"indexed":true,"internalType":"address","name":"newAddr","type":"address"}],"name":"FeeRecipientUpdated","type":"event"},{"anonymous":false,"inputs":[{"indexed":true,"internalType":"uint256","name":"round","type":"uint256"},{"indexed":false,"internalType":"uint256","name":"blocksLeft","type":"uint256"}],"name":"HotZoneEntered","type":"event"},{"anonymous":false,"inputs":[{"indexed":true,"internalType":"uint256","name":"round","type":"uint256"},{"indexed":true,"internalType":"address","name":"loser","type":"address"},{"indexed":false,"internalType":"uint256","name":"seedAmount","type":"uint256"},{"indexed":false,"internalType":"uint256","name":"consolationPaid","type":"uint256"},{"indexed":false,"internalType":"uint256","name":"loserDeposits","type":"uint256"},{"indexed":false,"internalType":"int256","name":"netResult","type":"int256"}],"name":"LoserConsolation","type":"event"},{"anonymous":false,"inputs":[{"indexed":true,"internalType":"uint256","name":"round","type":"uint256"},{"indexed":true,"internalType":"address","name":"winner","type":"address"},{"indexed":false,"internalType":"uint256","name":"amount","type":"uint256"}],"name":"LottoPaid","type":"event"},{"anonymous":false,"inputs":[{"indexed":true,"internalType":"address","name":"previousOwner","type":"address"},{"indexed":true,"internalType":"address","name":"newOwner","type":"address"}],"name":"OwnershipTransferred","type":"event"},{"anonymous":false,"inputs":[{"indexed":true,"internalType":"address","name":"by","type":"address"}],"name":"Paused","type":"event"},{"anonymous":false,"inputs":[{"indexed":true,"internalType":"uint256","name":"round","type":"uint256"},{"indexed":false,"internalType":"uint256","name":"pot","type":"uint256"},{"indexed":false,"internalType":"string","name":"reason","type":"string"}],"name":"RoundRolledOver","type":"event"},{"anonymous":false,"inputs":[{"indexed":true,"internalType":"uint256","name":"round","type":"uint256"},{"indexed":true,"internalType":"address","name":"loser","type":"address"},{"indexed":false,"internalType":"uint256","name":"loserDeposits","type":"uint256"},{"indexed":false,"internalType":"uint256","name":"burned","type":"uint256"},{"indexed":false,"internalType":"uint256","name":"ownerFee","type":"uint256"},{"indexed":false,"internalType":"uint256","name":"lottoPrize","type":"uint256"},{"indexed":true,"internalType":"address","name":"lottoWinner","type":"address"},{"indexed":false,"internalType":"uint256","name":"hzBonusPool","type":"uint256"},{"indexed":false,"internalType":"uint256","name":"mainPool","type":"uint256"},{"indexed":false,"internalType":"uint256","name":"participants","type":"uint256"}],"name":"RoundSettled","type":"event"},{"anonymous":false,"inputs":[{"indexed":true,"internalType":"uint256","name":"round","type":"uint256"},{"indexed":true,"internalType":"address","name":"starter","type":"address"},{"indexed":false,"internalType":"uint256","name":"grabAmount","type":"uint256"},{"indexed":false,"internalType":"uint256","name":"pot","type":"uint256"},{"indexed":false,"internalType":"uint256","name":"seed","type":"uint256"},{"indexed":false,"internalType":"uint256","name":"endBlock","type":"uint256"}],"name":"RoundStarted","type":"event"},{"anonymous":false,"inputs":[{"indexed":true,"internalType":"uint256","name":"round","type":"uint256"},{"indexed":false,"internalType":"uint256","name":"amount","type":"uint256"},{"indexed":false,"internalType":"uint256","name":"remainingVault","type":"uint256"}],"name":"SeedDispensed","type":"event"},{"anonymous":false,"inputs":[{"indexed":true,"internalType":"address","name":"depositor","type":"address"},{"indexed":false,"internalType":"uint256","name":"amount","type":"uint256"},{"indexed":false,"internalType":"uint256","name":"newVaultBalance","type":"uint256"}],"name":"SeedVaultDeposit","type":"event"},{"anonymous":false,"inputs":[{"indexed":true,"internalType":"address","name":"by","type":"address"}],"name":"Unpaused","type":"event"},{"anonymous":false,"inputs":[{"indexed":true,"internalType":"uint256","name":"round","type":"uint256"},{"indexed":true,"internalType":"address","name":"winner","type":"address"},{"indexed":false,"internalType":"uint256","name":"netDeposit","type":"uint256"},{"indexed":false,"internalType":"uint256","name":"mainShare","type":"uint256"},{"indexed":false,"internalType":"uint256","name":"hzBonus","type":"uint256"},{"indexed":false,"internalType":"uint256","name":"total","type":"uint256"}],"name":"WinnerPaid","type":"event"},{"inputs":[],"name":"BPS","outputs":[{"internalType":"uint256","name":"","type":"uint256"}],"stateMutability":"view","type":"function"},{"inputs":[],"name":"DEAD","outputs":[{"internalType":"address","name":"","type":"address"}],"stateMutability":"view","type":"function"},{"inputs":[],"name":"chickenHolder","outputs":[{"internalType":"address","name":"","type":"address"}],"stateMutability":"view","type":"function"},{"inputs":[],"name":"currentMinGrab","outputs":[{"internalType":"uint256","name":"","type":"uint256"}],"stateMutability":"view","type":"function"},{"inputs":[],"name":"currentRound","outputs":[{"internalType":"uint256","name":"","type":"uint256"}],"stateMutability":"view","type":"function"},{"inputs":[{"internalType":"uint256","name":"amount","type":"uint256"}],"name":"depositSeed","outputs":[],"stateMutability":"nonpayable","type":"function"},{"inputs":[{"internalType":"uint256","name":"","type":"uint256"},{"internalType":"address","name":"","type":"address"}],"name":"deposits","outputs":[{"internalType":"uint256","name":"","type":"uint256"}],"stateMutability":"view","type":"function"},{"inputs":[],"name":"emergencyPause","outputs":[],"stateMutability":"nonpayable","type":"function"},{"inputs":[],"name":"emergencySettle","outputs":[],"stateMutability":"nonpayable","type":"function"},{"inputs":[],"name":"emergencyUnpause","outputs":[],"stateMutability":"nonpayable","type":"function"},{"inputs":[],"name":"emergencyWithdraw","outputs":[],"stateMutability":"nonpayable","type":"function"},{"inputs":[],"name":"eshare","outputs":[{"internalType":"contract IERC20","name":"","type":"address"}],"stateMutability":"view","type":"function"},{"inputs":[],"name":"feeRecipient","outputs":[{"internalType":"address","name":"","type":"address"}],"stateMutability":"view","type":"function"},{"inputs":[],"name":"getConfig","outputs":[{"components":[{"internalType":"uint256","name":"baseTimerBlocks","type":"uint256"},{"internalType":"uint256","name":"timerDecayBps","type":"uint256"},{"internalType":"uint256","name":"timerFloorBlocks","type":"uint256"},{"internalType":"uint256","name":"escalationBps","type":"uint256"},{"internalType":"uint256","name":"minGrabCost","type":"uint256"},{"internalType":"uint256","name":"burnBps","type":"uint256"},{"internalType":"uint256","name":"ownerBps","type":"uint256"},{"internalType":"uint256","name":"lottoBps","type":"uint256"},{"internalType":"uint256","name":"hotZoneBlocks","type":"uint256"},{"internalType":"uint256","name":"hotZoneBonusBps","type":"uint256"}],"internalType":"struct HotChicken.Config","name":"","type":"tuple"}],"stateMutability":"view","type":"function"},{"inputs":[],"name":"getCurrentRound","outputs":[{"internalType":"uint256","name":"round","type":"uint256"},{"internalType":"uint256","name":"pot","type":"uint256"},{"internalType":"address","name":"holder","type":"address"},{"internalType":"uint256","name":"minGrab","type":"uint256"},{"internalType":"uint256","name":"blocksLeft","type":"uint256"},{"internalType":"uint256","name":"participants","type":"uint256"},{"internalType":"uint256","name":"grabs","type":"uint256"},{"internalType":"bool","name":"isHotZone","type":"bool"},{"internalType":"uint256","name":"hzDeposits","type":"uint256"}],"stateMutability":"view","type":"function"},{"inputs":[],"name":"getGlobalStats","outputs":[{"internalType":"uint256","name":"rounds_","type":"uint256"},{"internalType":"uint256","name":"burned","type":"uint256"},{"internalType":"uint256","name":"lottoPaid","type":"uint256"},{"internalType":"uint256","name":"ownerRev","type":"uint256"},{"internalType":"uint256","name":"volume","type":"uint256"},{"internalType":"bool","name":"active","type":"bool"},{"internalType":"uint256","name":"seeded","type":"uint256"}],"stateMutability":"view","type":"function"},{"inputs":[{"internalType":"uint256","name":"round","type":"uint256"}],"name":"getParticipants","outputs":[{"internalType":"address[]","name":"","type":"address[]"}],"stateMutability":"view","type":"function"},{"inputs":[{"internalType":"uint256","name":"round","type":"uint256"},{"internalType":"address","name":"player","type":"address"}],"name":"getPlayerRound","outputs":[{"internalType":"uint256","name":"deps","type":"uint256"},{"internalType":"uint256","name":"hzDeps","type":"uint256"},{"internalType":"uint256","name":"grabs","type":"uint256"},{"internalType":"bool","name":"isLoser","type":"bool"}],"stateMutability":"view","type":"function"},{"inputs":[{"internalType":"address","name":"player","type":"address"}],"name":"getPlayerStats","outputs":[{"components":[{"internalType":"uint256","name":"roundsPlayed","type":"uint256"},{"internalType":"uint256","name":"roundsWon","type":"uint256"},{"internalType":"uint256","name":"roundsLost","type":"uint256"},{"internalType":"uint256","name":"totalDeposited","type":"uint256"},{"internalType":"uint256","name":"totalWon","type":"uint256"},{"internalType":"uint256","name":"totalLost","type":"uint256"},{"internalType":"uint256","name":"lottoWins","type":"uint256"},{"internalType":"uint256","name":"lottoWinnings","type":"uint256"},{"internalType":"uint256","name":"totalGrabs","type":"uint256"}],"internalType":"struct HotChicken.PlayerStats","name":"","type":"tuple"}],"stateMutability":"view","type":"function"},{"inputs":[{"internalType":"uint256","name":"round","type":"uint256"}],"name":"getRoundConfig","outputs":[{"components":[{"internalType":"uint256","name":"baseTimerBlocks","type":"uint256"},{"internalType":"uint256","name":"timerDecayBps","type":"uint256"},{"internalType":"uint256","name":"timerFloorBlocks","type":"uint256"},{"internalType":"uint256","name":"escalationBps","type":"uint256"},{"internalType":"uint256","name":"minGrabCost","type":"uint256"},{"internalType":"uint256","name":"burnBps","type":"uint256"},{"internalType":"uint256","name":"ownerBps","type":"uint256"},{"internalType":"uint256","name":"lottoBps","type":"uint256"},{"internalType":"uint256","name":"hotZoneBlocks","type":"uint256"},{"internalType":"uint256","name":"hotZoneBonusBps","type":"uint256"}],"internalType":"struct HotChicken.Config","name":"","type":"tuple"}],"stateMutability":"view","type":"function"},{"inputs":[{"internalType":"uint256","name":"round","type":"uint256"}],"name":"getRoundInfo","outputs":[{"internalType":"uint256","name":"pot","type":"uint256"},{"internalType":"uint256","name":"seed","type":"uint256"},{"internalType":"uint256","name":"playerDeps","type":"uint256"},{"internalType":"uint256","name":"hzDeps","type":"uint256"},{"internalType":"address","name":"loser","type":"address"},{"internalType":"uint256","name":"loserDeps","type":"uint256"},{"internalType":"bool","name":"settled","type":"bool"},{"internalType":"uint256","name":"burned","type":"uint256"},{"internalType":"uint256","name":"lottoPrize","type":"uint256"},{"internalType":"address","name":"lottoWinner","type":"address"},{"internalType":"uint256","name":"hzBonus","type":"uint256"},{"internalType":"uint256","name":"mainPool","type":"uint256"}],"stateMutability":"view","type":"function"},{"inputs":[],"name":"getSeedVaultInfo","outputs":[{"internalType":"uint256","name":"vaultBalance","type":"uint256"},{"internalType":"uint256","name":"amountPerRound","type":"uint256"},{"internalType":"uint256","name":"roundsRemaining","type":"uint256"}],"stateMutability":"view","type":"function"},{"inputs":[],"name":"getTimeLeft","outputs":[{"internalType":"uint256","name":"blocks","type":"uint256"},{"internalType":"uint256","name":"secs","type":"uint256"},{"internalType":"bool","name":"isHZ","type":"bool"}],"stateMutability":"view","type":"function"},{"inputs":[{"internalType":"uint256","name":"amount","type":"uint256"}],"name":"grabChicken","outputs":[],"stateMutability":"nonpayable","type":"function"},{"inputs":[{"internalType":"uint256","name":"","type":"uint256"},{"internalType":"address","name":"","type":"address"}],"name":"grabCount","outputs":[{"internalType":"uint256","name":"","type":"uint256"}],"stateMutability":"view","type":"function"},{"inputs":[{"internalType":"uint256","name":"","type":"uint256"},{"internalType":"address","name":"","type":"address"}],"name":"hotZoneDeposits","outputs":[{"internalType":"uint256","name":"","type":"uint256"}],"stateMutability":"view","type":"function"},{"inputs":[],"name":"needsSettle","outputs":[{"internalType":"bool","name":"","type":"bool"}],"stateMutability":"view","type":"function"},{"inputs":[],"name":"nextConfig","outputs":[{"internalType":"uint256","name":"baseTimerBlocks","type":"uint256"},{"internalType":"uint256","name":"timerDecayBps","type":"uint256"},{"internalType":"uint256","name":"timerFloorBlocks","type":"uint256"},{"internalType":"uint256","name":"escalationBps","type":"uint256"},{"internalType":"uint256","name":"minGrabCost","type":"uint256"},{"internalType":"uint256","name":"burnBps","type":"uint256"},{"internalType":"uint256","name":"ownerBps","type":"uint256"},{"internalType":"uint256","name":"lottoBps","type":"uint256"},{"internalType":"uint256","name":"hotZoneBlocks","type":"uint256"},{"internalType":"uint256","name":"hotZoneBonusBps","type":"uint256"}],"stateMutability":"view","type":"function"},{"inputs":[],"name":"owner","outputs":[{"internalType":"address","name":"","type":"address"}],"stateMutability":"view","type":"function"},{"inputs":[],"name":"paused","outputs":[{"internalType":"bool","name":"","type":"bool"}],"stateMutability":"view","type":"function"},{"inputs":[],"name":"pendingLottoRollover","outputs":[{"internalType":"uint256","name":"","type":"uint256"}],"stateMutability":"view","type":"function"},{"inputs":[{"internalType":"address","name":"","type":"address"}],"name":"playerStats","outputs":[{"internalType":"uint256","name":"roundsPlayed","type":"uint256"},{"internalType":"uint256","name":"roundsWon","type":"uint256"},{"internalType":"uint256","name":"roundsLost","type":"uint256"},{"internalType":"uint256","name":"totalDeposited","type":"uint256"},{"internalType":"uint256","name":"totalWon","type":"uint256"},{"internalType":"uint256","name":"totalLost","type":"uint256"},{"internalType":"uint256","name":"lottoWins","type":"uint256"},{"internalType":"uint256","name":"lottoWinnings","type":"uint256"},{"internalType":"uint256","name":"totalGrabs","type":"uint256"}],"stateMutability":"view","type":"function"},{"inputs":[],"name":"renounceOwnership","outputs":[],"stateMutability":"nonpayable","type":"function"},{"inputs":[],"name":"roundActive","outputs":[{"internalType":"bool","name":"","type":"bool"}],"stateMutability":"view","type":"function"},{"inputs":[],"name":"roundEndBlock","outputs":[{"internalType":"uint256","name":"","type":"uint256"}],"stateMutability":"view","type":"function"},{"inputs":[],"name":"roundSeedAmount","outputs":[{"internalType":"uint256","name":"","type":"uint256"}],"stateMutability":"view","type":"function"},{"inputs":[{"internalType":"uint256","name":"","type":"uint256"}],"name":"rounds","outputs":[{"components":[{"internalType":"uint256","name":"baseTimerBlocks","type":"uint256"},{"internalType":"uint256","name":"timerDecayBps","type":"uint256"},{"internalType":"uint256","name":"timerFloorBlocks","type":"uint256"},{"internalType":"uint256","name":"escalationBps","type":"uint256"},{"internalType":"uint256","name":"minGrabCost","type":"uint256"},{"internalType":"uint256","name":"burnBps","type":"uint256"},{"internalType":"uint256","name":"ownerBps","type":"uint256"},{"internalType":"uint256","name":"lottoBps","type":"uint256"},{"internalType":"uint256","name":"hotZoneBlocks","type":"uint256"},{"internalType":"uint256","name":"hotZoneBonusBps","type":"uint256"}],"internalType":"struct HotChicken.Config","name":"config","type":"tuple"},{"internalType":"uint256","name":"pot","type":"uint256"},{"internalType":"uint256","name":"seed","type":"uint256"},{"internalType":"uint256","name":"playerDeposits","type":"uint256"},{"internalType":"uint256","name":"hotZoneDeposits","type":"uint256"},{"internalType":"uint256","name":"startBlock","type":"uint256"},{"internalType":"uint256","name":"endBlock","type":"uint256"},{"internalType":"uint256","name":"startTimestamp","type":"uint256"},{"internalType":"uint256","name":"endTimestamp","type":"uint256"},{"internalType":"uint256","name":"lastGrabBlock","type":"uint256"},{"internalType":"uint256","name":"totalGrabs","type":"uint256"},{"internalType":"uint256","name":"participantCount","type":"uint256"},{"internalType":"address","name":"loser","type":"address"},{"internalType":"uint256","name":"loserDeposits","type":"uint256"},{"internalType":"uint256","name":"loserHZDeposits","type":"uint256"},{"internalType":"uint256","name":"loserConsolation","type":"uint256"},{"internalType":"bool","name":"settled","type":"bool"},{"internalType":"uint256","name":"burnedAmount","type":"uint256"},{"internalType":"uint256","name":"ownerAmount","type":"uint256"},{"internalType":"uint256","name":"actualLottoPot","type":"uint256"},{"internalType":"uint256","name":"hotZoneBonusPool","type":"uint256"},{"internalType":"uint256","name":"mainPool","type":"uint256"},{"internalType":"address","name":"lottoWinner","type":"address"}],"stateMutability":"view","type":"function"},{"inputs":[],"name":"seedVault","outputs":[{"internalType":"uint256","name":"","type":"uint256"}],"stateMutability":"view","type":"function"},{"inputs":[{"internalType":"uint256","name":"val","type":"uint256"}],"name":"setBaseTimerBlocks","outputs":[],"stateMutability":"nonpayable","type":"function"},{"inputs":[{"internalType":"uint256","name":"val","type":"uint256"}],"name":"setBurnBps","outputs":[],"stateMutability":"nonpayable","type":"function"},{"inputs":[{"internalType":"uint256","name":"val","type":"uint256"}],"name":"setEscalationBps","outputs":[],"stateMutability":"nonpayable","type":"function"},{"inputs":[{"internalType":"address","name":"addr","type":"address"}],"name":"setFeeRecipient","outputs":[],"stateMutability":"nonpayable","type":"function"},{"inputs":[{"internalType":"uint256","name":"val","type":"uint256"}],"name":"setHotZoneBlocks","outputs":[],"stateMutability":"nonpayable","type":"function"},{"inputs":[{"internalType":"uint256","name":"val","type":"uint256"}],"name":"setHotZoneBonusBps","outputs":[],"stateMutability":"nonpayable","type":"function"},{"inputs":[{"internalType":"uint256","name":"val","type":"uint256"}],"name":"setLottoBps","outputs":[],"stateMutability":"nonpayable","type":"function"},{"inputs":[{"internalType":"uint256","name":"val","type":"uint256"}],"name":"setMinGrabCost","outputs":[],"stateMutability":"nonpayable","type":"function"},{"inputs":[{"internalType":"uint256","name":"val","type":"uint256"}],"name":"setOwnerBps","outputs":[],"stateMutability":"nonpayable","type":"function"},{"inputs":[{"internalType":"uint256","name":"amount","type":"uint256"}],"name":"setRoundSeedAmount","outputs":[],"stateMutability":"nonpayable","type":"function"},{"inputs":[{"internalType":"uint256","name":"val","type":"uint256"}],"name":"setTimerDecayBps","outputs":[],"stateMutability":"nonpayable","type":"function"},{"inputs":[{"internalType":"uint256","name":"val","type":"uint256"}],"name":"setTimerFloorBlocks","outputs":[],"stateMutability":"nonpayable","type":"function"},{"inputs":[],"name":"totalBurned","outputs":[{"internalType":"uint256","name":"","type":"uint256"}],"stateMutability":"view","type":"function"},{"inputs":[],"name":"totalLottoPaid","outputs":[{"internalType":"uint256","name":"","type":"uint256"}],"stateMutability":"view","type":"function"},{"inputs":[],"name":"totalOwnerRevenue","outputs":[{"internalType":"uint256","name":"","type":"uint256"}],"stateMutability":"view","type":"function"},{"inputs":[],"name":"totalRounds","outputs":[{"internalType":"uint256","name":"","type":"uint256"}],"stateMutability":"view","type":"function"},{"inputs":[],"name":"totalSeeded","outputs":[{"internalType":"uint256","name":"","type":"uint256"}],"stateMutability":"view","type":"function"},{"inputs":[],"name":"totalVolume","outputs":[{"internalType":"uint256","name":"","type":"uint256"}],"stateMutability":"view","type":"function"},{"inputs":[{"internalType":"address","name":"newOwner","type":"address"}],"name":"transferOwnership","outputs":[],"stateMutability":"nonpayable","type":"function"}],"evm":{"bytecode":{"linkReferences":{},"object":"60a0346200021b576001600160401b0390601f6200326d38819003918201601f1916830192919084841183851017620002205781602092849260409687528339810103126200021b57516001600160a01b0380821693918490036200021b573315620002035760009384549160018060a01b031992338482161787558551913391167f8be0079c531659141344cd1fd0a4f28419497f9722a3daafe3b4186f6b6457e08880a3600180558115620001d157506080523390600c541617600c5566038d7ea4c6800060125581519061014082019082821090821117620001bd579061012091835261a8c0808252612328806020840152608285840152612af89081606085015267016345785d8a0000928360808601526101f4948560a0820152606460c08201528560e082015260966101008201526103e8968791015260025560035560826004556005556006558060075560646008556009556096600a55600b555161303690816200023782396080518181816102df015281816107b30152818161129901528181611e9f015281816121be015281816128b701528181612a9d01528181612b8601528181612c3a01528181612ca30152612d210152f35b634e487b7160e01b84526041600452602484fd5b62461bcd60e51b815260206004820152600d60248201526c24b73b30b634b2103a37b5b2b760991b6044820152606490fd5b8251631e4fbdf760e01b815260006004820152602490fd5b600080fd5b634e487b7160e01b600052604160045260246000fdfe6101e0806040526004908136101561001657600080fd5b60009160e08335811c92836301feb02c14611a9e57508263027471b014611a7b57826303fd2a4514611a5e57826306fe8766146119c95782630aa7813f146119935782630c5259bc14611975578263249d39e9146119585782633e9589591461193a57826342bae31f1461187c5782634690484014611853578263497c7e0f146117bf5782634a4e3bd5146117735782634fd66eae1461165457826351858e271461160457826353a58de1146115bf57826359af99a2146115245782635c975abb146114fe5782635f81a57c146114e057826364e9f671146114705782636af24a861461142b5782636b4169c3146113d6578263715018a61461137c57826371a588a5146113375782637aed11c11461126c5782637d3cb76d146112275782637f8a14081461117157826388c3ffb0146110b85782638a19c8bc1461109a5782638a5682991461107c5782638c65c81f14610eaa5782638da5cb5b14610e835782639653af2b14610e655782639fc9844414610db1578263a32bf59714610d4d578263a9ee72a314610d2f578263addc831e14610cc0578263b75bbd9b14610ca2578263ba80aa9c14610bdd578263bf5e5a3014610bbf578263c1e3bd3e14610b0d578263c3f909d414610a86578263c7e284b814610a56578263cb4e24ed14610a38578263cba0b841146109f5578263cdafbbb61461096057508163d68c3397146108f0578163d89135cd146108d2578163db2e21bc14610761578163dce57519146106be578163dd4ac1b01461060a578163e0bcfddb14610554578163e74b981b146104b2578163e9f2a71f146103ff578163f13c8a9914610399578163f2fde38b1461030e57508063f5075ee8146102c95763f553a20d1461029a57600080fd5b346102c657806003193601126102c657600e5460405160109190911c6001600160a01b03168152602090f35b80fd5b50346102c657806003193601126102c6576040517f00000000000000000000000000000000000000000000000000000000000000006001600160a01b03168152602090f35b90503461039557602036600319011261039557610329611ad5565b6103316124a4565b6001600160a01b0390811691821561037d575082546001600160a01b0319811683178455167f8be0079c531659141344cd1fd0a4f28419497f9722a3daafe3b4186f6b6457e08380a380f35b604051631e4fbdf760e01b8152908101849052602490fd5b5080fd5b905034610395576020366003190112610395576103b4612d9d565b60ff600e5460081c166103d2576103cb9035611e57565b6001805580f35b60649060206040519162461bcd60e51b8352820152600660248201526514185d5cd95960d21b6044820152fd5b9050346103955760203660031901126103955780359061041d6124a4565b601e821015806104a6575b1561047857600080516020612fe183398151915260a082546040519060608252601060608301526f74696d6572466c6f6f72426c6f636b7360801b60808301526020820152846040820152a15580f35b60649060206040519162461bcd60e51b8352820152600760248201526618969b1836b4b760c91b6044820152fd5b50610708821115610428565b905034610395576020366003190112610395576104cd611ad5565b6104d56124a4565b6001600160a01b03908116918215610524575081600c549182167faaebcf1bfa00580e41d966056b48521fa9f202645c86d4ddf28113e617c1b1d38580a36001600160a01b03191617600c5580f35b60649060206040519162461bcd60e51b835282015260096024820152682d32b9379030b2323960b91b6044820152fd5b905034610395576020366003190112610395578035906105726124a4565b612774821015806105fe575b156105cf5750600080516020612fe183398151915260a06005546040519060608252600d60608301526c657363616c6174696f6e42707360981b60808301526020820152836040820152a160055580f35b60649060206040519162461bcd60e51b835282015260086024820152673130312d3135302560c01b6044820152fd5b50613a9882111561057e565b905034610395576020366003190112610395578035906106286124a4565b611388821015806106b2575b156106855750600080516020612fe183398151915260a06003546040519060608252600d60608301526c74696d6572446563617942707360981b60808301526020820152836040820152a160035580f35b60649060206040519162461bcd60e51b8352820152600660248201526535302d39352560d01b6044820152fd5b5061251c821115610634565b905034610395576020366003190112610395578035906106dc6124a4565b6107d082116107335750600080516020612fe183398151915260a0600b546040519060608252600f60608301526e686f745a6f6e65426f6e757342707360881b60808301526020820152836040820152a1600b5580f35b60649060206040519162461bcd60e51b835282015260076024820152664d61782032302560c81b6044820152fd5b90503461039557816003193601126103955761077b6124a4565b60ff600e5461078e828260081c16611c4a565b1661089f576040516370a0823160e01b815230918101919091526001600160a01b03907f00000000000000000000000000000000000000000000000000000000000000006020826024818685165afa91821561089457849261083c575b50907f99d7f8b71cfb9126984f7a5eed3a40e64a8959e9b0e442221546fb04ec6a489c928160209381610826575b505050604051908152a180f35b61083492600c541690612e1b565b388181610819565b91506020823d60201161088c575b8161085760209383611b57565b81010312610888579051907f99d7f8b71cfb9126984f7a5eed3a40e64a8959e9b0e442221546fb04ec6a489c6107eb565b8380fd5b3d915061084a565b6040513d86823e3d90fd5b60649060206040519162461bcd60e51b8352820152600c60248201526b526f756e642061637469766560a01b6044820152fd5b82346102c657806003193601126102c6576020601a54604051908152f35b905034610395576020366003190112610395573561090c6124a4565b61091a6103e8821115611d5e565b600080516020612fe183398151915260a0600954604051906060825260086060830152676c6f74746f42707360c01b60808301526020820152836040820152a160095580f35b9150346109f15760203660031901126109f157610120926040906001600160a01b0361098a611ad5565b168152601f602052208054926001820154926002830154906003840154908401546005850154916006860154936008600788015497015497604051998a5260208a015260408901526060880152608087015260a086015260c0850152830152610100820152f35b8280fd5b83823461039557602036600319011261039557604061014092610a2992610a1a611d94565b50358152601460205220611b79565b610a366040518092611be9565bf35b83346102c657806003193601126102c6576020600f54604051908152f35b83346102c657806003193601126102c6576060610a71611df3565b90604051928352602083015215156040820152f35b909150346109f157826003193601126109f1576101409250610aa6611d94565b5060405191610ab483611b1e565b600254835260035460208401525460408301526005546060830152600654608083015260075460a083015260085460c083015260095490820152600a54610100820152600b54610120820152610a366040518092611be9565b83823461039557602090816003193601126109f157358252601581526040822060405192838383549182815201908193835284832090835b818110610ba25750505084610b5b910385611b57565b60405193838594850191818652518092526040850193925b828110610b8257505050500390f35b83516001600160a01b031685528695509381019392810192600101610b73565b82546001600160a01b031684529286019260019283019201610b45565b83346102c657806003193601126102c6576020601b54604051908152f35b83823461039557602036600319011261039557803590610bfb6124a4565b66038d7ea4c6800082101580610c8f575b15610c5f5750600080516020612fe183398151915260a06012546040519060608252600f60608301526e1c9bdd5b9914d95959105b5bdd5b9d608a1b60808301526020820152836040820152a160125580f35b60649060206040519162461bcd60e51b835282015260096024820152680302e3030312d3130360bc1b6044820152fd5b5068056bc75e2d63100000821115610c0c565b83346102c657806003193601126102c6576020601c54604051908152f35b8382346103955760203660031901126103955735610cdc6124a4565b610cea6103e8821115611d5e565b600080516020612fe183398151915260a0600754604051906060825260076060830152666275726e42707360c81b60808301526020820152836040820152a160075580f35b83346102c657806003193601126102c6576020601254604051908152f35b83903461039557816003193601126103955761012090610d6b611cd3565b979896604096919695929594939451998a5260208a015260018060a01b031660408901526060880152608087015260a086015260c0850152151590830152610100820152f35b83823461039557602036600319011261039557803590610dcf6124a4565b601e82101580610e59575b15610e2b5750600080516020612fe183398151915260a0600a546040519060608252600d60608301526c686f745a6f6e65426c6f636b7360981b60808301526020820152836040820152a1600a5580f35b60649060206040519162461bcd60e51b835282015260076024820152661896999836b4b760c91b6044820152fd5b50610384821115610dda565b83346102c657806003193601126102c6576020601354604051908152f35b83346102c657806003193601126102c657546040516001600160a01b039091168152602090f35b83823461039557602036600319011261039557906040913581526014602052206101c052610eda6101c051611b79565b6101c051600a81015461010052600b81015461014052600c810154600d820154600e830154600f8401546010850154601186015460128701546013880154601489015460158a015460168b015460178c015460188d015460198e015460ff16608052601a8e015460c052601b8e01546101a052601c8e015461018052601d8e015461016052601e8e015461012052601f909d01546001600160a01b0390811660e05260405160a08190529d9e919d929c93169a9399949895979594939291610fa191611be9565b6101005161014060a05101526101405161016060a051015261018060a05101526101a060a05101526101c060a05101526101e060a051015261020060a051015261022060a051015261024060a051015261026060a051015261028060a05101526102a060a05101526102c060a05101526102e060a051015261030060a0510152608051151561032060a051015260c05161034060a05101526101a05161036060a05101526101805161038060a0510152610160516103a060a0510152610120516103c060a051015260e0516103e060a051015261040060a051f35b83346102c657806003193601126102c6576020601954604051908152f35b83346102c657806003193601126102c6576020600d54604051908152f35b9150346109f15760203660031901126109f1576101809260409135815260146020522090600a82015491600b81015491600c82015490600d83015460018060a01b039182601586015416601686015460ff60198801541691601a88015494601c89015496601f8a01541697601e601d8b01549a01549a6040519c8d5260208d015260408c015260608b015260808a015260a0890152151560c0880152860152610100850152610120840152610140830152610160820152f35b8382346103955760203660031901126103955780359061118f6124a4565b6107088210158061121a575b156111ee5750600080516020612fe183398151915260a06002546040519060608252600f60608301526e6261736554696d6572426c6f636b7360881b60808301526020820152836040820152a160025580f35b60649060206040519162461bcd60e51b835282015260056024820152640c5a0b4dd960da1b6044820152fd5b5062049d4082111561119b565b83346102c657806003193601126102c657601154601254606092811561126657506112528183611ca6565b905b60405192835260208301526040820152f35b90611254565b8382346103955760203660031901126103955780359061128a612d9d565b811561130557506112bd8130337f0000000000000000000000000000000000000000000000000000000000000000612dc0565b6112c981601154611c83565b8060115560405191825260208201527f2e9a80a347f87c9efd99f26ca75c8df684f98679bbd887bdd8531772cbc2969860403392a26001805580f35b60649060206040519162461bcd60e51b8352820152600b60248201526a16995c9bc8185b5bdd5b9d60aa1b6044820152fd5b83823461039557604036600319011261039557602091604091611358611aba565b90358252601884528282206001600160a01b03909116825283522054604051908152f35b83346102c657806003193601126102c6576113956124a4565b80546001600160a01b03198116825581906001600160a01b03167f8be0079c531659141344cd1fd0a4f28419497f9722a3daafe3b4186f6b6457e08280a380f35b83346102c657806003193601126102c65750601954601a54601b54601c54601d549060ff600e541692601e54946040519687526020870152604086015260608501526080840152151560a083015260c0820152f35b8382346103955760403660031901126103955760209160409161144c611aba565b90358252601784528282206001600160a01b03909116825283522054604051908152f35b9150346109f157826003193601126109f157610140925060025491600354915490600554906006546007546008549160095494600a5496600b54986040519a8b5260208b015260408a01526060890152608088015260a087015260c0860152840152610100830152610120820152f35b83346102c657806003193601126102c6576020601d54604051908152f35b83346102c657806003193601126102c657602060ff600e5460081c166040519015158152f35b838234610395576020366003190112610395578035906115426124a4565b6101f482116115925750600080516020612fe183398151915260a0600854604051906060825260086060830152676f776e657242707360c01b60808301526020820152836040820152a160085580f35b60649060206040519162461bcd60e51b835282015260066024820152654d617820352560d01b6044820152fd5b838234610395576040366003190112610395576020916040916115e0611aba565b90358252601684528282206001600160a01b03909116825283522054604051908152f35b83346102c657806003193601126102c65761161d6124a4565b61010061ff0019600e541617600e55337f62e78cea01bee320cd4e420270b5ea74000d11b0c9f74754ebdbfc544b05a2588280a280f35b909150346109f15760203660031901126109f15791610120926040611677611ad5565b9281519361168485611aeb565b81855281602086015281838601528160608601528160808601528160a08601528160c08601528184860152816101008096015260018060a01b03168152601f6020522090604051916116d583611aeb565b805494858452600182015490602085019182526002830154906040860191825260038401549060608701918252840154906080870191825260058501549260a0880193845260068601549460c089019586528960086007890154988a8c01998a52015499019889526040519a8b525160208b01525160408a01525160608901525160808801525160a08701525160c086015251908401525190820152f35b83346102c657806003193601126102c65761178c6124a4565b61ff0019600e5416600e55337f5db9ee0a495bf2e6ff9c91a7834c1ba4fdd244a5e8aa4e537bd38aeae4b073aa8280a280f35b838234610395576040366003190112610395579060809135906117e0611aba565b91808252602091601683526040812060018060a01b0380951690818352845260408220549483835260178552604083208284528552601560408085205494868152601888528181208582528852818120549681526014885220015416149260405194855284015260408301526060820152f35b83346102c657806003193601126102c657600c546040516001600160a01b039091168152602090f35b8382346103955760203660031901126103955780359061189a6124a4565b66038d7ea4c6800082101580611928575b156118fa5750600080516020612fe183398151915260a06006546040519060608252600b60608301526a1b5a5b91dc985890dbdcdd60aa1b60808301526020820152836040820152a160065580f35b60649060206040519162461bcd60e51b83528201526007602482015266302e3030312d3560c81b6044820152fd5b50674563918244f400008211156118ab565b83346102c657806003193601126102c6576020601154604051908152f35b83346102c657806003193601126102c65760206040516127108152f35b83346102c657806003193601126102c6576020601e54604051908152f35b83346102c657806003193601126102c65760ff600e5416806119bd575b6020906040519015158152f35b506010544310156119b0565b8382346103955781600319360112610395576119e36124a4565b60ff600e546119f6828260081c16611c4a565b1615611a2f5750611a0561250d565b600d547f900e907f9c9b41743f506b7f161368a7ede0785f9e3fea29dea2e6adaf94a3cf8280a280f35b60649060206040519162461bcd60e51b83528201526008602482015267139bc81c9bdd5b9960c21b6044820152fd5b83346102c657806003193601126102c657602060405161dead8152f35b83346102c657806003193601126102c657602060ff600e54166040519015158152f35b8490346103955781600319360112610395576020906010548152f35b602435906001600160a01b0382168203611ad057565b600080fd5b600435906001600160a01b0382168203611ad057565b610120810190811067ffffffffffffffff821117611b0857604052565b634e487b7160e01b600052604160045260246000fd5b610140810190811067ffffffffffffffff821117611b0857604052565b6080810190811067ffffffffffffffff821117611b0857604052565b90601f8019910116810190811067ffffffffffffffff821117611b0857604052565b90604051611b8681611b1e565b610120600982948054845260018101546020850152600281015460408501526003810154606085015260048101546080850152600581015460a0850152600681015460c0850152600781015460e085015260088101546101008501520154910152565b805182526020810151602083015260408101516040830152606081015160608301526080810151608083015260a081015160a083015260c081015160c083015260e081015160e0830152610100808201519083015261012080910151910152565b15611c5157565b60405162461bcd60e51b815260206004820152600a602482015269139bdd081c185d5cd95960b21b6044820152606490fd5b91908201809211611c9057565b634e487b7160e01b600052601160045260246000fd5b8115611cb0570490565b634e487b7160e01b600052601260045260246000fd5b91908203918211611c9057565b600d54600e5490918260ff831615611d48576000908152601460205260409020600a810154600f54601080549295901c6001600160a01b031693909291438111611d38575060005b8092601481015492600d6013830154936008840154101592015490565b611d43904390611cc6565b611d1b565b5060065460009250829182908190819081908190565b15611d6557565b60405162461bcd60e51b81526020600482015260076024820152664d61782031302560c81b6044820152606490fd5b60405190611da182611b1e565b816101206000918281528260208201528260408201528260608201528260808201528260a08201528260c08201528260e0820152826101008201520152565b81810292918115918404141715611c9057565b60ff600e5416158015611e4b575b611e4057611e126010544390611cc6565b908160011b82810460021483151715611c905790600d54600052601460205260086040600020015483111590565b600090600090600090565b50601054431015611e01565b600e60ff81541680612498575b61248b575b60ff815416156121845760018060a01b0380825460101c16331461214d578290611e97600f54831015612e59565b611ec38230337f0000000000000000000000000000000000000000000000000000000000000000612dc0565b600d80549060009182526020906014825260409081842093611ee86010544390611cc6565b611fc6611fd5600888019283548111998c5460101c169b611f0e600a8b019c8d54611c83565b8c558d611f20600c8c01918254611c83565b905560138a01611f3081546124d0565b9055865480875260168a528887203388528a52888720541561210f575b50865486526016895287862033875289528d611f6d898820918254611c83565b905586548652601889528786203387528952878620611f8c81546124d0565b90558a156120d8575b805462010000600160b01b0319163360101b62010000600160b01b031617905560038901546127109384918f611de0565b04600f55600189015490611de0565b049560028101548088106120d0575b50918491600893611ff58943611c83565b80601055600f82015560124391015554871115809881996120c8575b50612099575b338152601f865260038282200161202f8c8254611c83565b9055338152601f8652200161204481546124d0565b905561205288601d54611c83565b601d55549454600f54928251988952880152860152606085015260808401527f4fac472d5b6591a42f8223494b16f053353d72a46610d443eff08001b39a995160a03394a4565b83547f63068782713f7520cc644e32ad434f43630783099e68b3cbfee46b7263b02bfe8784518a8152a2612017565b905038612011565b965084611fe4565b8d6120e7888c01918254611c83565b9055865486526017895287862033875289528d612108898820918254611c83565b9055611f95565b86526015895261212133898820612e91565b60148a0161212f81546124d0565b9055338652601f895287862061214581546124d0565b905538611f4d565b60405162461bcd60e51b815260206004820152600f60248201526e416c726561647920686f6c64696e6760881b6044820152606490fd5b7f5359739f1459cc38d43f8a9266af48358a798a3bbfca4f2302f6465e14e8dbac601f916121b6600654851015612e59565b6121e28430337f0000000000000000000000000000000000000000000000000000000000000000612dc0565b600d6123ac6121f182546124d0565b8083556121ff6019546124d0565b601955600160ff1985541617845560009081526020926014845260409182812097889560028703612439575b8a8461225582600b61224a88601154806123d0575b5060135490611c83565b9b019a808c55611c83565b9b600a81019c8d5582600c820155438b82015561227460025443611c83565b600f82019081554260108084019190915543601284015560016013840181905560148401558c5462010000600160b01b0319163390911b62010000600160b01b031617909b55600554612710906122cb9085611de0565b04600f558a5460105581548652601584526122e833898820612e91565b8154865260168452878620338752845282888720558154865260188452878620338752845260018887205561231e438c54611cc6565b600a5410156123b1575b50505033835281815284832061233e81546124d0565b90553383528181526003858420016123578c8254611c83565b90553383525260088382200161236d81546124d0565b905560135561237e88601d54611c83565b601d555495549254935490519384933398859094939260609260808301968352602083015260408201520152565b0390a3565b0155835483526017815284832033845281528a858420558a8438612328565b601254909150808210612432575b7f23fa081a9a0c5ad79981e4b73b26de8b7a664b8e5d5257d7594f77f570c5ba468d61240b838095611cc6565b928360115561241c81601e54611c83565b601e5589549382519182528c820152a238612240565b50806123de565b60025487556003546001880155600454600288015560055460038801556006546004880155600754600588015560085460068801556009546007880155600a546008880155600b54600988015561222b565b61249361250d565b611e69565b50601054431015611e64565b6000546001600160a01b031633036124b857565b60405163118cdaa760e01b8152336004820152602490fd5b6000198114611c905760010190565b80548210156124f75760005260206000200190600090565b634e487b7160e01b600052603260045260246000fd5b600d546000526014602052604060002042601182015560018060a01b03600e5460101c166bffffffffffffffffffffffff60a01b6015830154161760158201556019810160ff1990600182825416179055600e5416600e556001601482015414612cf557600d546000526016602052604060002090600160a01b60019003601582015416918260005260205260406000205491826016830155600d54600052601760205260406000209060005260205260406000205480601783015582600c830154906125d991611cc6565b90600d830154906125e991611cc6565b9260058301546125f98184611de0565b61271090049460068501549661260f8886611de0565b61271090046007870154906126248288611de0565b6127109004946126349087611de0565b6127109004996126449087611de0565b6127109004916126549087611de0565b6127109004948a868460098c015461266c908b611de0565b6127109004998a9361267d91611cc6565b9061268791611cc6565b9061269191611cc6565b9061269b91611cc6565b956126a591611c83565b998415612cd8575b906126f76127039392600b8b01549b8c60188d01556126cc8282611c83565b601a8d01556126db8585611c83565b601b8d01558d601c8d015589601d8d015588601e8d0155611c83565b80612c6f575b50611c83565b80612c21575b5086612b70575b61271986612ed1565b601f870180546001600160a01b0319166001600160a01b0383161790559780151580612b5e575b612a96575b600d54600052601560205260406000209860005b8a5481101561299b578061276f6001928d6124df565b838060a01b0391549060031b1c16828060a01b0360158c015416811461299557600d5480600052601660205260406000208260005260205260406000205490600052601760205260406000208260005260205260406000205461280f8d6127106127ff60076128066127f0846127e960058801548b611de0565b0489611cc6565b846127ff60068801548b611de0565b0490611cc6565b93015486611de0565b918c6000918115158261298c575b612976575b5050896000928d8215158361296d575b80612964575b612924575b505050826128a661287984612874857fa5d2cf8bbb998380d1c6011ac6200fc92d40d80a6f7eff45a255a57738a91c789798611c83565b611c83565b806128b0575b600d5495604051948594859094939260609260808301968352602083015260408201520152565b0390a35b01612759565b6128db81887f0000000000000000000000000000000000000000000000000000000000000000612e1b565b6128e58685611c83565b87600052601f6020526129016004604060002001918254611c83565b905586600052601f6020528860406000200161291d81546124d0565b905561287f565b7fa5d2cf8bbb998380d1c6011ac6200fc92d40d80a6f7eff45a255a57738a91c78945061295a929161295591611de0565b611ca6565b915089388d61283d565b50811515612838565b50801515612832565b6129859250612955908d611de0565b8c38612822565b508c151561281d565b506128aa565b509250967fc31996d40e5893861400760c37787365eb4d183c84dc81f29b76371a26d62835949691985060e093955060018060a01b03601583015416600052601f60205260026040600020016129f181546124d0565b9055601682015490808211612a5c575b5050600d549460018060a01b0360158301541696601683015498601a840154936014601b820154910154946040519b8c5260208c015260408b015260608a0152608089015260a088015260c087015260018060a01b031694a4565b612a6591611cc6565b60018060a01b03601583015416600052601f602052612a8d6005604060002001918254611c83565b90553880612a01565b612ac1818a7f0000000000000000000000000000000000000000000000000000000000000000612e1b565b612acd81601b54611c83565b601b556001600160a01b0389166000908152601f602052604090206006018054612af6906124d0565b905560018060a01b038916600052601f6020526007604060002001612b1c828254611c83565b9055600d546040518281526001600160a01b038b1691907f4b4370e35fa67b2ed99f2f8fceb32066a4aa4cd33e7a990d98ecaef1bc5bf47b90602090a3612745565b506001600160a01b0389161515612740565b6015860154612baa9088906001600160a01b03167f0000000000000000000000000000000000000000000000000000000000000000612e1b565b6016860154600081128882810312811690898381031390151617611c9057600d547f4119e264be4fc285d7dc58e5960cf706d6af27faab8ab0df53d738e3727ad838608060018060a01b0360158b01541693600b8b0154906040519182528c60208301528060408301528c036060820152a3612710565b600c54612c669190612c5e9082906001600160a01b03167f0000000000000000000000000000000000000000000000000000000000000000612e1b565b601c54611c83565b601c5538612709565b612ccf90612cc760405163a9059cbb60e01b602082015261dead602482015282604482015260448152612ca181611b3b565b7f0000000000000000000000000000000000000000000000000000000000000000612f78565b601a54611c83565b601a55386126fd565b95612ce890612703939296611c83565b60009690959192506126ad565b612d05600b820154601154611c83565b6011556015810154600c820154612d45916001600160a01b03167f0000000000000000000000000000000000000000000000000000000000000000612e1b565b7fdb5921df7fbb38e24667925d5736d9d890212d79605330d0315a5c7225663af76080600a600d5493015460405190815260406020820152600d60408201526c39b4b733b63290383630bcb2b960991b6060820152a2565b600260015414612dae576002600155565b604051633ee5aeb560e01b8152600490fd5b6040516323b872dd60e01b60208201526001600160a01b03928316602482015292909116604483015260648083019390935291815260a081019181831067ffffffffffffffff841117611b0857612e1992604052612f78565b565b60405163a9059cbb60e01b60208201526001600160a01b039092166024830152604480830193909352918152612e1991612e5482611b3b565b612f78565b15612e6057565b60405162461bcd60e51b81526020600482015260096024820152682132b637bb9036b4b760b91b6044820152606490fd5b805468010000000000000000811015611b0857612eb3916001820181556124df565b60018060a09493941b038084549260031b9316831b921b1916179055565b600d54908160005260156020526040600020908154908115612f6f57601281015440908115612f58575b936015612f43950154604051916020830193845260408301526bffffffffffffffffffffffff199060601b16606082015260548152612f3981611b3b565b51902006906124df565b905460039190911b1c6001600160a01b031690565b9050600019430193438511611c9057934090612efb565b50505050600090565b906000602091828151910182855af115612fd4576000513d612fcb57506001600160a01b0381163b155b612fa95750565b604051635274afe760e01b81526001600160a01b039091166004820152602490fd5b60011415612fa2565b6040513d6000823e3d90fdfed7474166e78731bc168caca1fe1ccebbd6f3c95baee64997902e6b48f442b81aa26469706673582212203ccf13e163a98c239929209081193e96b13b62ffcd78984aad06164b85cc95e164736f6c63430008180033","opcodes":"PUSH1 0xA0 CALLVALUE PUSH3 0x21B JUMPI PUSH1 0x1 PUSH1 0x1 PUSH1 0x40 SHL SUB SWAP1 PUSH1 0x1F PUSH3 0x326D CODESIZE DUP2 SWAP1 SUB SWAP2 DUP3 ADD PUSH1 0x1F NOT AND DUP4 ADD SWAP3 SWAP2 SWAP1 DUP5 DUP5 GT DUP4 DUP6 LT OR PUSH3 0x220 JUMPI DUP2 PUSH1 0x20 SWAP3 DUP5 SWAP3 PUSH1 0x40 SWAP7 DUP8 MSTORE DUP4 CODECOPY DUP2 ADD SUB SLT PUSH3 0x21B JUMPI MLOAD PUSH1 0x1 PUSH1 0x1 PUSH1 0xA0 SHL SUB DUP1 DUP3 AND SWAP4 SWAP2 DUP5 SWAP1 SUB PUSH3 0x21B JUMPI CALLER ISZERO PUSH3 0x203 JUMPI PUSH1 0x0 SWAP4 DUP5 SLOAD SWAP2 PUSH1 0x1 DUP1 PUSH1 0xA0 SHL SUB NOT SWAP3 CALLER DUP5 DUP3 AND OR DUP8 SSTORE DUP6 MLOAD SWAP2 CALLER SWAP2 AND PUSH32 0x8BE0079C531659141344CD1FD0A4F28419497F9722A3DAAFE3B4186F6B6457E0 DUP9 DUP1 LOG3 PUSH1 0x1 DUP1 SSTORE DUP2 ISZERO PUSH3 0x1D1 JUMPI POP PUSH1 0x80 MSTORE CALLER SWAP1 PUSH1 0xC SLOAD AND OR PUSH1 0xC SSTORE PUSH7 0x38D7EA4C68000 PUSH1 0x12 SSTORE DUP2 MLOAD SWAP1 PUSH2 0x140 DUP3 ADD SWAP1 DUP3 DUP3 LT SWAP1 DUP3 GT OR PUSH3 0x1BD JUMPI SWAP1 PUSH2 0x120 SWAP2 DUP4 MSTORE PUSH2 0xA8C0 DUP1 DUP3 MSTORE PUSH2 0x2328 DUP1 PUSH1 0x20 DUP5 ADD MSTORE PUSH1 0x82 DUP6 DUP5 ADD MSTORE PUSH2 0x2AF8 SWAP1 DUP2 PUSH1 0x60 DUP6 ADD MSTORE PUSH8 0x16345785D8A0000 SWAP3 DUP4 PUSH1 0x80 DUP7 ADD MSTORE PUSH2 0x1F4 SWAP5 DUP6 PUSH1 0xA0 DUP3 ADD MSTORE PUSH1 0x64 PUSH1 0xC0 DUP3 ADD MSTORE DUP6 PUSH1 0xE0 DUP3 ADD MSTORE PUSH1 0x96 PUSH2 0x100 DUP3 ADD MSTORE PUSH2 0x3E8 SWAP7 DUP8 SWAP2 ADD MSTORE PUSH1 0x2 SSTORE PUSH1 0x3 SSTORE PUSH1 0x82 PUSH1 0x4 SSTORE PUSH1 0x5 SSTORE PUSH1 0x6 SSTORE DUP1 PUSH1 0x7 SSTORE PUSH1 0x64 PUSH1 0x8 SSTORE PUSH1 0x9 SSTORE PUSH1 0x96 PUSH1 0xA SSTORE PUSH1 0xB SSTORE MLOAD PUSH2 0x3036 SWAP1 DUP2 PUSH3 0x237 DUP3 CODECOPY PUSH1 0x80 MLOAD DUP2 DUP2 DUP2 PUSH2 0x2DF ADD MSTORE DUP2 DUP2 PUSH2 0x7B3 ADD MSTORE DUP2 DUP2 PUSH2 0x1299 ADD MSTORE DUP2 DUP2 PUSH2 0x1E9F ADD MSTORE DUP2 DUP2 PUSH2 0x21BE ADD MSTORE DUP2 DUP2 PUSH2 0x28B7 ADD MSTORE DUP2 DUP2 PUSH2 0x2A9D ADD MSTORE DUP2 DUP2 PUSH2 0x2B86 ADD MSTORE DUP2 DUP2 PUSH2 0x2C3A ADD MSTORE DUP2 DUP2 PUSH2 0x2CA3 ADD MSTORE PUSH2 0x2D21 ADD MSTORE RETURN JUMPDEST PUSH4 0x4E487B71 PUSH1 0xE0 SHL DUP5 MSTORE PUSH1 0x41 PUSH1 0x4 MSTORE PUSH1 0x24 DUP5 REVERT JUMPDEST PUSH3 0x461BCD PUSH1 0xE5 SHL DUP2 MSTORE PUSH1 0x20 PUSH1 0x4 DUP3 ADD MSTORE PUSH1 0xD PUSH1 0x24 DUP3 ADD MSTORE PUSH13 0x24B73B30B634B2103A37B5B2B7 PUSH1 0x99 SHL PUSH1 0x44 DUP3 ADD MSTORE PUSH1 0x64 SWAP1 REVERT JUMPDEST DUP3 MLOAD PUSH4 0x1E4FBDF7 PUSH1 0xE0 SHL DUP2 MSTORE PUSH1 0x0 PUSH1 0x4 DUP3 ADD MSTORE PUSH1 0x24 SWAP1 REVERT JUMPDEST PUSH1 0x0 DUP1 REVERT JUMPDEST PUSH4 0x4E487B71 PUSH1 0xE0 SHL PUSH1 0x0 MSTORE PUSH1 0x41 PUSH1 0x4 MSTORE PUSH1 0x24 PUSH1 0x0 REVERT INVALID PUSH2 0x1E0 DUP1 PUSH1 0x40 MSTORE PUSH1 0x4 SWAP1 DUP2 CALLDATASIZE LT ISZERO PUSH2 0x16 JUMPI PUSH1 0x0 DUP1 REVERT JUMPDEST PUSH1 0x0 SWAP2 PUSH1 0xE0 DUP4 CALLDATALOAD DUP2 SHR SWAP3 DUP4 PUSH4 0x1FEB02C EQ PUSH2 0x1A9E JUMPI POP DUP3 PUSH4 0x27471B0 EQ PUSH2 0x1A7B JUMPI DUP3 PUSH4 0x3FD2A45 EQ PUSH2 0x1A5E JUMPI DUP3 PUSH4 0x6FE8766 EQ PUSH2 0x19C9 JUMPI DUP3 PUSH4 0xAA7813F EQ PUSH2 0x1993 JUMPI DUP3 PUSH4 0xC5259BC EQ PUSH2 0x1975 JUMPI DUP3 PUSH4 0x249D39E9 EQ PUSH2 0x1958 JUMPI DUP3 PUSH4 0x3E958959 EQ PUSH2 0x193A JUMPI DUP3 PUSH4 0x42BAE31F EQ PUSH2 0x187C JUMPI DUP3 PUSH4 0x46904840 EQ PUSH2 0x1853 JUMPI DUP3 PUSH4 0x497C7E0F EQ PUSH2 0x17BF JUMPI DUP3 PUSH4 0x4A4E3BD5 EQ PUSH2 0x1773 JUMPI DUP3 PUSH4 0x4FD66EAE EQ PUSH2 0x1654 JUMPI DUP3 PUSH4 0x51858E27 EQ PUSH2 0x1604 JUMPI DUP3 PUSH4 0x53A58DE1 EQ PUSH2 0x15BF JUMPI DUP3 PUSH4 0x59AF99A2 EQ PUSH2 0x1524 JUMPI DUP3 PUSH4 0x5C975ABB EQ PUSH2 0x14FE JUMPI DUP3 PUSH4 0x5F81A57C EQ PUSH2 0x14E0 JUMPI DUP3 PUSH4 0x64E9F671 EQ PUSH2 0x1470 JUMPI DUP3 PUSH4 0x6AF24A86 EQ PUSH2 0x142B JUMPI DUP3 PUSH4 0x6B4169C3 EQ PUSH2 0x13D6 JUMPI DUP3 PUSH4 0x715018A6 EQ PUSH2 0x137C JUMPI DUP3 PUSH4 0x71A588A5 EQ PUSH2 0x1337 JUMPI DUP3 PUSH4 0x7AED11C1 EQ PUSH2 0x126C JUMPI DUP3 PUSH4 0x7D3CB76D EQ PUSH2 0x1227 JUMPI DUP3 PUSH4 0x7F8A1408 EQ PUSH2 0x1171 JUMPI DUP3 PUSH4 0x88C3FFB0 EQ PUSH2 0x10B8 JUMPI DUP3 PUSH4 0x8A19C8BC EQ PUSH2 0x109A JUMPI DUP3 PUSH4 0x8A568299 EQ PUSH2 0x107C JUMPI DUP3 PUSH4 0x8C65C81F EQ PUSH2 0xEAA JUMPI DUP3 PUSH4 0x8DA5CB5B EQ PUSH2 0xE83 JUMPI DUP3 PUSH4 0x9653AF2B EQ PUSH2 0xE65 JUMPI DUP3 PUSH4 0x9FC98444 EQ PUSH2 0xDB1 JUMPI DUP3 PUSH4 0xA32BF597 EQ PUSH2 0xD4D JUMPI DUP3 PUSH4 0xA9EE72A3 EQ PUSH2 0xD2F JUMPI DUP3 PUSH4 0xADDC831E EQ PUSH2 0xCC0 JUMPI DUP3 PUSH4 0xB75BBD9B EQ PUSH2 0xCA2 JUMPI DUP3 PUSH4 0xBA80AA9C EQ PUSH2 0xBDD JUMPI DUP3 PUSH4 0xBF5E5A30 EQ PUSH2 0xBBF JUMPI DUP3 PUSH4 0xC1E3BD3E EQ PUSH2 0xB0D JUMPI DUP3 PUSH4 0xC3F909D4 EQ PUSH2 0xA86 JUMPI DUP3 PUSH4 0xC7E284B8 EQ PUSH2 0xA56 JUMPI DUP3 PUSH4 0xCB4E24ED EQ PUSH2 0xA38 JUMPI DUP3 PUSH4 0xCBA0B841 EQ PUSH2 0x9F5 JUMPI DUP3 PUSH4 0xCDAFBBB6 EQ PUSH2 0x960 JUMPI POP DUP2 PUSH4 0xD68C3397 EQ PUSH2 0x8F0 JUMPI DUP2 PUSH4 0xD89135CD EQ PUSH2 0x8D2 JUMPI DUP2 PUSH4 0xDB2E21BC EQ PUSH2 0x761 JUMPI DUP2 PUSH4 0xDCE57519 EQ PUSH2 0x6BE JUMPI DUP2 PUSH4 0xDD4AC1B0 EQ PUSH2 0x60A JUMPI DUP2 PUSH4 0xE0BCFDDB EQ PUSH2 0x554 JUMPI DUP2 PUSH4 0xE74B981B EQ PUSH2 0x4B2 JUMPI DUP2 PUSH4 0xE9F2A71F EQ PUSH2 0x3FF JUMPI DUP2 PUSH4 0xF13C8A99 EQ PUSH2 0x399 JUMPI DUP2 PUSH4 0xF2FDE38B EQ PUSH2 0x30E JUMPI POP DUP1 PUSH4 0xF5075EE8 EQ PUSH2 0x2C9 JUMPI PUSH4 0xF553A20D EQ PUSH2 0x29A JUMPI PUSH1 0x0 DUP1 REVERT JUMPDEST CALLVALUE PUSH2 0x2C6 JUMPI DUP1 PUSH1 0x3 NOT CALLDATASIZE ADD SLT PUSH2 0x2C6 JUMPI PUSH1 0xE SLOAD PUSH1 0x40 MLOAD PUSH1 0x10 SWAP2 SWAP1 SWAP2 SHR PUSH1 0x1 PUSH1 0x1 PUSH1 0xA0 SHL SUB AND DUP2 MSTORE PUSH1 0x20 SWAP1 RETURN JUMPDEST DUP1 REVERT JUMPDEST POP CALLVALUE PUSH2 0x2C6 JUMPI DUP1 PUSH1 0x3 NOT CALLDATASIZE ADD SLT PUSH2 0x2C6 JUMPI PUSH1 0x40 MLOAD PUSH32 0x0 PUSH1 0x1 PUSH1 0x1 PUSH1 0xA0 SHL SUB AND DUP2 MSTORE PUSH1 0x20 SWAP1 RETURN JUMPDEST SWAP1 POP CALLVALUE PUSH2 0x395 JUMPI PUSH1 0x20 CALLDATASIZE PUSH1 0x3 NOT ADD SLT PUSH2 0x395 JUMPI PUSH2 0x329 PUSH2 0x1AD5 JUMP JUMPDEST PUSH2 0x331 PUSH2 0x24A4 JUMP JUMPDEST PUSH1 0x1 PUSH1 0x1 PUSH1 0xA0 SHL SUB SWAP1 DUP2 AND SWAP2 DUP3 ISZERO PUSH2 0x37D JUMPI POP DUP3 SLOAD PUSH1 0x1 PUSH1 0x1 PUSH1 0xA0 SHL SUB NOT DUP2 AND DUP4 OR DUP5 SSTORE AND PUSH32 0x8BE0079C531659141344CD1FD0A4F28419497F9722A3DAAFE3B4186F6B6457E0 DUP4 DUP1 LOG3 DUP1 RETURN JUMPDEST PUSH1 0x40 MLOAD PUSH4 0x1E4FBDF7 PUSH1 0xE0 SHL DUP2 MSTORE SWAP1 DUP2 ADD DUP5 SWAP1 MSTORE PUSH1 0x24 SWAP1 REVERT JUMPDEST POP DUP1 REVERT JUMPDEST SWAP1 POP CALLVALUE PUSH2 0x395 JUMPI PUSH1 0x20 CALLDATASIZE PUSH1 0x3 NOT ADD SLT PUSH2 0x395 JUMPI PUSH2 0x3B4 PUSH2 0x2D9D JUMP JUMPDEST PUSH1 0xFF PUSH1 0xE SLOAD PUSH1 0x8 SHR AND PUSH2 0x3D2 JUMPI PUSH2 0x3CB SWAP1 CALLDATALOAD PUSH2 0x1E57 JUMP JUMPDEST PUSH1 0x1 DUP1 SSTORE DUP1 RETURN JUMPDEST PUSH1 0x64 SWAP1 PUSH1 0x20 PUSH1 0x40 MLOAD SWAP2 PUSH3 0x461BCD PUSH1 0xE5 SHL DUP4 MSTORE DUP3 ADD MSTORE PUSH1 0x6 PUSH1 0x24 DUP3 ADD MSTORE PUSH6 0x14185D5CD959 PUSH1 0xD2 SHL PUSH1 0x44 DUP3 ADD MSTORE REVERT JUMPDEST SWAP1 POP CALLVALUE PUSH2 0x395 JUMPI PUSH1 0x20 CALLDATASIZE PUSH1 0x3 NOT ADD SLT PUSH2 0x395 JUMPI DUP1 CALLDATALOAD SWAP1 PUSH2 0x41D PUSH2 0x24A4 JUMP JUMPDEST PUSH1 0x1E DUP3 LT ISZERO DUP1 PUSH2 0x4A6 JUMPI JUMPDEST ISZERO PUSH2 0x478 JUMPI PUSH1 0x0 DUP1 MLOAD PUSH1 0x20 PUSH2 0x2FE1 DUP4 CODECOPY DUP2 MLOAD SWAP2 MSTORE PUSH1 0xA0 DUP3 SLOAD PUSH1 0x40 MLOAD SWAP1 PUSH1 0x60 DUP3 MSTORE PUSH1 0x10 PUSH1 0x60 DUP4 ADD MSTORE PUSH16 0x74696D6572466C6F6F72426C6F636B73 PUSH1 0x80 SHL PUSH1 0x80 DUP4 ADD MSTORE PUSH1 0x20 DUP3 ADD MSTORE DUP5 PUSH1 0x40 DUP3 ADD MSTORE LOG1 SSTORE DUP1 RETURN JUMPDEST PUSH1 0x64 SWAP1 PUSH1 0x20 PUSH1 0x40 MLOAD SWAP2 PUSH3 0x461BCD PUSH1 0xE5 SHL DUP4 MSTORE DUP3 ADD MSTORE PUSH1 0x7 PUSH1 0x24 DUP3 ADD MSTORE PUSH7 0x18969B1836B4B7 PUSH1 0xC9 SHL PUSH1 0x44 DUP3 ADD MSTORE REVERT JUMPDEST POP PUSH2 0x708 DUP3 GT ISZERO PUSH2 0x428 JUMP JUMPDEST SWAP1 POP CALLVALUE PUSH2 0x395 JUMPI PUSH1 0x20 CALLDATASIZE PUSH1 0x3 NOT ADD SLT PUSH2 0x395 JUMPI PUSH2 0x4CD PUSH2 0x1AD5 JUMP JUMPDEST PUSH2 0x4D5 PUSH2 0x24A4 JUMP JUMPDEST PUSH1 0x1 PUSH1 0x1 PUSH1 0xA0 SHL SUB SWAP1 DUP2 AND SWAP2 DUP3 ISZERO PUSH2 0x524 JUMPI POP DUP2 PUSH1 0xC SLOAD SWAP2 DUP3 AND PUSH32 0xAAEBCF1BFA00580E41D966056B48521FA9F202645C86D4DDF28113E617C1B1D3 DUP6 DUP1 LOG3 PUSH1 0x1 PUSH1 0x1 PUSH1 0xA0 SHL SUB NOT AND OR PUSH1 0xC SSTORE DUP1 RETURN JUMPDEST PUSH1 0x64 SWAP1 PUSH1 0x20 PUSH1 0x40 MLOAD SWAP2 PUSH3 0x461BCD PUSH1 0xE5 SHL DUP4 MSTORE DUP3 ADD MSTORE PUSH1 0x9 PUSH1 0x24 DUP3 ADD MSTORE PUSH9 0x2D32B9379030B23239 PUSH1 0xB9 SHL PUSH1 0x44 DUP3 ADD MSTORE REVERT JUMPDEST SWAP1 POP CALLVALUE PUSH2 0x395 JUMPI PUSH1 0x20 CALLDATASIZE PUSH1 0x3 NOT ADD SLT PUSH2 0x395 JUMPI DUP1 CALLDATALOAD SWAP1 PUSH2 0x572 PUSH2 0x24A4 JUMP JUMPDEST PUSH2 0x2774 DUP3 LT ISZERO DUP1 PUSH2 0x5FE JUMPI JUMPDEST ISZERO PUSH2 0x5CF JUMPI POP PUSH1 0x0 DUP1 MLOAD PUSH1 0x20 PUSH2 0x2FE1 DUP4 CODECOPY DUP2 MLOAD SWAP2 MSTORE PUSH1 0xA0 PUSH1 0x5 SLOAD PUSH1 0x40 MLOAD SWAP1 PUSH1 0x60 DUP3 MSTORE PUSH1 0xD PUSH1 0x60 DUP4 ADD MSTORE PUSH13 0x657363616C6174696F6E427073 PUSH1 0x98 SHL PUSH1 0x80 DUP4 ADD MSTORE PUSH1 0x20 DUP3 ADD MSTORE DUP4 PUSH1 0x40 DUP3 ADD MSTORE LOG1 PUSH1 0x5 SSTORE DUP1 RETURN JUMPDEST PUSH1 0x64 SWAP1 PUSH1 0x20 PUSH1 0x40 MLOAD SWAP2 PUSH3 0x461BCD PUSH1 0xE5 SHL DUP4 MSTORE DUP3 ADD MSTORE PUSH1 0x8 PUSH1 0x24 DUP3 ADD MSTORE PUSH8 0x3130312D31353025 PUSH1 0xC0 SHL PUSH1 0x44 DUP3 ADD MSTORE REVERT JUMPDEST POP PUSH2 0x3A98 DUP3 GT ISZERO PUSH2 0x57E JUMP JUMPDEST SWAP1 POP CALLVALUE PUSH2 0x395 JUMPI PUSH1 0x20 CALLDATASIZE PUSH1 0x3 NOT ADD SLT PUSH2 0x395 JUMPI DUP1 CALLDATALOAD SWAP1 PUSH2 0x628 PUSH2 0x24A4 JUMP JUMPDEST PUSH2 0x1388 DUP3 LT ISZERO DUP1 PUSH2 0x6B2 JUMPI JUMPDEST ISZERO PUSH2 0x685 JUMPI POP PUSH1 0x0 DUP1 MLOAD PUSH1 0x20 PUSH2 0x2FE1 DUP4 CODECOPY DUP2 MLOAD SWAP2 MSTORE PUSH1 0xA0 PUSH1 0x3 SLOAD PUSH1 0x40 MLOAD SWAP1 PUSH1 0x60 DUP3 MSTORE PUSH1 0xD PUSH1 0x60 DUP4 ADD MSTORE PUSH13 0x74696D65724465636179427073 PUSH1 0x98 SHL PUSH1 0x80 DUP4 ADD MSTORE PUSH1 0x20 DUP3 ADD MSTORE DUP4 PUSH1 0x40 DUP3 ADD MSTORE LOG1 PUSH1 0x3 SSTORE DUP1 RETURN JUMPDEST PUSH1 0x64 SWAP1 PUSH1 0x20 PUSH1 0x40 MLOAD SWAP2 PUSH3 0x461BCD PUSH1 0xE5 SHL DUP4 MSTORE DUP3 ADD MSTORE PUSH1 0x6 PUSH1 0x24 DUP3 ADD MSTORE PUSH6 0x35302D393525 PUSH1 0xD0 SHL PUSH1 0x44 DUP3 ADD MSTORE REVERT JUMPDEST POP PUSH2 0x251C DUP3 GT ISZERO PUSH2 0x634 JUMP JUMPDEST SWAP1 POP CALLVALUE PUSH2 0x395 JUMPI PUSH1 0x20 CALLDATASIZE PUSH1 0x3 NOT ADD SLT PUSH2 0x395 JUMPI DUP1 CALLDATALOAD SWAP1 PUSH2 0x6DC PUSH2 0x24A4 JUMP JUMPDEST PUSH2 0x7D0 DUP3 GT PUSH2 0x733 JUMPI POP PUSH1 0x0 DUP1 MLOAD PUSH1 0x20 PUSH2 0x2FE1 DUP4 CODECOPY DUP2 MLOAD SWAP2 MSTORE PUSH1 0xA0 PUSH1 0xB SLOAD PUSH1 0x40 MLOAD SWAP1 PUSH1 0x60 DUP3 MSTORE PUSH1 0xF PUSH1 0x60 DUP4 ADD MSTORE PUSH15 0x686F745A6F6E65426F6E7573427073 PUSH1 0x88 SHL PUSH1 0x80 DUP4 ADD MSTORE PUSH1 0x20 DUP3 ADD MSTORE DUP4 PUSH1 0x40 DUP3 ADD MSTORE LOG1 PUSH1 0xB SSTORE DUP1 RETURN JUMPDEST PUSH1 0x64 SWAP1 PUSH1 0x20 PUSH1 0x40 MLOAD SWAP2 PUSH3 0x461BCD PUSH1 0xE5 SHL DUP4 MSTORE DUP3 ADD MSTORE PUSH1 0x7 PUSH1 0x24 DUP3 ADD MSTORE PUSH7 0x4D617820323025 PUSH1 0xC8 SHL PUSH1 0x44 DUP3 ADD MSTORE REVERT JUMPDEST SWAP1 POP CALLVALUE PUSH2 0x395 JUMPI DUP2 PUSH1 0x3 NOT CALLDATASIZE ADD SLT PUSH2 0x395 JUMPI PUSH2 0x77B PUSH2 0x24A4 JUMP JUMPDEST PUSH1 0xFF PUSH1 0xE SLOAD PUSH2 0x78E DUP3 DUP3 PUSH1 0x8 SHR AND PUSH2 0x1C4A JUMP JUMPDEST AND PUSH2 0x89F JUMPI PUSH1 0x40 MLOAD PUSH4 0x70A08231 PUSH1 0xE0 SHL DUP2 MSTORE ADDRESS SWAP2 DUP2 ADD SWAP2 SWAP1 SWAP2 MSTORE PUSH1 0x1 PUSH1 0x1 PUSH1 0xA0 SHL SUB SWAP1 PUSH32 0x0 PUSH1 0x20 DUP3 PUSH1 0x24 DUP2 DUP7 DUP6 AND GAS STATICCALL SWAP2 DUP3 ISZERO PUSH2 0x894 JUMPI DUP5 SWAP3 PUSH2 0x83C JUMPI JUMPDEST POP SWAP1 PUSH32 0x99D7F8B71CFB9126984F7A5EED3A40E64A8959E9B0E442221546FB04EC6A489C SWAP3 DUP2 PUSH1 0x20 SWAP4 DUP2 PUSH2 0x826 JUMPI JUMPDEST POP POP POP PUSH1 0x40 MLOAD SWAP1 DUP2 MSTORE LOG1 DUP1 RETURN JUMPDEST PUSH2 0x834 SWAP3 PUSH1 0xC SLOAD AND SWAP1 PUSH2 0x2E1B JUMP JUMPDEST CODESIZE DUP2 DUP2 PUSH2 0x819 JUMP JUMPDEST SWAP2 POP PUSH1 0x20 DUP3 RETURNDATASIZE PUSH1 0x20 GT PUSH2 0x88C JUMPI JUMPDEST DUP2 PUSH2 0x857 PUSH1 0x20 SWAP4 DUP4 PUSH2 0x1B57 JUMP JUMPDEST DUP2 ADD SUB SLT PUSH2 0x888 JUMPI SWAP1 MLOAD SWAP1 PUSH32 0x99D7F8B71CFB9126984F7A5EED3A40E64A8959E9B0E442221546FB04EC6A489C PUSH2 0x7EB JUMP JUMPDEST DUP4 DUP1 REVERT JUMPDEST RETURNDATASIZE SWAP2 POP PUSH2 0x84A JUMP JUMPDEST PUSH1 0x40 MLOAD RETURNDATASIZE DUP7 DUP3 RETURNDATACOPY RETURNDATASIZE SWAP1 REVERT JUMPDEST PUSH1 0x64 SWAP1 PUSH1 0x20 PUSH1 0x40 MLOAD SWAP2 PUSH3 0x461BCD PUSH1 0xE5 SHL DUP4 MSTORE DUP3 ADD MSTORE PUSH1 0xC PUSH1 0x24 DUP3 ADD MSTORE PUSH12 0x526F756E6420616374697665 PUSH1 0xA0 SHL PUSH1 0x44 DUP3 ADD MSTORE REVERT JUMPDEST DUP3 CALLVALUE PUSH2 0x2C6 JUMPI DUP1 PUSH1 0x3 NOT CALLDATASIZE ADD SLT PUSH2 0x2C6 JUMPI PUSH1 0x20 PUSH1 0x1A SLOAD PUSH1 0x40 MLOAD SWAP1 DUP2 MSTORE RETURN JUMPDEST SWAP1 POP CALLVALUE PUSH2 0x395 JUMPI PUSH1 0x20 CALLDATASIZE PUSH1 0x3 NOT ADD SLT PUSH2 0x395 JUMPI CALLDATALOAD PUSH2 0x90C PUSH2 0x24A4 JUMP JUMPDEST PUSH2 0x91A PUSH2 0x3E8 DUP3 GT ISZERO PUSH2 0x1D5E JUMP JUMPDEST PUSH1 0x0 DUP1 MLOAD PUSH1 0x20 PUSH2 0x2FE1 DUP4 CODECOPY DUP2 MLOAD SWAP2 MSTORE PUSH1 0xA0 PUSH1 0x9 SLOAD PUSH1 0x40 MLOAD SWAP1 PUSH1 0x60 DUP3 MSTORE PUSH1 0x8 PUSH1 0x60 DUP4 ADD MSTORE PUSH8 0x6C6F74746F427073 PUSH1 0xC0 SHL PUSH1 0x80 DUP4 ADD MSTORE PUSH1 0x20 DUP3 ADD MSTORE DUP4 PUSH1 0x40 DUP3 ADD MSTORE LOG1 PUSH1 0x9 SSTORE DUP1 RETURN JUMPDEST SWAP2 POP CALLVALUE PUSH2 0x9F1 JUMPI PUSH1 0x20 CALLDATASIZE PUSH1 0x3 NOT ADD SLT PUSH2 0x9F1 JUMPI PUSH2 0x120 SWAP3 PUSH1 0x40 SWAP1 PUSH1 0x1 PUSH1 0x1 PUSH1 0xA0 SHL SUB PUSH2 0x98A PUSH2 0x1AD5 JUMP JUMPDEST AND DUP2 MSTORE PUSH1 0x1F PUSH1 0x20 MSTORE KECCAK256 DUP1 SLOAD SWAP3 PUSH1 0x1 DUP3 ADD SLOAD SWAP3 PUSH1 0x2 DUP4 ADD SLOAD SWAP1 PUSH1 0x3 DUP5 ADD SLOAD SWAP1 DUP5 ADD SLOAD PUSH1 0x5 DUP6 ADD SLOAD SWAP2 PUSH1 0x6 DUP7 ADD SLOAD SWAP4 PUSH1 0x8 PUSH1 0x7 DUP9 ADD SLOAD SWAP8 ADD SLOAD SWAP8 PUSH1 0x40 MLOAD SWAP10 DUP11 MSTORE PUSH1 0x20 DUP11 ADD MSTORE PUSH1 0x40 DUP10 ADD MSTORE PUSH1 0x60 DUP9 ADD MSTORE PUSH1 0x80 DUP8 ADD MSTORE PUSH1 0xA0 DUP7 ADD MSTORE PUSH1 0xC0 DUP6 ADD MSTORE DUP4 ADD MSTORE PUSH2 0x100 DUP3 ADD MSTORE RETURN JUMPDEST DUP3 DUP1 REVERT JUMPDEST DUP4 DUP3 CALLVALUE PUSH2 0x395 JUMPI PUSH1 0x20 CALLDATASIZE PUSH1 0x3 NOT ADD SLT PUSH2 0x395 JUMPI PUSH1 0x40 PUSH2 0x140 SWAP3 PUSH2 0xA29 SWAP3 PUSH2 0xA1A PUSH2 0x1D94 JUMP JUMPDEST POP CALLDATALOAD DUP2 MSTORE PUSH1 0x14 PUSH1 0x20 MSTORE KECCAK256 PUSH2 0x1B79 JUMP JUMPDEST PUSH2 0xA36 PUSH1 0x40 MLOAD DUP1 SWAP3 PUSH2 0x1BE9 JUMP JUMPDEST RETURN JUMPDEST DUP4 CALLVALUE PUSH2 0x2C6 JUMPI DUP1 PUSH1 0x3 NOT CALLDATASIZE ADD SLT PUSH2 0x2C6 JUMPI PUSH1 0x20 PUSH1 0xF SLOAD PUSH1 0x40 MLOAD SWAP1 DUP2 MSTORE RETURN JUMPDEST DUP4 CALLVALUE PUSH2 0x2C6 JUMPI DUP1 PUSH1 0x3 NOT CALLDATASIZE ADD SLT PUSH2 0x2C6 JUMPI PUSH1 0x60 PUSH2 0xA71 PUSH2 0x1DF3 JUMP JUMPDEST SWAP1 PUSH1 0x40 MLOAD SWAP3 DUP4 MSTORE PUSH1 0x20 DUP4 ADD MSTORE ISZERO ISZERO PUSH1 0x40 DUP3 ADD MSTORE RETURN JUMPDEST SWAP1 SWAP2 POP CALLVALUE PUSH2 0x9F1 JUMPI DUP3 PUSH1 0x3 NOT CALLDATASIZE ADD SLT PUSH2 0x9F1 JUMPI PUSH2 0x140 SWAP3 POP PUSH2 0xAA6 PUSH2 0x1D94 JUMP JUMPDEST POP PUSH1 0x40 MLOAD SWAP2 PUSH2 0xAB4 DUP4 PUSH2 0x1B1E JUMP JUMPDEST PUSH1 0x2 SLOAD DUP4 MSTORE PUSH1 0x3 SLOAD PUSH1 0x20 DUP5 ADD MSTORE SLOAD PUSH1 0x40 DUP4 ADD MSTORE PUSH1 0x5 SLOAD PUSH1 0x60 DUP4 ADD MSTORE PUSH1 0x6 SLOAD PUSH1 0x80 DUP4 ADD MSTORE PUSH1 0x7 SLOAD PUSH1 0xA0 DUP4 ADD MSTORE PUSH1 0x8 SLOAD PUSH1 0xC0 DUP4 ADD MSTORE PUSH1 0x9 SLOAD SWAP1 DUP3 ADD MSTORE PUSH1 0xA SLOAD PUSH2 0x100 DUP3 ADD MSTORE PUSH1 0xB SLOAD PUSH2 0x120 DUP3 ADD MSTORE PUSH2 0xA36 PUSH1 0x40 MLOAD DUP1 SWAP3 PUSH2 0x1BE9 JUMP JUMPDEST DUP4 DUP3 CALLVALUE PUSH2 0x395 JUMPI PUSH1 0x20 SWAP1 DUP2 PUSH1 0x3 NOT CALLDATASIZE ADD SLT PUSH2 0x9F1 JUMPI CALLDATALOAD DUP3 MSTORE PUSH1 0x15 DUP2 MSTORE PUSH1 0x40 DUP3 KECCAK256 PUSH1 0x40 MLOAD SWAP3 DUP4 DUP4 DUP4 SLOAD SWAP2 DUP3 DUP2 MSTORE ADD SWAP1 DUP2 SWAP4 DUP4 MSTORE DUP5 DUP4 KECCAK256 SWAP1 DUP4 JUMPDEST DUP2 DUP2 LT PUSH2 0xBA2 JUMPI POP POP POP DUP5 PUSH2 0xB5B SWAP2 SUB DUP6 PUSH2 0x1B57 JUMP JUMPDEST PUSH1 0x40 MLOAD SWAP4 DUP4 DUP6 SWAP5 DUP6 ADD SWAP2 DUP2 DUP7 MSTORE MLOAD DUP1 SWAP3 MSTORE PUSH1 0x40 DUP6 ADD SWAP4 SWAP3 JUMPDEST DUP3 DUP2 LT PUSH2 0xB82 JUMPI POP POP POP POP SUB SWAP1 RETURN JUMPDEST DUP4 MLOAD PUSH1 0x1 PUSH1 0x1 PUSH1 0xA0 SHL SUB AND DUP6 MSTORE DUP7 SWAP6 POP SWAP4 DUP2 ADD SWAP4 SWAP3 DUP2 ADD SWAP3 PUSH1 0x1 ADD PUSH2 0xB73 JUMP JUMPDEST DUP3 SLOAD PUSH1 0x1 PUSH1 0x1 PUSH1 0xA0 SHL SUB AND DUP5 MSTORE SWAP3 DUP7 ADD SWAP3 PUSH1 0x1 SWAP3 DUP4 ADD SWAP3 ADD PUSH2 0xB45 JUMP JUMPDEST DUP4 CALLVALUE PUSH2 0x2C6 JUMPI DUP1 PUSH1 0x3 NOT CALLDATASIZE ADD SLT PUSH2 0x2C6 JUMPI PUSH1 0x20 PUSH1 0x1B SLOAD PUSH1 0x40 MLOAD SWAP1 DUP2 MSTORE RETURN JUMPDEST DUP4 DUP3 CALLVALUE PUSH2 0x395 JUMPI PUSH1 0x20 CALLDATASIZE PUSH1 0x3 NOT ADD SLT PUSH2 0x395 JUMPI DUP1 CALLDATALOAD SWAP1 PUSH2 0xBFB PUSH2 0x24A4 JUMP JUMPDEST PUSH7 0x38D7EA4C68000 DUP3 LT ISZERO DUP1 PUSH2 0xC8F JUMPI JUMPDEST ISZERO PUSH2 0xC5F JUMPI POP PUSH1 0x0 DUP1 MLOAD PUSH1 0x20 PUSH2 0x2FE1 DUP4 CODECOPY DUP2 MLOAD SWAP2 MSTORE PUSH1 0xA0 PUSH1 0x12 SLOAD PUSH1 0x40 MLOAD SWAP1 PUSH1 0x60 DUP3 MSTORE PUSH1 0xF PUSH1 0x60 DUP4 ADD MSTORE PUSH15 0x1C9BDD5B9914D95959105B5BDD5B9D PUSH1 0x8A SHL PUSH1 0x80 DUP4 ADD MSTORE PUSH1 0x20 DUP3 ADD MSTORE DUP4 PUSH1 0x40 DUP3 ADD MSTORE LOG1 PUSH1 0x12 SSTORE DUP1 RETURN JUMPDEST PUSH1 0x64 SWAP1 PUSH1 0x20 PUSH1 0x40 MLOAD SWAP2 PUSH3 0x461BCD PUSH1 0xE5 SHL DUP4 MSTORE DUP3 ADD MSTORE PUSH1 0x9 PUSH1 0x24 DUP3 ADD MSTORE PUSH9 0x302E3030312D31303 PUSH1 0xBC SHL PUSH1 0x44 DUP3 ADD MSTORE REVERT JUMPDEST POP PUSH9 0x56BC75E2D63100000 DUP3 GT ISZERO PUSH2 0xC0C JUMP JUMPDEST DUP4 CALLVALUE PUSH2 0x2C6 JUMPI DUP1 PUSH1 0x3 NOT CALLDATASIZE ADD SLT PUSH2 0x2C6 JUMPI PUSH1 0x20 PUSH1 0x1C SLOAD PUSH1 0x40 MLOAD SWAP1 DUP2 MSTORE RETURN JUMPDEST DUP4 DUP3 CALLVALUE PUSH2 0x395 JUMPI PUSH1 0x20 CALLDATASIZE PUSH1 0x3 NOT ADD SLT PUSH2 0x395 JUMPI CALLDATALOAD PUSH2 0xCDC PUSH2 0x24A4 JUMP JUMPDEST PUSH2 0xCEA PUSH2 0x3E8 DUP3 GT ISZERO PUSH2 0x1D5E JUMP JUMPDEST PUSH1 0x0 DUP1 MLOAD PUSH1 0x20 PUSH2 0x2FE1 DUP4 CODECOPY DUP2 MLOAD SWAP2 MSTORE PUSH1 0xA0 PUSH1 0x7 SLOAD PUSH1 0x40 MLOAD SWAP1 PUSH1 0x60 DUP3 MSTORE PUSH1 0x7 PUSH1 0x60 DUP4 ADD MSTORE PUSH7 0x6275726E427073 PUSH1 0xC8 SHL PUSH1 0x80 DUP4 ADD MSTORE PUSH1 0x20 DUP3 ADD MSTORE DUP4 PUSH1 0x40 DUP3 ADD MSTORE LOG1 PUSH1 0x7 SSTORE DUP1 RETURN JUMPDEST DUP4 CALLVALUE PUSH2 0x2C6 JUMPI DUP1 PUSH1 0x3 NOT CALLDATASIZE ADD SLT PUSH2 0x2C6 JUMPI PUSH1 0x20 PUSH1 0x12 SLOAD PUSH1 0x40 MLOAD SWAP1 DUP2 MSTORE RETURN JUMPDEST DUP4 SWAP1 CALLVALUE PUSH2 0x395 JUMPI DUP2 PUSH1 0x3 NOT CALLDATASIZE ADD SLT PUSH2 0x395 JUMPI PUSH2 0x120 SWAP1 PUSH2 0xD6B PUSH2 0x1CD3 JUMP JUMPDEST SWAP8 SWAP9 SWAP7 PUSH1 0x40 SWAP7 SWAP2 SWAP7 SWAP6 SWAP3 SWAP6 SWAP5 SWAP4 SWAP5 MLOAD SWAP10 DUP11 MSTORE PUSH1 0x20 DUP11 ADD MSTORE PUSH1 0x1 DUP1 PUSH1 0xA0 SHL SUB AND PUSH1 0x40 DUP10 ADD MSTORE PUSH1 0x60 DUP9 ADD MSTORE PUSH1 0x80 DUP8 ADD MSTORE PUSH1 0xA0 DUP7 ADD MSTORE PUSH1 0xC0 DUP6 ADD MSTORE ISZERO ISZERO SWAP1 DUP4 ADD MSTORE PUSH2 0x100 DUP3 ADD MSTORE RETURN JUMPDEST DUP4 DUP3 CALLVALUE PUSH2 0x395 JUMPI PUSH1 0x20 CALLDATASIZE PUSH1 0x3 NOT ADD SLT PUSH2 0x395 JUMPI DUP1 CALLDATALOAD SWAP1 PUSH2 0xDCF PUSH2 0x24A4 JUMP JUMPDEST PUSH1 0x1E DUP3 LT ISZERO DUP1 PUSH2 0xE59 JUMPI JUMPDEST ISZERO PUSH2 0xE2B JUMPI POP PUSH1 0x0 DUP1 MLOAD PUSH1 0x20 PUSH2 0x2FE1 DUP4 CODECOPY DUP2 MLOAD SWAP2 MSTORE PUSH1 0xA0 PUSH1 0xA SLOAD PUSH1 0x40 MLOAD SWAP1 PUSH1 0x60 DUP3 MSTORE PUSH1 0xD PUSH1 0x60 DUP4 ADD MSTORE PUSH13 0x686F745A6F6E65426C6F636B73 PUSH1 0x98 SHL PUSH1 0x80 DUP4 ADD MSTORE PUSH1 0x20 DUP3 ADD MSTORE DUP4 PUSH1 0x40 DUP3 ADD MSTORE LOG1 PUSH1 0xA SSTORE DUP1 RETURN JUMPDEST PUSH1 0x64 SWAP1 PUSH1 0x20 PUSH1 0x40 MLOAD SWAP2 PUSH3 0x461BCD PUSH1 0xE5 SHL DUP4 MSTORE DUP3 ADD MSTORE PUSH1 0x7 PUSH1 0x24 DUP3 ADD MSTORE PUSH7 0x1896999836B4B7 PUSH1 0xC9 SHL PUSH1 0x44 DUP3 ADD MSTORE REVERT JUMPDEST POP PUSH2 0x384 DUP3 GT ISZERO PUSH2 0xDDA JUMP JUMPDEST DUP4 CALLVALUE PUSH2 0x2C6 JUMPI DUP1 PUSH1 0x3 NOT CALLDATASIZE ADD SLT PUSH2 0x2C6 JUMPI PUSH1 0x20 PUSH1 0x13 SLOAD PUSH1 0x40 MLOAD SWAP1 DUP2 MSTORE RETURN JUMPDEST DUP4 CALLVALUE PUSH2 0x2C6 JUMPI DUP1 PUSH1 0x3 NOT CALLDATASIZE ADD SLT PUSH2 0x2C6 JUMPI SLOAD PUSH1 0x40 MLOAD PUSH1 0x1 PUSH1 0x1 PUSH1 0xA0 SHL SUB SWAP1 SWAP2 AND DUP2 MSTORE PUSH1 0x20 SWAP1 RETURN JUMPDEST DUP4 DUP3 CALLVALUE PUSH2 0x395 JUMPI PUSH1 0x20 CALLDATASIZE PUSH1 0x3 NOT ADD SLT PUSH2 0x395 JUMPI SWAP1 PUSH1 0x40 SWAP2 CALLDATALOAD DUP2 MSTORE PUSH1 0x14 PUSH1 0x20 MSTORE KECCAK256 PUSH2 0x1C0 MSTORE PUSH2 0xEDA PUSH2 0x1C0 MLOAD PUSH2 0x1B79 JUMP JUMPDEST PUSH2 0x1C0 MLOAD PUSH1 0xA DUP2 ADD SLOAD PUSH2 0x100 MSTORE PUSH1 0xB DUP2 ADD SLOAD PUSH2 0x140 MSTORE PUSH1 0xC DUP2 ADD SLOAD PUSH1 0xD DUP3 ADD SLOAD PUSH1 0xE DUP4 ADD SLOAD PUSH1 0xF DUP5 ADD SLOAD PUSH1 0x10 DUP6 ADD SLOAD PUSH1 0x11 DUP7 ADD SLOAD PUSH1 0x12 DUP8 ADD SLOAD PUSH1 0x13 DUP9 ADD SLOAD PUSH1 0x14 DUP10 ADD SLOAD PUSH1 0x15 DUP11 ADD SLOAD PUSH1 0x16 DUP12 ADD SLOAD PUSH1 0x17 DUP13 ADD SLOAD PUSH1 0x18 DUP14 ADD SLOAD PUSH1 0x19 DUP15 ADD SLOAD PUSH1 0xFF AND PUSH1 0x80 MSTORE PUSH1 0x1A DUP15 ADD SLOAD PUSH1 0xC0 MSTORE PUSH1 0x1B DUP15 ADD SLOAD PUSH2 0x1A0 MSTORE PUSH1 0x1C DUP15 ADD SLOAD PUSH2 0x180 MSTORE PUSH1 0x1D DUP15 ADD SLOAD PUSH2 0x160 MSTORE PUSH1 0x1E DUP15 ADD SLOAD PUSH2 0x120 MSTORE PUSH1 0x1F SWAP1 SWAP14 ADD SLOAD PUSH1 0x1 PUSH1 0x1 PUSH1 0xA0 SHL SUB SWAP1 DUP2 AND PUSH1 0xE0 MSTORE PUSH1 0x40 MLOAD PUSH1 0xA0 DUP2 SWAP1 MSTORE SWAP14 SWAP15 SWAP2 SWAP14 SWAP3 SWAP13 SWAP4 AND SWAP11 SWAP4 SWAP10 SWAP5 SWAP9 SWAP6 SWAP8 SWAP6 SWAP5 SWAP4 SWAP3 SWAP2 PUSH2 0xFA1 SWAP2 PUSH2 0x1BE9 JUMP JUMPDEST PUSH2 0x100 MLOAD PUSH2 0x140 PUSH1 0xA0 MLOAD ADD MSTORE PUSH2 0x140 MLOAD PUSH2 0x160 PUSH1 0xA0 MLOAD ADD MSTORE PUSH2 0x180 PUSH1 0xA0 MLOAD ADD MSTORE PUSH2 0x1A0 PUSH1 0xA0 MLOAD ADD MSTORE PUSH2 0x1C0 PUSH1 0xA0 MLOAD ADD MSTORE PUSH2 0x1E0 PUSH1 0xA0 MLOAD ADD MSTORE PUSH2 0x200 PUSH1 0xA0 MLOAD ADD MSTORE PUSH2 0x220 PUSH1 0xA0 MLOAD ADD MSTORE PUSH2 0x240 PUSH1 0xA0 MLOAD ADD MSTORE PUSH2 0x260 PUSH1 0xA0 MLOAD ADD MSTORE PUSH2 0x280 PUSH1 0xA0 MLOAD ADD MSTORE PUSH2 0x2A0 PUSH1 0xA0 MLOAD ADD MSTORE PUSH2 0x2C0 PUSH1 0xA0 MLOAD ADD MSTORE PUSH2 0x2E0 PUSH1 0xA0 MLOAD ADD MSTORE PUSH2 0x300 PUSH1 0xA0 MLOAD ADD MSTORE PUSH1 0x80 MLOAD ISZERO ISZERO PUSH2 0x320 PUSH1 0xA0 MLOAD ADD MSTORE PUSH1 0xC0 MLOAD PUSH2 0x340 PUSH1 0xA0 MLOAD ADD MSTORE PUSH2 0x1A0 MLOAD PUSH2 0x360 PUSH1 0xA0 MLOAD ADD MSTORE PUSH2 0x180 MLOAD PUSH2 0x380 PUSH1 0xA0 MLOAD ADD MSTORE PUSH2 0x160 MLOAD PUSH2 0x3A0 PUSH1 0xA0 MLOAD ADD MSTORE PUSH2 0x120 MLOAD PUSH2 0x3C0 PUSH1 0xA0 MLOAD ADD MSTORE PUSH1 0xE0 MLOAD PUSH2 0x3E0 PUSH1 0xA0 MLOAD ADD MSTORE PUSH2 0x400 PUSH1 0xA0 MLOAD RETURN JUMPDEST DUP4 CALLVALUE PUSH2 0x2C6 JUMPI DUP1 PUSH1 0x3 NOT CALLDATASIZE ADD SLT PUSH2 0x2C6 JUMPI PUSH1 0x20 PUSH1 0x19 SLOAD PUSH1 0x40 MLOAD SWAP1 DUP2 MSTORE RETURN JUMPDEST DUP4 CALLVALUE PUSH2 0x2C6 JUMPI DUP1 PUSH1 0x3 NOT CALLDATASIZE ADD SLT PUSH2 0x2C6 JUMPI PUSH1 0x20 PUSH1 0xD SLOAD PUSH1 0x40 MLOAD SWAP1 DUP2 MSTORE RETURN JUMPDEST SWAP2 POP CALLVALUE PUSH2 0x9F1 JUMPI PUSH1 0x20 CALLDATASIZE PUSH1 0x3 NOT ADD SLT PUSH2 0x9F1 JUMPI PUSH2 0x180 SWAP3 PUSH1 0x40 SWAP2 CALLDATALOAD DUP2 MSTORE PUSH1 0x14 PUSH1 0x20 MSTORE KECCAK256 SWAP1 PUSH1 0xA DUP3 ADD SLOAD SWAP2 PUSH1 0xB DUP2 ADD SLOAD SWAP2 PUSH1 0xC DUP3 ADD SLOAD SWAP1 PUSH1 0xD DUP4 ADD SLOAD PUSH1 0x1 DUP1 PUSH1 0xA0 SHL SUB SWAP2 DUP3 PUSH1 0x15 DUP7 ADD SLOAD AND PUSH1 0x16 DUP7 ADD SLOAD PUSH1 0xFF PUSH1 0x19 DUP9 ADD SLOAD AND SWAP2 PUSH1 0x1A DUP9 ADD SLOAD SWAP5 PUSH1 0x1C DUP10 ADD SLOAD SWAP7 PUSH1 0x1F DUP11 ADD SLOAD AND SWAP8 PUSH1 0x1E PUSH1 0x1D DUP12 ADD SLOAD SWAP11 ADD SLOAD SWAP11 PUSH1 0x40 MLOAD SWAP13 DUP14 MSTORE PUSH1 0x20 DUP14 ADD MSTORE PUSH1 0x40 DUP13 ADD MSTORE PUSH1 0x60 DUP12 ADD MSTORE PUSH1 0x80 DUP11 ADD MSTORE PUSH1 0xA0 DUP10 ADD MSTORE ISZERO ISZERO PUSH1 0xC0 DUP9 ADD MSTORE DUP7 ADD MSTORE PUSH2 0x100 DUP6 ADD MSTORE PUSH2 0x120 DUP5 ADD MSTORE PUSH2 0x140 DUP4 ADD MSTORE PUSH2 0x160 DUP3 ADD MSTORE RETURN JUMPDEST DUP4 DUP3 CALLVALUE PUSH2 0x395 JUMPI PUSH1 0x20 CALLDATASIZE PUSH1 0x3 NOT ADD SLT PUSH2 0x395 JUMPI DUP1 CALLDATALOAD SWAP1 PUSH2 0x118F PUSH2 0x24A4 JUMP JUMPDEST PUSH2 0x708 DUP3 LT ISZERO DUP1 PUSH2 0x121A JUMPI JUMPDEST ISZERO PUSH2 0x11EE JUMPI POP PUSH1 0x0 DUP1 MLOAD PUSH1 0x20 PUSH2 0x2FE1 DUP4 CODECOPY DUP2 MLOAD SWAP2 MSTORE PUSH1 0xA0 PUSH1 0x2 SLOAD PUSH1 0x40 MLOAD SWAP1 PUSH1 0x60 DUP3 MSTORE PUSH1 0xF PUSH1 0x60 DUP4 ADD MSTORE PUSH15 0x6261736554696D6572426C6F636B73 PUSH1 0x88 SHL PUSH1 0x80 DUP4 ADD MSTORE PUSH1 0x20 DUP3 ADD MSTORE DUP4 PUSH1 0x40 DUP3 ADD MSTORE LOG1 PUSH1 0x2 SSTORE DUP1 RETURN JUMPDEST PUSH1 0x64 SWAP1 PUSH1 0x20 PUSH1 0x40 MLOAD SWAP2 PUSH3 0x461BCD PUSH1 0xE5 SHL DUP4 MSTORE DUP3 ADD MSTORE PUSH1 0x5 PUSH1 0x24 DUP3 ADD MSTORE PUSH5 0xC5A0B4DD9 PUSH1 0xDA SHL PUSH1 0x44 DUP3 ADD MSTORE REVERT JUMPDEST POP PUSH3 0x49D40 DUP3 GT ISZERO PUSH2 0x119B JUMP JUMPDEST DUP4 CALLVALUE PUSH2 0x2C6 JUMPI DUP1 PUSH1 0x3 NOT CALLDATASIZE ADD SLT PUSH2 0x2C6 JUMPI PUSH1 0x11 SLOAD PUSH1 0x12 SLOAD PUSH1 0x60 SWAP3 DUP2 ISZERO PUSH2 0x1266 JUMPI POP PUSH2 0x1252 DUP2 DUP4 PUSH2 0x1CA6 JUMP JUMPDEST SWAP1 JUMPDEST PUSH1 0x40 MLOAD SWAP3 DUP4 MSTORE PUSH1 0x20 DUP4 ADD MSTORE PUSH1 0x40 DUP3 ADD MSTORE RETURN JUMPDEST SWAP1 PUSH2 0x1254 JUMP JUMPDEST DUP4 DUP3 CALLVALUE PUSH2 0x395 JUMPI PUSH1 0x20 CALLDATASIZE PUSH1 0x3 NOT ADD SLT PUSH2 0x395 JUMPI DUP1 CALLDATALOAD SWAP1 PUSH2 0x128A PUSH2 0x2D9D JUMP JUMPDEST DUP2 ISZERO PUSH2 0x1305 JUMPI POP PUSH2 0x12BD DUP2 ADDRESS CALLER PUSH32 0x0 PUSH2 0x2DC0 JUMP JUMPDEST PUSH2 0x12C9 DUP2 PUSH1 0x11 SLOAD PUSH2 0x1C83 JUMP JUMPDEST DUP1 PUSH1 0x11 SSTORE PUSH1 0x40 MLOAD SWAP2 DUP3 MSTORE PUSH1 0x20 DUP3 ADD MSTORE PUSH32 0x2E9A80A347F87C9EFD99F26CA75C8DF684F98679BBD887BDD8531772CBC29698 PUSH1 0x40 CALLER SWAP3 LOG2 PUSH1 0x1 DUP1 SSTORE DUP1 RETURN JUMPDEST PUSH1 0x64 SWAP1 PUSH1 0x20 PUSH1 0x40 MLOAD SWAP2 PUSH3 0x461BCD PUSH1 0xE5 SHL DUP4 MSTORE DUP3 ADD MSTORE PUSH1 0xB PUSH1 0x24 DUP3 ADD MSTORE PUSH11 0x16995C9BC8185B5BDD5B9D PUSH1 0xAA SHL PUSH1 0x44 DUP3 ADD MSTORE REVERT JUMPDEST DUP4 DUP3 CALLVALUE PUSH2 0x395 JUMPI PUSH1 0x40 CALLDATASIZE PUSH1 0x3 NOT ADD SLT PUSH2 0x395 JUMPI PUSH1 0x20 SWAP2 PUSH1 0x40 SWAP2 PUSH2 0x1358 PUSH2 0x1ABA JUMP JUMPDEST SWAP1 CALLDATALOAD DUP3 MSTORE PUSH1 0x18 DUP5 MSTORE DUP3 DUP3 KECCAK256 PUSH1 0x1 PUSH1 0x1 PUSH1 0xA0 SHL SUB SWAP1 SWAP2 AND DUP3 MSTORE DUP4 MSTORE KECCAK256 SLOAD PUSH1 0x40 MLOAD SWAP1 DUP2 MSTORE RETURN JUMPDEST DUP4 CALLVALUE PUSH2 0x2C6 JUMPI DUP1 PUSH1 0x3 NOT CALLDATASIZE ADD SLT PUSH2 0x2C6 JUMPI PUSH2 0x1395 PUSH2 0x24A4 JUMP JUMPDEST DUP1 SLOAD PUSH1 0x1 PUSH1 0x1 PUSH1 0xA0 SHL SUB NOT DUP2 AND DUP3 SSTORE DUP2 SWAP1 PUSH1 0x1 PUSH1 0x1 PUSH1 0xA0 SHL SUB AND PUSH32 0x8BE0079C531659141344CD1FD0A4F28419497F9722A3DAAFE3B4186F6B6457E0 DUP3 DUP1 LOG3 DUP1 RETURN JUMPDEST DUP4 CALLVALUE PUSH2 0x2C6 JUMPI DUP1 PUSH1 0x3 NOT CALLDATASIZE ADD SLT PUSH2 0x2C6 JUMPI POP PUSH1 0x19 SLOAD PUSH1 0x1A SLOAD PUSH1 0x1B SLOAD PUSH1 0x1C SLOAD PUSH1 0x1D SLOAD SWAP1 PUSH1 0xFF PUSH1 0xE SLOAD AND SWAP3 PUSH1 0x1E SLOAD SWAP5 PUSH1 0x40 MLOAD SWAP7 DUP8 MSTORE PUSH1 0x20 DUP8 ADD MSTORE PUSH1 0x40 DUP7 ADD MSTORE PUSH1 0x60 DUP6 ADD MSTORE PUSH1 0x80 DUP5 ADD MSTORE ISZERO ISZERO PUSH1 0xA0 DUP4 ADD MSTORE PUSH1 0xC0 DUP3 ADD MSTORE RETURN JUMPDEST DUP4 DUP3 CALLVALUE PUSH2 0x395 JUMPI PUSH1 0x40 CALLDATASIZE PUSH1 0x3 NOT ADD SLT PUSH2 0x395 JUMPI PUSH1 0x20 SWAP2 PUSH1 0x40 SWAP2 PUSH2 0x144C PUSH2 0x1ABA JUMP JUMPDEST SWAP1 CALLDATALOAD DUP3 MSTORE PUSH1 0x17 DUP5 MSTORE DUP3 DUP3 KECCAK256 PUSH1 0x1 PUSH1 0x1 PUSH1 0xA0 SHL SUB SWAP1 SWAP2 AND DUP3 MSTORE DUP4 MSTORE KECCAK256 SLOAD PUSH1 0x40 MLOAD SWAP1 DUP2 MSTORE RETURN JUMPDEST SWAP2 POP CALLVALUE PUSH2 0x9F1 JUMPI DUP3 PUSH1 0x3 NOT CALLDATASIZE ADD SLT PUSH2 0x9F1 JUMPI PUSH2 0x140 SWAP3 POP PUSH1 0x2 SLOAD SWAP2 PUSH1 0x3 SLOAD SWAP2 SLOAD SWAP1 PUSH1 0x5 SLOAD SWAP1 PUSH1 0x6 SLOAD PUSH1 0x7 SLOAD PUSH1 0x8 SLOAD SWAP2 PUSH1 0x9 SLOAD SWAP5 PUSH1 0xA SLOAD SWAP7 PUSH1 0xB SLOAD SWAP9 PUSH1 0x40 MLOAD SWAP11 DUP12 MSTORE PUSH1 0x20 DUP12 ADD MSTORE PUSH1 0x40 DUP11 ADD MSTORE PUSH1 0x60 DUP10 ADD MSTORE PUSH1 0x80 DUP9 ADD MSTORE PUSH1 0xA0 DUP8 ADD MSTORE PUSH1 0xC0 DUP7 ADD MSTORE DUP5 ADD MSTORE PUSH2 0x100 DUP4 ADD MSTORE PUSH2 0x120 DUP3 ADD MSTORE RETURN JUMPDEST DUP4 CALLVALUE PUSH2 0x2C6 JUMPI DUP1 PUSH1 0x3 NOT CALLDATASIZE ADD SLT PUSH2 0x2C6 JUMPI PUSH1 0x20 PUSH1 0x1D SLOAD PUSH1 0x40 MLOAD SWAP1 DUP2 MSTORE RETURN JUMPDEST DUP4 CALLVALUE PUSH2 0x2C6 JUMPI DUP1 PUSH1 0x3 NOT CALLDATASIZE ADD SLT PUSH2 0x2C6 JUMPI PUSH1 0x20 PUSH1 0xFF PUSH1 0xE SLOAD PUSH1 0x8 SHR AND PUSH1 0x40 MLOAD SWAP1 ISZERO ISZERO DUP2 MSTORE RETURN JUMPDEST DUP4 DUP3 CALLVALUE PUSH2 0x395 JUMPI PUSH1 0x20 CALLDATASIZE PUSH1 0x3 NOT ADD SLT PUSH2 0x395 JUMPI DUP1 CALLDATALOAD SWAP1 PUSH2 0x1542 PUSH2 0x24A4 JUMP JUMPDEST PUSH2 0x1F4 DUP3 GT PUSH2 0x1592 JUMPI POP PUSH1 0x0 DUP1 MLOAD PUSH1 0x20 PUSH2 0x2FE1 DUP4 CODECOPY DUP2 MLOAD SWAP2 MSTORE PUSH1 0xA0 PUSH1 0x8 SLOAD PUSH1 0x40 MLOAD SWAP1 PUSH1 0x60 DUP3 MSTORE PUSH1 0x8 PUSH1 0x60 DUP4 ADD MSTORE PUSH8 0x6F776E6572427073 PUSH1 0xC0 SHL PUSH1 0x80 DUP4 ADD MSTORE PUSH1 0x20 DUP3 ADD MSTORE DUP4 PUSH1 0x40 DUP3 ADD MSTORE LOG1 PUSH1 0x8 SSTORE DUP1 RETURN JUMPDEST PUSH1 0x64 SWAP1 PUSH1 0x20 PUSH1 0x40 MLOAD SWAP2 PUSH3 0x461BCD PUSH1 0xE5 SHL DUP4 MSTORE DUP3 ADD MSTORE PUSH1 0x6 PUSH1 0x24 DUP3 ADD MSTORE PUSH6 0x4D6178203525 PUSH1 0xD0 SHL PUSH1 0x44 DUP3 ADD MSTORE REVERT JUMPDEST DUP4 DUP3 CALLVALUE PUSH2 0x395 JUMPI PUSH1 0x40 CALLDATASIZE PUSH1 0x3 NOT ADD SLT PUSH2 0x395 JUMPI PUSH1 0x20 SWAP2 PUSH1 0x40 SWAP2 PUSH2 0x15E0 PUSH2 0x1ABA JUMP JUMPDEST SWAP1 CALLDATALOAD DUP3 MSTORE PUSH1 0x16 DUP5 MSTORE DUP3 DUP3 KECCAK256 PUSH1 0x1 PUSH1 0x1 PUSH1 0xA0 SHL SUB SWAP1 SWAP2 AND DUP3 MSTORE DUP4 MSTORE KECCAK256 SLOAD PUSH1 0x40 MLOAD SWAP1 DUP2 MSTORE RETURN JUMPDEST DUP4 CALLVALUE PUSH2 0x2C6 JUMPI DUP1 PUSH1 0x3 NOT CALLDATASIZE ADD SLT PUSH2 0x2C6 JUMPI PUSH2 0x161D PUSH2 0x24A4 JUMP JUMPDEST PUSH2 0x100 PUSH2 0xFF00 NOT PUSH1 0xE SLOAD AND OR PUSH1 0xE SSTORE CALLER PUSH32 0x62E78CEA01BEE320CD4E420270B5EA74000D11B0C9F74754EBDBFC544B05A258 DUP3 DUP1 LOG2 DUP1 RETURN JUMPDEST SWAP1 SWAP2 POP CALLVALUE PUSH2 0x9F1 JUMPI PUSH1 0x20 CALLDATASIZE PUSH1 0x3 NOT ADD SLT PUSH2 0x9F1 JUMPI SWAP2 PUSH2 0x120 SWAP3 PUSH1 0x40 PUSH2 0x1677 PUSH2 0x1AD5 JUMP JUMPDEST SWAP3 DUP2 MLOAD SWAP4 PUSH2 0x1684 DUP6 PUSH2 0x1AEB JUMP JUMPDEST DUP2 DUP6 MSTORE DUP2 PUSH1 0x20 DUP7 ADD MSTORE DUP2 DUP4 DUP7 ADD MSTORE DUP2 PUSH1 0x60 DUP7 ADD MSTORE DUP2 PUSH1 0x80 DUP7 ADD MSTORE DUP2 PUSH1 0xA0 DUP7 ADD MSTORE DUP2 PUSH1 0xC0 DUP7 ADD MSTORE DUP2 DUP5 DUP7 ADD MSTORE DUP2 PUSH2 0x100 DUP1 SWAP7 ADD MSTORE PUSH1 0x1 DUP1 PUSH1 0xA0 SHL SUB AND DUP2 MSTORE PUSH1 0x1F PUSH1 0x20 MSTORE KECCAK256 SWAP1 PUSH1 0x40 MLOAD SWAP2 PUSH2 0x16D5 DUP4 PUSH2 0x1AEB JUMP JUMPDEST DUP1 SLOAD SWAP5 DUP6 DUP5 MSTORE PUSH1 0x1 DUP3 ADD SLOAD SWAP1 PUSH1 0x20 DUP6 ADD SWAP2 DUP3 MSTORE PUSH1 0x2 DUP4 ADD SLOAD SWAP1 PUSH1 0x40 DUP7 ADD SWAP2 DUP3 MSTORE PUSH1 0x3 DUP5 ADD SLOAD SWAP1 PUSH1 0x60 DUP8 ADD SWAP2 DUP3 MSTORE DUP5 ADD SLOAD SWAP1 PUSH1 0x80 DUP8 ADD SWAP2 DUP3 MSTORE PUSH1 0x5 DUP6 ADD SLOAD SWAP3 PUSH1 0xA0 DUP9 ADD SWAP4 DUP5 MSTORE PUSH1 0x6 DUP7 ADD SLOAD SWAP5 PUSH1 0xC0 DUP10 ADD SWAP6 DUP7 MSTORE DUP10 PUSH1 0x8 PUSH1 0x7 DUP10 ADD SLOAD SWAP9 DUP11 DUP13 ADD SWAP10 DUP11 MSTORE ADD SLOAD SWAP10 ADD SWAP9 DUP10 MSTORE PUSH1 0x40 MLOAD SWAP11 DUP12 MSTORE MLOAD PUSH1 0x20 DUP12 ADD MSTORE MLOAD PUSH1 0x40 DUP11 ADD MSTORE MLOAD PUSH1 0x60 DUP10 ADD MSTORE MLOAD PUSH1 0x80 DUP9 ADD MSTORE MLOAD PUSH1 0xA0 DUP8 ADD MSTORE MLOAD PUSH1 0xC0 DUP7 ADD MSTORE MLOAD SWAP1 DUP5 ADD MSTORE MLOAD SWAP1 DUP3 ADD MSTORE RETURN JUMPDEST DUP4 CALLVALUE PUSH2 0x2C6 JUMPI DUP1 PUSH1 0x3 NOT CALLDATASIZE ADD SLT PUSH2 0x2C6 JUMPI PUSH2 0x178C PUSH2 0x24A4 JUMP JUMPDEST PUSH2 0xFF00 NOT PUSH1 0xE SLOAD AND PUSH1 0xE SSTORE CALLER PUSH32 0x5DB9EE0A495BF2E6FF9C91A7834C1BA4FDD244A5E8AA4E537BD38AEAE4B073AA DUP3 DUP1 LOG2 DUP1 RETURN JUMPDEST DUP4 DUP3 CALLVALUE PUSH2 0x395 JUMPI PUSH1 0x40 CALLDATASIZE PUSH1 0x3 NOT ADD SLT PUSH2 0x395 JUMPI SWAP1 PUSH1 0x80 SWAP2 CALLDATALOAD SWAP1 PUSH2 0x17E0 PUSH2 0x1ABA JUMP JUMPDEST SWAP2 DUP1 DUP3 MSTORE PUSH1 0x20 SWAP2 PUSH1 0x16 DUP4 MSTORE PUSH1 0x40 DUP2 KECCAK256 PUSH1 0x1 DUP1 PUSH1 0xA0 SHL SUB DUP1 SWAP6 AND SWAP1 DUP2 DUP4 MSTORE DUP5 MSTORE PUSH1 0x40 DUP3 KECCAK256 SLOAD SWAP5 DUP4 DUP4 MSTORE PUSH1 0x17 DUP6 MSTORE PUSH1 0x40 DUP4 KECCAK256 DUP3 DUP5 MSTORE DUP6 MSTORE PUSH1 0x15 PUSH1 0x40 DUP1 DUP6 KECCAK256 SLOAD SWAP5 DUP7 DUP2 MSTORE PUSH1 0x18 DUP9 MSTORE DUP2 DUP2 KECCAK256 DUP6 DUP3 MSTORE DUP9 MSTORE DUP2 DUP2 KECCAK256 SLOAD SWAP7 DUP2 MSTORE PUSH1 0x14 DUP9 MSTORE KECCAK256 ADD SLOAD AND EQ SWAP3 PUSH1 0x40 MLOAD SWAP5 DUP6 MSTORE DUP5 ADD MSTORE PUSH1 0x40 DUP4 ADD MSTORE PUSH1 0x60 DUP3 ADD MSTORE RETURN JUMPDEST DUP4 CALLVALUE PUSH2 0x2C6 JUMPI DUP1 PUSH1 0x3 NOT CALLDATASIZE ADD SLT PUSH2 0x2C6 JUMPI PUSH1 0xC SLOAD PUSH1 0x40 MLOAD PUSH1 0x1 PUSH1 0x1 PUSH1 0xA0 SHL SUB SWAP1 SWAP2 AND DUP2 MSTORE PUSH1 0x20 SWAP1 RETURN JUMPDEST DUP4 DUP3 CALLVALUE PUSH2 0x395 JUMPI PUSH1 0x20 CALLDATASIZE PUSH1 0x3 NOT ADD SLT PUSH2 0x395 JUMPI DUP1 CALLDATALOAD SWAP1 PUSH2 0x189A PUSH2 0x24A4 JUMP JUMPDEST PUSH7 0x38D7EA4C68000 DUP3 LT ISZERO DUP1 PUSH2 0x1928 JUMPI JUMPDEST ISZERO PUSH2 0x18FA JUMPI POP PUSH1 0x0 DUP1 MLOAD PUSH1 0x20 PUSH2 0x2FE1 DUP4 CODECOPY DUP2 MLOAD SWAP2 MSTORE PUSH1 0xA0 PUSH1 0x6 SLOAD PUSH1 0x40 MLOAD SWAP1 PUSH1 0x60 DUP3 MSTORE PUSH1 0xB PUSH1 0x60 DUP4 ADD MSTORE PUSH11 0x1B5A5B91DC985890DBDCDD PUSH1 0xAA SHL PUSH1 0x80 DUP4 ADD MSTORE PUSH1 0x20 DUP3 ADD MSTORE DUP4 PUSH1 0x40 DUP3 ADD MSTORE LOG1 PUSH1 0x6 SSTORE DUP1 RETURN JUMPDEST PUSH1 0x64 SWAP1 PUSH1 0x20 PUSH1 0x40 MLOAD SWAP2 PUSH3 0x461BCD PUSH1 0xE5 SHL DUP4 MSTORE DUP3 ADD MSTORE PUSH1 0x7 PUSH1 0x24 DUP3 ADD MSTORE PUSH7 0x302E3030312D35 PUSH1 0xC8 SHL PUSH1 0x44 DUP3 ADD MSTORE REVERT JUMPDEST POP PUSH8 0x4563918244F40000 DUP3 GT ISZERO PUSH2 0x18AB JUMP JUMPDEST DUP4 CALLVALUE PUSH2 0x2C6 JUMPI DUP1 PUSH1 0x3 NOT CALLDATASIZE ADD SLT PUSH2 0x2C6 JUMPI PUSH1 0x20 PUSH1 0x11 SLOAD PUSH1 0x40 MLOAD SWAP1 DUP2 MSTORE RETURN JUMPDEST DUP4 CALLVALUE PUSH2 0x2C6 JUMPI DUP1 PUSH1 0x3 NOT CALLDATASIZE ADD SLT PUSH2 0x2C6 JUMPI PUSH1 0x20 PUSH1 0x40 MLOAD PUSH2 0x2710 DUP2 MSTORE RETURN JUMPDEST DUP4 CALLVALUE PUSH2 0x2C6 JUMPI DUP1 PUSH1 0x3 NOT CALLDATASIZE ADD SLT PUSH2 0x2C6 JUMPI PUSH1 0x20 PUSH1 0x1E SLOAD PUSH1 0x40 MLOAD SWAP1 DUP2 MSTORE RETURN JUMPDEST DUP4 CALLVALUE PUSH2 0x2C6 JUMPI DUP1 PUSH1 0x3 NOT CALLDATASIZE ADD SLT PUSH2 0x2C6 JUMPI PUSH1 0xFF PUSH1 0xE SLOAD AND DUP1 PUSH2 0x19BD JUMPI JUMPDEST PUSH1 0x20 SWAP1 PUSH1 0x40 MLOAD SWAP1 ISZERO ISZERO DUP2 MSTORE RETURN JUMPDEST POP PUSH1 0x10 SLOAD NUMBER LT ISZERO PUSH2 0x19B0 JUMP JUMPDEST DUP4 DUP3 CALLVALUE PUSH2 0x395 JUMPI DUP2 PUSH1 0x3 NOT CALLDATASIZE ADD SLT PUSH2 0x395 JUMPI PUSH2 0x19E3 PUSH2 0x24A4 JUMP JUMPDEST PUSH1 0xFF PUSH1 0xE SLOAD PUSH2 0x19F6 DUP3 DUP3 PUSH1 0x8 SHR AND PUSH2 0x1C4A JUMP JUMPDEST AND ISZERO PUSH2 0x1A2F JUMPI POP PUSH2 0x1A05 PUSH2 0x250D JUMP JUMPDEST PUSH1 0xD SLOAD PUSH32 0x900E907F9C9B41743F506B7F161368A7EDE0785F9E3FEA29DEA2E6ADAF94A3CF DUP3 DUP1 LOG2 DUP1 RETURN JUMPDEST PUSH1 0x64 SWAP1 PUSH1 0x20 PUSH1 0x40 MLOAD SWAP2 PUSH3 0x461BCD PUSH1 0xE5 SHL DUP4 MSTORE DUP3 ADD MSTORE PUSH1 0x8 PUSH1 0x24 DUP3 ADD MSTORE PUSH8 0x139BC81C9BDD5B99 PUSH1 0xC2 SHL PUSH1 0x44 DUP3 ADD MSTORE REVERT JUMPDEST DUP4 CALLVALUE PUSH2 0x2C6 JUMPI DUP1 PUSH1 0x3 NOT CALLDATASIZE ADD SLT PUSH2 0x2C6 JUMPI PUSH1 0x20 PUSH1 0x40 MLOAD PUSH2 0xDEAD DUP2 MSTORE RETURN JUMPDEST DUP4 CALLVALUE PUSH2 0x2C6 JUMPI DUP1 PUSH1 0x3 NOT CALLDATASIZE ADD SLT PUSH2 0x2C6 JUMPI PUSH1 0x20 PUSH1 0xFF PUSH1 0xE SLOAD AND PUSH1 0x40 MLOAD SWAP1 ISZERO ISZERO DUP2 MSTORE RETURN JUMPDEST DUP5 SWAP1 CALLVALUE PUSH2 0x395 JUMPI DUP2 PUSH1 0x3 NOT CALLDATASIZE ADD SLT PUSH2 0x395 JUMPI PUSH1 0x20 SWAP1 PUSH1 0x10 SLOAD DUP2 MSTORE RETURN JUMPDEST PUSH1 0x24 CALLDATALOAD SWAP1 PUSH1 0x1 PUSH1 0x1 PUSH1 0xA0 SHL SUB DUP3 AND DUP3 SUB PUSH2 0x1AD0 JUMPI JUMP JUMPDEST PUSH1 0x0 DUP1 REVERT JUMPDEST PUSH1 0x4 CALLDATALOAD SWAP1 PUSH1 0x1 PUSH1 0x1 PUSH1 0xA0 SHL SUB DUP3 AND DUP3 SUB PUSH2 0x1AD0 JUMPI JUMP JUMPDEST PUSH2 0x120 DUP2 ADD SWAP1 DUP2 LT PUSH8 0xFFFFFFFFFFFFFFFF DUP3 GT OR PUSH2 0x1B08 JUMPI PUSH1 0x40 MSTORE JUMP JUMPDEST PUSH4 0x4E487B71 PUSH1 0xE0 SHL PUSH1 0x0 MSTORE PUSH1 0x41 PUSH1 0x4 MSTORE PUSH1 0x24 PUSH1 0x0 REVERT JUMPDEST PUSH2 0x140 DUP2 ADD SWAP1 DUP2 LT PUSH8 0xFFFFFFFFFFFFFFFF DUP3 GT OR PUSH2 0x1B08 JUMPI PUSH1 0x40 MSTORE JUMP JUMPDEST PUSH1 0x80 DUP2 ADD SWAP1 DUP2 LT PUSH8 0xFFFFFFFFFFFFFFFF DUP3 GT OR PUSH2 0x1B08 JUMPI PUSH1 0x40 MSTORE JUMP JUMPDEST SWAP1 PUSH1 0x1F DUP1 NOT SWAP2 ADD AND DUP2 ADD SWAP1 DUP2 LT PUSH8 0xFFFFFFFFFFFFFFFF DUP3 GT OR PUSH2 0x1B08 JUMPI PUSH1 0x40 MSTORE JUMP JUMPDEST SWAP1 PUSH1 0x40 MLOAD PUSH2 0x1B86 DUP2 PUSH2 0x1B1E JUMP JUMPDEST PUSH2 0x120 PUSH1 0x9 DUP3 SWAP5 DUP1 SLOAD DUP5 MSTORE PUSH1 0x1 DUP2 ADD SLOAD PUSH1 0x20 DUP6 ADD MSTORE PUSH1 0x2 DUP2 ADD SLOAD PUSH1 0x40 DUP6 ADD MSTORE PUSH1 0x3 DUP2 ADD SLOAD PUSH1 0x60 DUP6 ADD MSTORE PUSH1 0x4 DUP2 ADD SLOAD PUSH1 0x80 DUP6 ADD MSTORE PUSH1 0x5 DUP2 ADD SLOAD PUSH1 0xA0 DUP6 ADD MSTORE PUSH1 0x6 DUP2 ADD SLOAD PUSH1 0xC0 DUP6 ADD MSTORE PUSH1 0x7 DUP2 ADD SLOAD PUSH1 0xE0 DUP6 ADD MSTORE PUSH1 0x8 DUP2 ADD SLOAD PUSH2 0x100 DUP6 ADD MSTORE ADD SLOAD SWAP2 ADD MSTORE JUMP JUMPDEST DUP1 MLOAD DUP3 MSTORE PUSH1 0x20 DUP2 ADD MLOAD PUSH1 0x20 DUP4 ADD MSTORE PUSH1 0x40 DUP2 ADD MLOAD PUSH1 0x40 DUP4 ADD MSTORE PUSH1 0x60 DUP2 ADD MLOAD PUSH1 0x60 DUP4 ADD MSTORE PUSH1 0x80 DUP2 ADD MLOAD PUSH1 0x80 DUP4 ADD MSTORE PUSH1 0xA0 DUP2 ADD MLOAD PUSH1 0xA0 DUP4 ADD MSTORE PUSH1 0xC0 DUP2 ADD MLOAD PUSH1 0xC0 DUP4 ADD MSTORE PUSH1 0xE0 DUP2 ADD MLOAD PUSH1 0xE0 DUP4 ADD MSTORE PUSH2 0x100 DUP1 DUP3 ADD MLOAD SWAP1 DUP4 ADD MSTORE PUSH2 0x120 DUP1 SWAP2 ADD MLOAD SWAP2 ADD MSTORE JUMP JUMPDEST ISZERO PUSH2 0x1C51 JUMPI JUMP JUMPDEST PUSH1 0x40 MLOAD PUSH3 0x461BCD PUSH1 0xE5 SHL DUP2 MSTORE PUSH1 0x20 PUSH1 0x4 DUP3 ADD MSTORE PUSH1 0xA PUSH1 0x24 DUP3 ADD MSTORE PUSH10 0x139BDD081C185D5CD959 PUSH1 0xB2 SHL PUSH1 0x44 DUP3 ADD MSTORE PUSH1 0x64 SWAP1 REVERT JUMPDEST SWAP2 SWAP1 DUP3 ADD DUP1 SWAP3 GT PUSH2 0x1C90 JUMPI JUMP JUMPDEST PUSH4 0x4E487B71 PUSH1 0xE0 SHL PUSH1 0x0 MSTORE PUSH1 0x11 PUSH1 0x4 MSTORE PUSH1 0x24 PUSH1 0x0 REVERT JUMPDEST DUP2 ISZERO PUSH2 0x1CB0 JUMPI DIV SWAP1 JUMP JUMPDEST PUSH4 0x4E487B71 PUSH1 0xE0 SHL PUSH1 0x0 MSTORE PUSH1 0x12 PUSH1 0x4 MSTORE PUSH1 0x24 PUSH1 0x0 REVERT JUMPDEST SWAP2 SWAP1 DUP3 SUB SWAP2 DUP3 GT PUSH2 0x1C90 JUMPI JUMP JUMPDEST PUSH1 0xD SLOAD PUSH1 0xE SLOAD SWAP1 SWAP2 DUP3 PUSH1 0xFF DUP4 AND ISZERO PUSH2 0x1D48 JUMPI PUSH1 0x0 SWAP1 DUP2 MSTORE PUSH1 0x14 PUSH1 0x20 MSTORE PUSH1 0x40 SWAP1 KECCAK256 PUSH1 0xA DUP2 ADD SLOAD PUSH1 0xF SLOAD PUSH1 0x10 DUP1 SLOAD SWAP3 SWAP6 SWAP1 SHR PUSH1 0x1 PUSH1 0x1 PUSH1 0xA0 SHL SUB AND SWAP4 SWAP1 SWAP3 SWAP2 NUMBER DUP2 GT PUSH2 0x1D38 JUMPI POP PUSH1 0x0 JUMPDEST DUP1 SWAP3 PUSH1 0x14 DUP2 ADD SLOAD SWAP3 PUSH1 0xD PUSH1 0x13 DUP4 ADD SLOAD SWAP4 PUSH1 0x8 DUP5 ADD SLOAD LT ISZERO SWAP3 ADD SLOAD SWAP1 JUMP JUMPDEST PUSH2 0x1D43 SWAP1 NUMBER SWAP1 PUSH2 0x1CC6 JUMP JUMPDEST PUSH2 0x1D1B JUMP JUMPDEST POP PUSH1 0x6 SLOAD PUSH1 0x0 SWAP3 POP DUP3 SWAP2 DUP3 SWAP1 DUP2 SWAP1 DUP2 SWAP1 DUP2 SWAP1 DUP2 SWAP1 JUMP JUMPDEST ISZERO PUSH2 0x1D65 JUMPI JUMP JUMPDEST PUSH1 0x40 MLOAD PUSH3 0x461BCD PUSH1 0xE5 SHL DUP2 MSTORE PUSH1 0x20 PUSH1 0x4 DUP3 ADD MSTORE PUSH1 0x7 PUSH1 0x24 DUP3 ADD MSTORE PUSH7 0x4D617820313025 PUSH1 0xC8 SHL PUSH1 0x44 DUP3 ADD MSTORE PUSH1 0x64 SWAP1 REVERT JUMPDEST PUSH1 0x40 MLOAD SWAP1 PUSH2 0x1DA1 DUP3 PUSH2 0x1B1E JUMP JUMPDEST DUP2 PUSH2 0x120 PUSH1 0x0 SWAP2 DUP3 DUP2 MSTORE DUP3 PUSH1 0x20 DUP3 ADD MSTORE DUP3 PUSH1 0x40 DUP3 ADD MSTORE DUP3 PUSH1 0x60 DUP3 ADD MSTORE DUP3 PUSH1 0x80 DUP3 ADD MSTORE DUP3 PUSH1 0xA0 DUP3 ADD MSTORE DUP3 PUSH1 0xC0 DUP3 ADD MSTORE DUP3 PUSH1 0xE0 DUP3 ADD MSTORE DUP3 PUSH2 0x100 DUP3 ADD MSTORE ADD MSTORE JUMP JUMPDEST DUP2 DUP2 MUL SWAP3 SWAP2 DUP2 ISZERO SWAP2 DUP5 DIV EQ OR ISZERO PUSH2 0x1C90 JUMPI JUMP JUMPDEST PUSH1 0xFF PUSH1 0xE SLOAD AND ISZERO DUP1 ISZERO PUSH2 0x1E4B JUMPI JUMPDEST PUSH2 0x1E40 JUMPI PUSH2 0x1E12 PUSH1 0x10 SLOAD NUMBER SWAP1 PUSH2 0x1CC6 JUMP JUMPDEST SWAP1 DUP2 PUSH1 0x1 SHL DUP3 DUP2 DIV PUSH1 0x2 EQ DUP4 ISZERO OR ISZERO PUSH2 0x1C90 JUMPI SWAP1 PUSH1 0xD SLOAD PUSH1 0x0 MSTORE PUSH1 0x14 PUSH1 0x20 MSTORE PUSH1 0x8 PUSH1 0x40 PUSH1 0x0 KECCAK256 ADD SLOAD DUP4 GT ISZERO SWAP1 JUMP JUMPDEST PUSH1 0x0 SWAP1 PUSH1 0x0 SWAP1 PUSH1 0x0 SWAP1 JUMP JUMPDEST POP PUSH1 0x10 SLOAD NUMBER LT ISZERO PUSH2 0x1E01 JUMP JUMPDEST PUSH1 0xE PUSH1 0xFF DUP2 SLOAD AND DUP1 PUSH2 0x2498 JUMPI JUMPDEST PUSH2 0x248B JUMPI JUMPDEST PUSH1 0xFF DUP2 SLOAD AND ISZERO PUSH2 0x2184 JUMPI PUSH1 0x1 DUP1 PUSH1 0xA0 SHL SUB DUP1 DUP3 SLOAD PUSH1 0x10 SHR AND CALLER EQ PUSH2 0x214D JUMPI DUP3 SWAP1 PUSH2 0x1E97 PUSH1 0xF SLOAD DUP4 LT ISZERO PUSH2 0x2E59 JUMP JUMPDEST PUSH2 0x1EC3 DUP3 ADDRESS CALLER PUSH32 0x0 PUSH2 0x2DC0 JUMP JUMPDEST PUSH1 0xD DUP1 SLOAD SWAP1 PUSH1 0x0 SWAP2 DUP3 MSTORE PUSH1 0x20 SWAP1 PUSH1 0x14 DUP3 MSTORE PUSH1 0x40 SWAP1 DUP2 DUP5 KECCAK256 SWAP4 PUSH2 0x1EE8 PUSH1 0x10 SLOAD NUMBER SWAP1 PUSH2 0x1CC6 JUMP JUMPDEST PUSH2 0x1FC6 PUSH2 0x1FD5 PUSH1 0x8 DUP9 ADD SWAP3 DUP4 SLOAD DUP2 GT SWAP10 DUP13 SLOAD PUSH1 0x10 SHR AND SWAP12 PUSH2 0x1F0E PUSH1 0xA DUP12 ADD SWAP13 DUP14 SLOAD PUSH2 0x1C83 JUMP JUMPDEST DUP13 SSTORE DUP14 PUSH2 0x1F20 PUSH1 0xC DUP13 ADD SWAP2 DUP3 SLOAD PUSH2 0x1C83 JUMP JUMPDEST SWAP1 SSTORE PUSH1 0x13 DUP11 ADD PUSH2 0x1F30 DUP2 SLOAD PUSH2 0x24D0 JUMP JUMPDEST SWAP1 SSTORE DUP7 SLOAD DUP1 DUP8 MSTORE PUSH1 0x16 DUP11 MSTORE DUP9 DUP8 KECCAK256 CALLER DUP9 MSTORE DUP11 MSTORE DUP9 DUP8 KECCAK256 SLOAD ISZERO PUSH2 0x210F JUMPI JUMPDEST POP DUP7 SLOAD DUP7 MSTORE PUSH1 0x16 DUP10 MSTORE DUP8 DUP7 KECCAK256 CALLER DUP8 MSTORE DUP10 MSTORE DUP14 PUSH2 0x1F6D DUP10 DUP9 KECCAK256 SWAP2 DUP3 SLOAD PUSH2 0x1C83 JUMP JUMPDEST SWAP1 SSTORE DUP7 SLOAD DUP7 MSTORE PUSH1 0x18 DUP10 MSTORE DUP8 DUP7 KECCAK256 CALLER DUP8 MSTORE DUP10 MSTORE DUP8 DUP7 KECCAK256 PUSH2 0x1F8C DUP2 SLOAD PUSH2 0x24D0 JUMP JUMPDEST SWAP1 SSTORE DUP11 ISZERO PUSH2 0x20D8 JUMPI JUMPDEST DUP1 SLOAD PUSH3 0x10000 PUSH1 0x1 PUSH1 0xB0 SHL SUB NOT AND CALLER PUSH1 0x10 SHL PUSH3 0x10000 PUSH1 0x1 PUSH1 0xB0 SHL SUB AND OR SWAP1 SSTORE PUSH1 0x3 DUP10 ADD SLOAD PUSH2 0x2710 SWAP4 DUP5 SWAP2 DUP16 PUSH2 0x1DE0 JUMP JUMPDEST DIV PUSH1 0xF SSTORE PUSH1 0x1 DUP10 ADD SLOAD SWAP1 PUSH2 0x1DE0 JUMP JUMPDEST DIV SWAP6 PUSH1 0x2 DUP2 ADD SLOAD DUP1 DUP9 LT PUSH2 0x20D0 JUMPI JUMPDEST POP SWAP2 DUP5 SWAP2 PUSH1 0x8 SWAP4 PUSH2 0x1FF5 DUP10 NUMBER PUSH2 0x1C83 JUMP JUMPDEST DUP1 PUSH1 0x10 SSTORE PUSH1 0xF DUP3 ADD SSTORE PUSH1 0x12 NUMBER SWAP2 ADD SSTORE SLOAD DUP8 GT ISZERO DUP1 SWAP9 DUP2 SWAP10 PUSH2 0x20C8 JUMPI JUMPDEST POP PUSH2 0x2099 JUMPI JUMPDEST CALLER DUP2 MSTORE PUSH1 0x1F DUP7 MSTORE PUSH1 0x3 DUP3 DUP3 KECCAK256 ADD PUSH2 0x202F DUP13 DUP3 SLOAD PUSH2 0x1C83 JUMP JUMPDEST SWAP1 SSTORE CALLER DUP2 MSTORE PUSH1 0x1F DUP7 MSTORE KECCAK256 ADD PUSH2 0x2044 DUP2 SLOAD PUSH2 0x24D0 JUMP JUMPDEST SWAP1 SSTORE PUSH2 0x2052 DUP9 PUSH1 0x1D SLOAD PUSH2 0x1C83 JUMP JUMPDEST PUSH1 0x1D SSTORE SLOAD SWAP5 SLOAD PUSH1 0xF SLOAD SWAP3 DUP3 MLOAD SWAP9 DUP10 MSTORE DUP9 ADD MSTORE DUP7 ADD MSTORE PUSH1 0x60 DUP6 ADD MSTORE PUSH1 0x80 DUP5 ADD MSTORE PUSH32 0x4FAC472D5B6591A42F8223494B16F053353D72A46610D443EFF08001B39A9951 PUSH1 0xA0 CALLER SWAP5 LOG4 JUMP JUMPDEST DUP4 SLOAD PUSH32 0x63068782713F7520CC644E32AD434F43630783099E68B3CBFEE46B7263B02BFE DUP8 DUP5 MLOAD DUP11 DUP2 MSTORE LOG2 PUSH2 0x2017 JUMP JUMPDEST SWAP1 POP CODESIZE PUSH2 0x2011 JUMP JUMPDEST SWAP7 POP DUP5 PUSH2 0x1FE4 JUMP JUMPDEST DUP14 PUSH2 0x20E7 DUP9 DUP13 ADD SWAP2 DUP3 SLOAD PUSH2 0x1C83 JUMP JUMPDEST SWAP1 SSTORE DUP7 SLOAD DUP7 MSTORE PUSH1 0x17 DUP10 MSTORE DUP8 DUP7 KECCAK256 CALLER DUP8 MSTORE DUP10 MSTORE DUP14 PUSH2 0x2108 DUP10 DUP9 KECCAK256 SWAP2 DUP3 SLOAD PUSH2 0x1C83 JUMP JUMPDEST SWAP1 SSTORE PUSH2 0x1F95 JUMP JUMPDEST DUP7 MSTORE PUSH1 0x15 DUP10 MSTORE PUSH2 0x2121 CALLER DUP10 DUP9 KECCAK256 PUSH2 0x2E91 JUMP JUMPDEST PUSH1 0x14 DUP11 ADD PUSH2 0x212F DUP2 SLOAD PUSH2 0x24D0 JUMP JUMPDEST SWAP1 SSTORE CALLER DUP7 MSTORE PUSH1 0x1F DUP10 MSTORE DUP8 DUP7 KECCAK256 PUSH2 0x2145 DUP2 SLOAD PUSH2 0x24D0 JUMP JUMPDEST SWAP1 SSTORE CODESIZE PUSH2 0x1F4D JUMP JUMPDEST PUSH1 0x40 MLOAD PUSH3 0x461BCD PUSH1 0xE5 SHL DUP2 MSTORE PUSH1 0x20 PUSH1 0x4 DUP3 ADD MSTORE PUSH1 0xF PUSH1 0x24 DUP3 ADD MSTORE PUSH15 0x416C726561647920686F6C64696E67 PUSH1 0x88 SHL PUSH1 0x44 DUP3 ADD MSTORE PUSH1 0x64 SWAP1 REVERT JUMPDEST PUSH32 0x5359739F1459CC38D43F8A9266AF48358A798A3BBFCA4F2302F6465E14E8DBAC PUSH1 0x1F SWAP2 PUSH2 0x21B6 PUSH1 0x6 SLOAD DUP6 LT ISZERO PUSH2 0x2E59 JUMP JUMPDEST PUSH2 0x21E2 DUP5 ADDRESS CALLER PUSH32 0x0 PUSH2 0x2DC0 JUMP JUMPDEST PUSH1 0xD PUSH2 0x23AC PUSH2 0x21F1 DUP3 SLOAD PUSH2 0x24D0 JUMP JUMPDEST DUP1 DUP4 SSTORE PUSH2 0x21FF PUSH1 0x19 SLOAD PUSH2 0x24D0 JUMP JUMPDEST PUSH1 0x19 SSTORE PUSH1 0x1 PUSH1 0xFF NOT DUP6 SLOAD AND OR DUP5 SSTORE PUSH1 0x0 SWAP1 DUP2 MSTORE PUSH1 0x20 SWAP3 PUSH1 0x14 DUP5 MSTORE PUSH1 0x40 SWAP2 DUP3 DUP2 KECCAK256 SWAP8 DUP9 SWAP6 PUSH1 0x2 DUP8 SUB PUSH2 0x2439 JUMPI JUMPDEST DUP11 DUP5 PUSH2 0x2255 DUP3 PUSH1 0xB PUSH2 0x224A DUP9 PUSH1 0x11 SLOAD DUP1 PUSH2 0x23D0 JUMPI JUMPDEST POP PUSH1 0x13 SLOAD SWAP1 PUSH2 0x1C83 JUMP JUMPDEST SWAP12 ADD SWAP11 DUP1 DUP13 SSTORE PUSH2 0x1C83 JUMP JUMPDEST SWAP12 PUSH1 0xA DUP2 ADD SWAP13 DUP14 SSTORE DUP3 PUSH1 0xC DUP3 ADD SSTORE NUMBER DUP12 DUP3 ADD SSTORE PUSH2 0x2274 PUSH1 0x2 SLOAD NUMBER PUSH2 0x1C83 JUMP JUMPDEST PUSH1 0xF DUP3 ADD SWAP1 DUP2 SSTORE TIMESTAMP PUSH1 0x10 DUP1 DUP5 ADD SWAP2 SWAP1 SWAP2 SSTORE NUMBER PUSH1 0x12 DUP5 ADD SSTORE PUSH1 0x1 PUSH1 0x13 DUP5 ADD DUP2 SWAP1 SSTORE PUSH1 0x14 DUP5 ADD SSTORE DUP13 SLOAD PUSH3 0x10000 PUSH1 0x1 PUSH1 0xB0 SHL SUB NOT AND CALLER SWAP1 SWAP2 SHL PUSH3 0x10000 PUSH1 0x1 PUSH1 0xB0 SHL SUB AND OR SWAP1 SWAP12 SSTORE PUSH1 0x5 SLOAD PUSH2 0x2710 SWAP1 PUSH2 0x22CB SWAP1 DUP6 PUSH2 0x1DE0 JUMP JUMPDEST DIV PUSH1 0xF SSTORE DUP11 SLOAD PUSH1 0x10 SSTORE DUP2 SLOAD DUP7 MSTORE PUSH1 0x15 DUP5 MSTORE PUSH2 0x22E8 CALLER DUP10 DUP9 KECCAK256 PUSH2 0x2E91 JUMP JUMPDEST DUP2 SLOAD DUP7 MSTORE PUSH1 0x16 DUP5 MSTORE DUP8 DUP7 KECCAK256 CALLER DUP8 MSTORE DUP5 MSTORE DUP3 DUP9 DUP8 KECCAK256 SSTORE DUP2 SLOAD DUP7 MSTORE PUSH1 0x18 DUP5 MSTORE DUP8 DUP7 KECCAK256 CALLER DUP8 MSTORE DUP5 MSTORE PUSH1 0x1 DUP9 DUP8 KECCAK256 SSTORE PUSH2 0x231E NUMBER DUP13 SLOAD PUSH2 0x1CC6 JUMP JUMPDEST PUSH1 0xA SLOAD LT ISZERO PUSH2 0x23B1 JUMPI JUMPDEST POP POP POP CALLER DUP4 MSTORE DUP2 DUP2 MSTORE DUP5 DUP4 KECCAK256 PUSH2 0x233E DUP2 SLOAD PUSH2 0x24D0 JUMP JUMPDEST SWAP1 SSTORE CALLER DUP4 MSTORE DUP2 DUP2 MSTORE PUSH1 0x3 DUP6 DUP5 KECCAK256 ADD PUSH2 0x2357 DUP13 DUP3 SLOAD PUSH2 0x1C83 JUMP JUMPDEST SWAP1 SSTORE CALLER DUP4 MSTORE MSTORE PUSH1 0x8 DUP4 DUP3 KECCAK256 ADD PUSH2 0x236D DUP2 SLOAD PUSH2 0x24D0 JUMP JUMPDEST SWAP1 SSTORE PUSH1 0x13 SSTORE PUSH2 0x237E DUP9 PUSH1 0x1D SLOAD PUSH2 0x1C83 JUMP JUMPDEST PUSH1 0x1D SSTORE SLOAD SWAP6 SLOAD SWAP3 SLOAD SWAP4 SLOAD SWAP1 MLOAD SWAP4 DUP5 SWAP4 CALLER SWAP9 DUP6 SWAP1 SWAP5 SWAP4 SWAP3 PUSH1 0x60 SWAP3 PUSH1 0x80 DUP4 ADD SWAP7 DUP4 MSTORE PUSH1 0x20 DUP4 ADD MSTORE PUSH1 0x40 DUP3 ADD MSTORE ADD MSTORE JUMP JUMPDEST SUB SWAP1 LOG3 JUMP JUMPDEST ADD SSTORE DUP4 SLOAD DUP4 MSTORE PUSH1 0x17 DUP2 MSTORE DUP5 DUP4 KECCAK256 CALLER DUP5 MSTORE DUP2 MSTORE DUP11 DUP6 DUP5 KECCAK256 SSTORE DUP11 DUP5 CODESIZE PUSH2 0x2328 JUMP JUMPDEST PUSH1 0x12 SLOAD SWAP1 SWAP2 POP DUP1 DUP3 LT PUSH2 0x2432 JUMPI JUMPDEST PUSH32 0x23FA081A9A0C5AD79981E4B73B26DE8B7A664B8E5D5257D7594F77F570C5BA46 DUP14 PUSH2 0x240B DUP4 DUP1 SWAP6 PUSH2 0x1CC6 JUMP JUMPDEST SWAP3 DUP4 PUSH1 0x11 SSTORE PUSH2 0x241C DUP2 PUSH1 0x1E SLOAD PUSH2 0x1C83 JUMP JUMPDEST PUSH1 0x1E SSTORE DUP10 SLOAD SWAP4 DUP3 MLOAD SWAP2 DUP3 MSTORE DUP13 DUP3 ADD MSTORE LOG2 CODESIZE PUSH2 0x2240 JUMP JUMPDEST POP DUP1 PUSH2 0x23DE JUMP JUMPDEST PUSH1 0x2 SLOAD DUP8 SSTORE PUSH1 0x3 SLOAD PUSH1 0x1 DUP9 ADD SSTORE PUSH1 0x4 SLOAD PUSH1 0x2 DUP9 ADD SSTORE PUSH1 0x5 SLOAD PUSH1 0x3 DUP9 ADD SSTORE PUSH1 0x6 SLOAD PUSH1 0x4 DUP9 ADD SSTORE PUSH1 0x7 SLOAD PUSH1 0x5 DUP9 ADD SSTORE PUSH1 0x8 SLOAD PUSH1 0x6 DUP9 ADD SSTORE PUSH1 0x9 SLOAD PUSH1 0x7 DUP9 ADD SSTORE PUSH1 0xA SLOAD PUSH1 0x8 DUP9 ADD SSTORE PUSH1 0xB SLOAD PUSH1 0x9 DUP9 ADD SSTORE PUSH2 0x222B JUMP JUMPDEST PUSH2 0x2493 PUSH2 0x250D JUMP JUMPDEST PUSH2 0x1E69 JUMP JUMPDEST POP PUSH1 0x10 SLOAD NUMBER LT ISZERO PUSH2 0x1E64 JUMP JUMPDEST PUSH1 0x0 SLOAD PUSH1 0x1 PUSH1 0x1 PUSH1 0xA0 SHL SUB AND CALLER SUB PUSH2 0x24B8 JUMPI JUMP JUMPDEST PUSH1 0x40 MLOAD PUSH4 0x118CDAA7 PUSH1 0xE0 SHL DUP2 MSTORE CALLER PUSH1 0x4 DUP3 ADD MSTORE PUSH1 0x24 SWAP1 REVERT JUMPDEST PUSH1 0x0 NOT DUP2 EQ PUSH2 0x1C90 JUMPI PUSH1 0x1 ADD SWAP1 JUMP JUMPDEST DUP1 SLOAD DUP3 LT ISZERO PUSH2 0x24F7 JUMPI PUSH1 0x0 MSTORE PUSH1 0x20 PUSH1 0x0 KECCAK256 ADD SWAP1 PUSH1 0x0 SWAP1 JUMP JUMPDEST PUSH4 0x4E487B71 PUSH1 0xE0 SHL PUSH1 0x0 MSTORE PUSH1 0x32 PUSH1 0x4 MSTORE PUSH1 0x24 PUSH1 0x0 REVERT JUMPDEST PUSH1 0xD SLOAD PUSH1 0x0 MSTORE PUSH1 0x14 PUSH1 0x20 MSTORE PUSH1 0x40 PUSH1 0x0 KECCAK256 TIMESTAMP PUSH1 0x11 DUP3 ADD SSTORE PUSH1 0x1 DUP1 PUSH1 0xA0 SHL SUB PUSH1 0xE SLOAD PUSH1 0x10 SHR AND PUSH12 0xFFFFFFFFFFFFFFFFFFFFFFFF PUSH1 0xA0 SHL PUSH1 0x15 DUP4 ADD SLOAD AND OR PUSH1 0x15 DUP3 ADD SSTORE PUSH1 0x19 DUP2 ADD PUSH1 0xFF NOT SWAP1 PUSH1 0x1 DUP3 DUP3 SLOAD AND OR SWAP1 SSTORE PUSH1 0xE SLOAD AND PUSH1 0xE SSTORE PUSH1 0x1 PUSH1 0x14 DUP3 ADD SLOAD EQ PUSH2 0x2CF5 JUMPI PUSH1 0xD SLOAD PUSH1 0x0 MSTORE PUSH1 0x16 PUSH1 0x20 MSTORE PUSH1 0x40 PUSH1 0x0 KECCAK256 SWAP1 PUSH1 0x1 PUSH1 0xA0 SHL PUSH1 0x1 SWAP1 SUB PUSH1 0x15 DUP3 ADD SLOAD AND SWAP2 DUP3 PUSH1 0x0 MSTORE PUSH1 0x20 MSTORE PUSH1 0x40 PUSH1 0x0 KECCAK256 SLOAD SWAP2 DUP3 PUSH1 0x16 DUP4 ADD SSTORE PUSH1 0xD SLOAD PUSH1 0x0 MSTORE PUSH1 0x17 PUSH1 0x20 MSTORE PUSH1 0x40 PUSH1 0x0 KECCAK256 SWAP1 PUSH1 0x0 MSTORE PUSH1 0x20 MSTORE PUSH1 0x40 PUSH1 0x0 KECCAK256 SLOAD DUP1 PUSH1 0x17 DUP4 ADD SSTORE DUP3 PUSH1 0xC DUP4 ADD SLOAD SWAP1 PUSH2 0x25D9 SWAP2 PUSH2 0x1CC6 JUMP JUMPDEST SWAP1 PUSH1 0xD DUP4 ADD SLOAD SWAP1 PUSH2 0x25E9 SWAP2 PUSH2 0x1CC6 JUMP JUMPDEST SWAP3 PUSH1 0x5 DUP4 ADD SLOAD PUSH2 0x25F9 DUP2 DUP5 PUSH2 0x1DE0 JUMP JUMPDEST PUSH2 0x2710 SWAP1 DIV SWAP5 PUSH1 0x6 DUP6 ADD SLOAD SWAP7 PUSH2 0x260F DUP9 DUP7 PUSH2 0x1DE0 JUMP JUMPDEST PUSH2 0x2710 SWAP1 DIV PUSH1 0x7 DUP8 ADD SLOAD SWAP1 PUSH2 0x2624 DUP3 DUP9 PUSH2 0x1DE0 JUMP JUMPDEST PUSH2 0x2710 SWAP1 DIV SWAP5 PUSH2 0x2634 SWAP1 DUP8 PUSH2 0x1DE0 JUMP JUMPDEST PUSH2 0x2710 SWAP1 DIV SWAP10 PUSH2 0x2644 SWAP1 DUP8 PUSH2 0x1DE0 JUMP JUMPDEST PUSH2 0x2710 SWAP1 DIV SWAP2 PUSH2 0x2654 SWAP1 DUP8 PUSH2 0x1DE0 JUMP JUMPDEST PUSH2 0x2710 SWAP1 DIV SWAP5 DUP11 DUP7 DUP5 PUSH1 0x9 DUP13 ADD SLOAD PUSH2 0x266C SWAP1 DUP12 PUSH2 0x1DE0 JUMP JUMPDEST PUSH2 0x2710 SWAP1 DIV SWAP10 DUP11 SWAP4 PUSH2 0x267D SWAP2 PUSH2 0x1CC6 JUMP JUMPDEST SWAP1 PUSH2 0x2687 SWAP2 PUSH2 0x1CC6 JUMP JUMPDEST SWAP1 PUSH2 0x2691 SWAP2 PUSH2 0x1CC6 JUMP JUMPDEST SWAP1 PUSH2 0x269B SWAP2 PUSH2 0x1CC6 JUMP JUMPDEST SWAP6 PUSH2 0x26A5 SWAP2 PUSH2 0x1C83 JUMP JUMPDEST SWAP10 DUP5 ISZERO PUSH2 0x2CD8 JUMPI JUMPDEST SWAP1 PUSH2 0x26F7 PUSH2 0x2703 SWAP4 SWAP3 PUSH1 0xB DUP12 ADD SLOAD SWAP12 DUP13 PUSH1 0x18 DUP14 ADD SSTORE PUSH2 0x26CC DUP3 DUP3 PUSH2 0x1C83 JUMP JUMPDEST PUSH1 0x1A DUP14 ADD SSTORE PUSH2 0x26DB DUP6 DUP6 PUSH2 0x1C83 JUMP JUMPDEST PUSH1 0x1B DUP14 ADD SSTORE DUP14 PUSH1 0x1C DUP14 ADD SSTORE DUP10 PUSH1 0x1D DUP14 ADD SSTORE DUP9 PUSH1 0x1E DUP14 ADD SSTORE PUSH2 0x1C83 JUMP JUMPDEST DUP1 PUSH2 0x2C6F JUMPI JUMPDEST POP PUSH2 0x1C83 JUMP JUMPDEST DUP1 PUSH2 0x2C21 JUMPI JUMPDEST POP DUP7 PUSH2 0x2B70 JUMPI JUMPDEST PUSH2 0x2719 DUP7 PUSH2 0x2ED1 JUMP JUMPDEST PUSH1 0x1F DUP8 ADD DUP1 SLOAD PUSH1 0x1 PUSH1 0x1 PUSH1 0xA0 SHL SUB NOT AND PUSH1 0x1 PUSH1 0x1 PUSH1 0xA0 SHL SUB DUP4 AND OR SWAP1 SSTORE SWAP8 DUP1 ISZERO ISZERO DUP1 PUSH2 0x2B5E JUMPI JUMPDEST PUSH2 0x2A96 JUMPI JUMPDEST PUSH1 0xD SLOAD PUSH1 0x0 MSTORE PUSH1 0x15 PUSH1 0x20 MSTORE PUSH1 0x40 PUSH1 0x0 KECCAK256 SWAP9 PUSH1 0x0 JUMPDEST DUP11 SLOAD DUP2 LT ISZERO PUSH2 0x299B JUMPI DUP1 PUSH2 0x276F PUSH1 0x1 SWAP3 DUP14 PUSH2 0x24DF JUMP JUMPDEST DUP4 DUP1 PUSH1 0xA0 SHL SUB SWAP2 SLOAD SWAP1 PUSH1 0x3 SHL SHR AND DUP3 DUP1 PUSH1 0xA0 SHL SUB PUSH1 0x15 DUP13 ADD SLOAD AND DUP2 EQ PUSH2 0x2995 JUMPI PUSH1 0xD SLOAD DUP1 PUSH1 0x0 MSTORE PUSH1 0x16 PUSH1 0x20 MSTORE PUSH1 0x40 PUSH1 0x0 KECCAK256 DUP3 PUSH1 0x0 MSTORE PUSH1 0x20 MSTORE PUSH1 0x40 PUSH1 0x0 KECCAK256 SLOAD SWAP1 PUSH1 0x0 MSTORE PUSH1 0x17 PUSH1 0x20 MSTORE PUSH1 0x40 PUSH1 0x0 KECCAK256 DUP3 PUSH1 0x0 MSTORE PUSH1 0x20 MSTORE PUSH1 0x40 PUSH1 0x0 KECCAK256 SLOAD PUSH2 0x280F DUP14 PUSH2 0x2710 PUSH2 0x27FF PUSH1 0x7 PUSH2 0x2806 PUSH2 0x27F0 DUP5 PUSH2 0x27E9 PUSH1 0x5 DUP9 ADD SLOAD DUP12 PUSH2 0x1DE0 JUMP JUMPDEST DIV DUP10 PUSH2 0x1CC6 JUMP JUMPDEST DUP5 PUSH2 0x27FF PUSH1 0x6 DUP9 ADD SLOAD DUP12 PUSH2 0x1DE0 JUMP JUMPDEST DIV SWAP1 PUSH2 0x1CC6 JUMP JUMPDEST SWAP4 ADD SLOAD DUP7 PUSH2 0x1DE0 JUMP JUMPDEST SWAP2 DUP13 PUSH1 0x0 SWAP2 DUP2 ISZERO ISZERO DUP3 PUSH2 0x298C JUMPI JUMPDEST PUSH2 0x2976 JUMPI JUMPDEST POP POP DUP10 PUSH1 0x0 SWAP3 DUP14 DUP3 ISZERO ISZERO DUP4 PUSH2 0x296D JUMPI JUMPDEST DUP1 PUSH2 0x2964 JUMPI JUMPDEST PUSH2 0x2924 JUMPI JUMPDEST POP POP POP DUP3 PUSH2 0x28A6 PUSH2 0x2879 DUP5 PUSH2 0x2874 DUP6 PUSH32 0xA5D2CF8BBB998380D1C6011AC6200FC92D40D80A6F7EFF45A255A57738A91C78 SWAP8 SWAP9 PUSH2 0x1C83 JUMP JUMPDEST PUSH2 0x1C83 JUMP JUMPDEST DUP1 PUSH2 0x28B0 JUMPI JUMPDEST PUSH1 0xD SLOAD SWAP6 PUSH1 0x40 MLOAD SWAP5 DUP6 SWAP5 DUP6 SWAP1 SWAP5 SWAP4 SWAP3 PUSH1 0x60 SWAP3 PUSH1 0x80 DUP4 ADD SWAP7 DUP4 MSTORE PUSH1 0x20 DUP4 ADD MSTORE PUSH1 0x40 DUP3 ADD MSTORE ADD MSTORE JUMP JUMPDEST SUB SWAP1 LOG3 JUMPDEST ADD PUSH2 0x2759 JUMP JUMPDEST PUSH2 0x28DB DUP2 DUP9 PUSH32 0x0 PUSH2 0x2E1B JUMP JUMPDEST PUSH2 0x28E5 DUP7 DUP6 PUSH2 0x1C83 JUMP JUMPDEST DUP8 PUSH1 0x0 MSTORE PUSH1 0x1F PUSH1 0x20 MSTORE PUSH2 0x2901 PUSH1 0x4 PUSH1 0x40 PUSH1 0x0 KECCAK256 ADD SWAP2 DUP3 SLOAD PUSH2 0x1C83 JUMP JUMPDEST SWAP1 SSTORE DUP7 PUSH1 0x0 MSTORE PUSH1 0x1F PUSH1 0x20 MSTORE DUP9 PUSH1 0x40 PUSH1 0x0 KECCAK256 ADD PUSH2 0x291D DUP2 SLOAD PUSH2 0x24D0 JUMP JUMPDEST SWAP1 SSTORE PUSH2 0x287F JUMP JUMPDEST PUSH32 0xA5D2CF8BBB998380D1C6011AC6200FC92D40D80A6F7EFF45A255A57738A91C78 SWAP5 POP PUSH2 0x295A SWAP3 SWAP2 PUSH2 0x2955 SWAP2 PUSH2 0x1DE0 JUMP JUMPDEST PUSH2 0x1CA6 JUMP JUMPDEST SWAP2 POP DUP10 CODESIZE DUP14 PUSH2 0x283D JUMP JUMPDEST POP DUP2 ISZERO ISZERO PUSH2 0x2838 JUMP JUMPDEST POP DUP1 ISZERO ISZERO PUSH2 0x2832 JUMP JUMPDEST PUSH2 0x2985 SWAP3 POP PUSH2 0x2955 SWAP1 DUP14 PUSH2 0x1DE0 JUMP JUMPDEST DUP13 CODESIZE PUSH2 0x2822 JUMP JUMPDEST POP DUP13 ISZERO ISZERO PUSH2 0x281D JUMP JUMPDEST POP PUSH2 0x28AA JUMP JUMPDEST POP SWAP3 POP SWAP7 PUSH32 0xC31996D40E5893861400760C37787365EB4D183C84DC81F29B76371A26D62835 SWAP5 SWAP7 SWAP2 SWAP9 POP PUSH1 0xE0 SWAP4 SWAP6 POP PUSH1 0x1 DUP1 PUSH1 0xA0 SHL SUB PUSH1 0x15 DUP4 ADD SLOAD AND PUSH1 0x0 MSTORE PUSH1 0x1F PUSH1 0x20 MSTORE PUSH1 0x2 PUSH1 0x40 PUSH1 0x0 KECCAK256 ADD PUSH2 0x29F1 DUP2 SLOAD PUSH2 0x24D0 JUMP JUMPDEST SWAP1 SSTORE PUSH1 0x16 DUP3 ADD SLOAD SWAP1 DUP1 DUP3 GT PUSH2 0x2A5C JUMPI JUMPDEST POP POP PUSH1 0xD SLOAD SWAP5 PUSH1 0x1 DUP1 PUSH1 0xA0 SHL SUB PUSH1 0x15 DUP4 ADD SLOAD AND SWAP7 PUSH1 0x16 DUP4 ADD SLOAD SWAP9 PUSH1 0x1A DUP5 ADD SLOAD SWAP4 PUSH1 0x14 PUSH1 0x1B DUP3 ADD SLOAD SWAP2 ADD SLOAD SWAP5 PUSH1 0x40 MLOAD SWAP12 DUP13 MSTORE PUSH1 0x20 DUP13 ADD MSTORE PUSH1 0x40 DUP12 ADD MSTORE PUSH1 0x60 DUP11 ADD MSTORE PUSH1 0x80 DUP10 ADD MSTORE PUSH1 0xA0 DUP9 ADD MSTORE PUSH1 0xC0 DUP8 ADD MSTORE PUSH1 0x1 DUP1 PUSH1 0xA0 SHL SUB AND SWAP5 LOG4 JUMP JUMPDEST PUSH2 0x2A65 SWAP2 PUSH2 0x1CC6 JUMP JUMPDEST PUSH1 0x1 DUP1 PUSH1 0xA0 SHL SUB PUSH1 0x15 DUP4 ADD SLOAD AND PUSH1 0x0 MSTORE PUSH1 0x1F PUSH1 0x20 MSTORE PUSH2 0x2A8D PUSH1 0x5 PUSH1 0x40 PUSH1 0x0 KECCAK256 ADD SWAP2 DUP3 SLOAD PUSH2 0x1C83 JUMP JUMPDEST SWAP1 SSTORE CODESIZE DUP1 PUSH2 0x2A01 JUMP JUMPDEST PUSH2 0x2AC1 DUP2 DUP11 PUSH32 0x0 PUSH2 0x2E1B JUMP JUMPDEST PUSH2 0x2ACD DUP2 PUSH1 0x1B SLOAD PUSH2 0x1C83 JUMP JUMPDEST PUSH1 0x1B SSTORE PUSH1 0x1 PUSH1 0x1 PUSH1 0xA0 SHL SUB DUP10 AND PUSH1 0x0 SWAP1 DUP2 MSTORE PUSH1 0x1F PUSH1 0x20 MSTORE PUSH1 0x40 SWAP1 KECCAK256 PUSH1 0x6 ADD DUP1 SLOAD PUSH2 0x2AF6 SWAP1 PUSH2 0x24D0 JUMP JUMPDEST SWAP1 SSTORE PUSH1 0x1 DUP1 PUSH1 0xA0 SHL SUB DUP10 AND PUSH1 0x0 MSTORE PUSH1 0x1F PUSH1 0x20 MSTORE PUSH1 0x7 PUSH1 0x40 PUSH1 0x0 KECCAK256 ADD PUSH2 0x2B1C DUP3 DUP3 SLOAD PUSH2 0x1C83 JUMP JUMPDEST SWAP1 SSTORE PUSH1 0xD SLOAD PUSH1 0x40 MLOAD DUP3 DUP2 MSTORE PUSH1 0x1 PUSH1 0x1 PUSH1 0xA0 SHL SUB DUP12 AND SWAP2 SWAP1 PUSH32 0x4B4370E35FA67B2ED99F2F8FCEB32066A4AA4CD33E7A990D98ECAEF1BC5BF47B SWAP1 PUSH1 0x20 SWAP1 LOG3 PUSH2 0x2745 JUMP JUMPDEST POP PUSH1 0x1 PUSH1 0x1 PUSH1 0xA0 SHL SUB DUP10 AND ISZERO ISZERO PUSH2 0x2740 JUMP JUMPDEST PUSH1 0x15 DUP7 ADD SLOAD PUSH2 0x2BAA SWAP1 DUP9 SWAP1 PUSH1 0x1 PUSH1 0x1 PUSH1 0xA0 SHL SUB AND PUSH32 0x0 PUSH2 0x2E1B JUMP JUMPDEST PUSH1 0x16 DUP7 ADD SLOAD PUSH1 0x0 DUP2 SLT DUP9 DUP3 DUP2 SUB SLT DUP2 AND SWAP1 DUP10 DUP4 DUP2 SUB SGT SWAP1 ISZERO AND OR PUSH2 0x1C90 JUMPI PUSH1 0xD SLOAD PUSH32 0x4119E264BE4FC285D7DC58E5960CF706D6AF27FAAB8AB0DF53D738E3727AD838 PUSH1 0x80 PUSH1 0x1 DUP1 PUSH1 0xA0 SHL SUB PUSH1 0x15 DUP12 ADD SLOAD AND SWAP4 PUSH1 0xB DUP12 ADD SLOAD SWAP1 PUSH1 0x40 MLOAD SWAP2 DUP3 MSTORE DUP13 PUSH1 0x20 DUP4 ADD MSTORE DUP1 PUSH1 0x40 DUP4 ADD MSTORE DUP13 SUB PUSH1 0x60 DUP3 ADD MSTORE LOG3 PUSH2 0x2710 JUMP JUMPDEST PUSH1 0xC SLOAD PUSH2 0x2C66 SWAP2 SWAP1 PUSH2 0x2C5E SWAP1 DUP3 SWAP1 PUSH1 0x1 PUSH1 0x1 PUSH1 0xA0 SHL SUB AND PUSH32 0x0 PUSH2 0x2E1B JUMP JUMPDEST PUSH1 0x1C SLOAD PUSH2 0x1C83 JUMP JUMPDEST PUSH1 0x1C SSTORE CODESIZE PUSH2 0x2709 JUMP JUMPDEST PUSH2 0x2CCF SWAP1 PUSH2 0x2CC7 PUSH1 0x40 MLOAD PUSH4 0xA9059CBB PUSH1 0xE0 SHL PUSH1 0x20 DUP3 ADD MSTORE PUSH2 0xDEAD PUSH1 0x24 DUP3 ADD MSTORE DUP3 PUSH1 0x44 DUP3 ADD MSTORE PUSH1 0x44 DUP2 MSTORE PUSH2 0x2CA1 DUP2 PUSH2 0x1B3B JUMP JUMPDEST PUSH32 0x0 PUSH2 0x2F78 JUMP JUMPDEST PUSH1 0x1A SLOAD PUSH2 0x1C83 JUMP JUMPDEST PUSH1 0x1A SSTORE CODESIZE PUSH2 0x26FD JUMP JUMPDEST SWAP6 PUSH2 0x2CE8 SWAP1 PUSH2 0x2703 SWAP4 SWAP3 SWAP7 PUSH2 0x1C83 JUMP JUMPDEST PUSH1 0x0 SWAP7 SWAP1 SWAP6 SWAP2 SWAP3 POP PUSH2 0x26AD JUMP JUMPDEST PUSH2 0x2D05 PUSH1 0xB DUP3 ADD SLOAD PUSH1 0x11 SLOAD PUSH2 0x1C83 JUMP JUMPDEST PUSH1 0x11 SSTORE PUSH1 0x15 DUP2 ADD SLOAD PUSH1 0xC DUP3 ADD SLOAD PUSH2 0x2D45 SWAP2 PUSH1 0x1 PUSH1 0x1 PUSH1 0xA0 SHL SUB AND PUSH32 0x0 PUSH2 0x2E1B JUMP JUMPDEST PUSH32 0xDB5921DF7FBB38E24667925D5736D9D890212D79605330D0315A5C7225663AF7 PUSH1 0x80 PUSH1 0xA PUSH1 0xD SLOAD SWAP4 ADD SLOAD PUSH1 0x40 MLOAD SWAP1 DUP2 MSTORE PUSH1 0x40 PUSH1 0x20 DUP3 ADD MSTORE PUSH1 0xD PUSH1 0x40 DUP3 ADD MSTORE PUSH13 0x39B4B733B63290383630BCB2B9 PUSH1 0x99 SHL PUSH1 0x60 DUP3 ADD MSTORE LOG2 JUMP JUMPDEST PUSH1 0x2 PUSH1 0x1 SLOAD EQ PUSH2 0x2DAE JUMPI PUSH1 0x2 PUSH1 0x1 SSTORE JUMP JUMPDEST PUSH1 0x40 MLOAD PUSH4 0x3EE5AEB5 PUSH1 0xE0 SHL DUP2 MSTORE PUSH1 0x4 SWAP1 REVERT JUMPDEST PUSH1 0x40 MLOAD PUSH4 0x23B872DD PUSH1 0xE0 SHL PUSH1 0x20 DUP3 ADD MSTORE PUSH1 0x1 PUSH1 0x1 PUSH1 0xA0 SHL SUB SWAP3 DUP4 AND PUSH1 0x24 DUP3 ADD MSTORE SWAP3 SWAP1 SWAP2 AND PUSH1 0x44 DUP4 ADD MSTORE PUSH1 0x64 DUP1 DUP4 ADD SWAP4 SWAP1 SWAP4 MSTORE SWAP2 DUP2 MSTORE PUSH1 0xA0 DUP2 ADD SWAP2 DUP2 DUP4 LT PUSH8 0xFFFFFFFFFFFFFFFF DUP5 GT OR PUSH2 0x1B08 JUMPI PUSH2 0x2E19 SWAP3 PUSH1 0x40 MSTORE PUSH2 0x2F78 JUMP JUMPDEST JUMP JUMPDEST PUSH1 0x40 MLOAD PUSH4 0xA9059CBB PUSH1 0xE0 SHL PUSH1 0x20 DUP3 ADD MSTORE PUSH1 0x1 PUSH1 0x1 PUSH1 0xA0 SHL SUB SWAP1 SWAP3 AND PUSH1 0x24 DUP4 ADD MSTORE PUSH1 0x44 DUP1 DUP4 ADD SWAP4 SWAP1 SWAP4 MSTORE SWAP2 DUP2 MSTORE PUSH2 0x2E19 SWAP2 PUSH2 0x2E54 DUP3 PUSH2 0x1B3B JUMP JUMPDEST PUSH2 0x2F78 JUMP JUMPDEST ISZERO PUSH2 0x2E60 JUMPI JUMP JUMPDEST PUSH1 0x40 MLOAD PUSH3 0x461BCD PUSH1 0xE5 SHL DUP2 MSTORE PUSH1 0x20 PUSH1 0x4 DUP3 ADD MSTORE PUSH1 0x9 PUSH1 0x24 DUP3 ADD MSTORE PUSH9 0x2132B637BB9036B4B7 PUSH1 0xB9 SHL PUSH1 0x44 DUP3 ADD MSTORE PUSH1 0x64 SWAP1 REVERT JUMPDEST DUP1 SLOAD PUSH9 0x10000000000000000 DUP2 LT ISZERO PUSH2 0x1B08 JUMPI PUSH2 0x2EB3 SWAP2 PUSH1 0x1 DUP3 ADD DUP2 SSTORE PUSH2 0x24DF JUMP JUMPDEST PUSH1 0x1 DUP1 PUSH1 0xA0 SWAP5 SWAP4 SWAP5 SHL SUB DUP1 DUP5 SLOAD SWAP3 PUSH1 0x3 SHL SWAP4 AND DUP4 SHL SWAP3 SHL NOT AND OR SWAP1 SSTORE JUMP JUMPDEST PUSH1 0xD SLOAD SWAP1 DUP2 PUSH1 0x0 MSTORE PUSH1 0x15 PUSH1 0x20 MSTORE PUSH1 0x40 PUSH1 0x0 KECCAK256 SWAP1 DUP2 SLOAD SWAP1 DUP2 ISZERO PUSH2 0x2F6F JUMPI PUSH1 0x12 DUP2 ADD SLOAD BLOCKHASH SWAP1 DUP2 ISZERO PUSH2 0x2F58 JUMPI JUMPDEST SWAP4 PUSH1 0x15 PUSH2 0x2F43 SWAP6 ADD SLOAD PUSH1 0x40 MLOAD SWAP2 PUSH1 0x20 DUP4 ADD SWAP4 DUP5 MSTORE PUSH1 0x40 DUP4 ADD MSTORE PUSH12 0xFFFFFFFFFFFFFFFFFFFFFFFF NOT SWAP1 PUSH1 0x60 SHL AND PUSH1 0x60 DUP3 ADD MSTORE PUSH1 0x54 DUP2 MSTORE PUSH2 0x2F39 DUP2 PUSH2 0x1B3B JUMP JUMPDEST MLOAD SWAP1 KECCAK256 MOD SWAP1 PUSH2 0x24DF JUMP JUMPDEST SWAP1 SLOAD PUSH1 0x3 SWAP2 SWAP1 SWAP2 SHL SHR PUSH1 0x1 PUSH1 0x1 PUSH1 0xA0 SHL SUB AND SWAP1 JUMP JUMPDEST SWAP1 POP PUSH1 0x0 NOT NUMBER ADD SWAP4 NUMBER DUP6 GT PUSH2 0x1C90 JUMPI SWAP4 BLOCKHASH SWAP1 PUSH2 0x2EFB JUMP JUMPDEST POP POP POP POP PUSH1 0x0 SWAP1 JUMP JUMPDEST SWAP1 PUSH1 0x0 PUSH1 0x20 SWAP2 DUP3 DUP2 MLOAD SWAP2 ADD DUP3 DUP6 GAS CALL ISZERO PUSH2 0x2FD4 JUMPI PUSH1 0x0 MLOAD RETURNDATASIZE PUSH2 0x2FCB JUMPI POP PUSH1 0x1 PUSH1 0x1 PUSH1 0xA0 SHL SUB DUP2 AND EXTCODESIZE ISZERO JUMPDEST PUSH2 0x2FA9 JUMPI POP JUMP JUMPDEST PUSH1 0x40 MLOAD PUSH4 0x5274AFE7 PUSH1 0xE0 SHL DUP2 MSTORE PUSH1 0x1 PUSH1 0x1 PUSH1 0xA0 SHL SUB SWAP1 SWAP2 AND PUSH1 0x4 DUP3 ADD MSTORE PUSH1 0x24 SWAP1 REVERT JUMPDEST PUSH1 0x1 EQ ISZERO PUSH2 0x2FA2 JUMP JUMPDEST PUSH1 0x40 MLOAD RETURNDATASIZE PUSH1 0x0 DUP3 RETURNDATACOPY RETURNDATASIZE SWAP1 REVERT INVALID 0xD7 SELFBALANCE COINBASE PUSH7 0xE78731BC168CAC LOG1 INVALID SHR 0xCE 0xBB 0xD6 RETURN 0xC9 JUMPDEST 0xAE 0xE6 BLOBHASH SWAP8 SWAP1 0x2E PUSH12 0x48F442B81AA2646970667358 0x22 SLT KECCAK256 EXTCODECOPY 0xCF SGT 0xE1 PUSH4 0xA98C2399 0x29 KECCAK256 SWAP1 DUP2 NOT RETURNDATACOPY SWAP7 0xB1 EXTCODESIZE PUSH3 0xFFCD78 SWAP9 BLOBBASEFEE 0xAD MOD AND 0x4B DUP6 0xCC SWAP6 0xE1 PUSH5 0x736F6C6343 STOP ADDMOD XOR STOP CALLER "},"methodIdentifiers":{"BPS()":"249d39e9","DEAD()":"03fd2a45","chickenHolder()":"f553a20d","currentMinGrab()":"cb4e24ed","currentRound()":"8a19c8bc","depositSeed(uint256)":"7aed11c1","deposits(uint256,address)":"53a58de1","emergencyPause()":"51858e27","emergencySettle()":"06fe8766","emergencyUnpause()":"4a4e3bd5","emergencyWithdraw()":"db2e21bc","eshare()":"f5075ee8","feeRecipient()":"46904840","getConfig()":"c3f909d4","getCurrentRound()":"a32bf597","getGlobalStats()":"6b4169c3","getParticipants(uint256)":"c1e3bd3e","getPlayerRound(uint256,address)":"497c7e0f","getPlayerStats(address)":"4fd66eae","getRoundConfig(uint256)":"cba0b841","getRoundInfo(uint256)":"88c3ffb0","getSeedVaultInfo()":"7d3cb76d","getTimeLeft()":"c7e284b8","grabChicken(uint256)":"f13c8a99","grabCount(uint256,address)":"71a588a5","hotZoneDeposits(uint256,address)":"6af24a86","needsSettle()":"0aa7813f","nextConfig()":"64e9f671","owner()":"8da5cb5b","paused()":"5c975abb","pendingLottoRollover()":"9653af2b","playerStats(address)":"cdafbbb6","renounceOwnership()":"715018a6","roundActive()":"027471b0","roundEndBlock()":"01feb02c","roundSeedAmount()":"a9ee72a3","rounds(uint256)":"8c65c81f","seedVault()":"3e958959","setBaseTimerBlocks(uint256)":"7f8a1408","setBurnBps(uint256)":"addc831e","setEscalationBps(uint256)":"e0bcfddb","setFeeRecipient(address)":"e74b981b","setHotZoneBlocks(uint256)":"9fc98444","setHotZoneBonusBps(uint256)":"dce57519","setLottoBps(uint256)":"d68c3397","setMinGrabCost(uint256)":"42bae31f","setOwnerBps(uint256)":"59af99a2","setRoundSeedAmount(uint256)":"ba80aa9c","setTimerDecayBps(uint256)":"dd4ac1b0","setTimerFloorBlocks(uint256)":"e9f2a71f","totalBurned()":"d89135cd","totalLottoPaid()":"bf5e5a30","totalOwnerRevenue()":"b75bbd9b","totalRounds()":"8a568299","totalSeeded()":"0c5259bc","totalVolume()":"5f81a57c","transferOwnership(address)":"f2fde38b"}}}}}