{"contracts/HotChicken.sol":{"HotChicken":{"abi":[{"inputs":[{"internalType":"address","name":"_eshare","type":"address"}],"stateMutability":"nonpayable","type":"constructor"},{"inputs":[{"internalType":"address","name":"owner","type":"address"}],"name":"OwnableInvalidOwner","type":"error"},{"inputs":[{"internalType":"address","name":"account","type":"address"}],"name":"OwnableUnauthorizedAccount","type":"error"},{"inputs":[],"name":"ReentrancyGuardReentrantCall","type":"error"},{"inputs":[{"internalType":"address","name":"token","type":"address"}],"name":"SafeERC20FailedOperation","type":"error"},{"anonymous":false,"inputs":[{"indexed":true,"internalType":"uint256","name":"round","type":"uint256"},{"indexed":true,"internalType":"address","name":"from","type":"address"},{"indexed":true,"internalType":"address","name":"to","type":"address"},{"indexed":false,"internalType":"uint256","name":"amount","type":"uint256"},{"indexed":false,"internalType":"uint256","name":"pot","type":"uint256"},{"indexed":false,"internalType":"uint256","name":"nextMinGrab","type":"uint256"},{"indexed":false,"internalType":"uint256","name":"blocksLeft","type":"uint256"},{"indexed":false,"internalType":"bool","name":"isHotZone","type":"bool"}],"name":"ChickenGrabbed","type":"event"},{"anonymous":false,"inputs":[{"indexed":false,"internalType":"string","name":"param","type":"string"},{"indexed":false,"internalType":"uint256","name":"oldVal","type":"uint256"},{"indexed":false,"internalType":"uint256","name":"newVal","type":"uint256"}],"name":"ConfigUpdated","type":"event"},{"anonymous":false,"inputs":[{"indexed":true,"internalType":"uint256","name":"round","type":"uint256"}],"name":"EmergencySettle","type":"event"},{"anonymous":false,"inputs":[{"indexed":false,"internalType":"uint256","name":"amount","type":"uint256"}],"name":"EmergencyWithdraw","type":"event"},{"anonymous":false,"inputs":[{"indexed":true,"internalType":"address","name":"oldAddr","type":"address"},{"indexed":true,"internalType":"address","name":"newAddr","type":"address"}],"name":"FeeRecipientUpdated","type":"event"},{"anonymous":false,"inputs":[{"indexed":true,"internalType":"uint256","name":"round","type":"uint256"},{"indexed":false,"internalType":"uint256","name":"blocksLeft","type":"uint256"}],"name":"HotZoneEntered","type":"event"},{"anonymous":false,"inputs":[{"indexed":true,"internalType":"uint256","name":"round","type":"uint256"},{"indexed":true,"internalType":"address","name":"loser","type":"address"},{"indexed":false,"internalType":"uint256","name":"seedAmount","type":"uint256"},{"indexed":false,"internalType":"uint256","name":"consolationPaid","type":"uint256"},{"indexed":false,"internalType":"uint256","name":"loserDeposits","type":"uint256"},{"indexed":false,"internalType":"int256","name":"netResult","type":"int256"}],"name":"LoserConsolation","type":"event"},{"anonymous":false,"inputs":[{"indexed":true,"internalType":"uint256","name":"round","type":"uint256"},{"indexed":false,"internalType":"uint256","name":"amount","type":"uint256"}],"name":"LottoRolledOver","type":"event"},{"anonymous":false,"inputs":[{"indexed":true,"internalType":"address","name":"previousOwner","type":"address"},{"indexed":true,"internalType":"address","name":"newOwner","type":"address"}],"name":"OwnershipTransferred","type":"event"},{"anonymous":false,"inputs":[{"indexed":true,"internalType":"address","name":"by","type":"address"}],"name":"Paused","type":"event"},{"anonymous":false,"inputs":[{"indexed":true,"internalType":"uint256","name":"round","type":"uint256"},{"indexed":false,"internalType":"uint256","name":"pot","type":"uint256"},{"indexed":false,"internalType":"string","name":"reason","type":"string"}],"name":"RoundRolledOver","type":"event"},{"anonymous":false,"inputs":[{"indexed":true,"internalType":"uint256","name":"round","type":"uint256"},{"indexed":true,"internalType":"address","name":"loser","type":"address"},{"indexed":false,"internalType":"uint256","name":"loserDeposits","type":"uint256"},{"indexed":false,"internalType":"uint256","name":"burned","type":"uint256"},{"indexed":false,"internalType":"uint256","name":"ownerFee","type":"uint256"},{"indexed":false,"internalType":"uint256","name":"lottoPrize","type":"uint256"},{"indexed":true,"internalType":"address","name":"lottoWinner","type":"address"},{"indexed":false,"internalType":"uint256","name":"hzBonusPool","type":"uint256"},{"indexed":false,"internalType":"uint256","name":"mainPool","type":"uint256"},{"indexed":false,"internalType":"uint256","name":"participants","type":"uint256"}],"name":"RoundSettled","type":"event"},{"anonymous":false,"inputs":[{"indexed":true,"internalType":"uint256","name":"round","type":"uint256"},{"indexed":true,"internalType":"address","name":"starter","type":"address"},{"indexed":false,"internalType":"uint256","name":"grabAmount","type":"uint256"},{"indexed":false,"internalType":"uint256","name":"pot","type":"uint256"},{"indexed":false,"internalType":"uint256","name":"endBlock","type":"uint256"}],"name":"RoundStarted","type":"event"},{"anonymous":false,"inputs":[{"indexed":true,"internalType":"uint256","name":"round","type":"uint256"},{"indexed":false,"internalType":"uint256","name":"amount","type":"uint256"}],"name":"SeedDeposited","type":"event"},{"anonymous":false,"inputs":[{"indexed":true,"internalType":"address","name":"by","type":"address"}],"name":"Unpaused","type":"event"},{"anonymous":false,"inputs":[{"indexed":true,"internalType":"uint256","name":"round","type":"uint256"},{"indexed":true,"internalType":"address","name":"winner","type":"address"},{"indexed":false,"internalType":"uint256","name":"depositReturned","type":"uint256"},{"indexed":false,"internalType":"uint256","name":"mainShare","type":"uint256"},{"indexed":false,"internalType":"uint256","name":"hzBonus","type":"uint256"},{"indexed":false,"internalType":"uint256","name":"total","type":"uint256"}],"name":"WinnerPaid","type":"event"},{"inputs":[],"name":"BPS","outputs":[{"internalType":"uint256","name":"","type":"uint256"}],"stateMutability":"view","type":"function"},{"inputs":[],"name":"DEAD","outputs":[{"internalType":"address","name":"","type":"address"}],"stateMutability":"view","type":"function"},{"inputs":[],"name":"chickenHolder","outputs":[{"internalType":"address","name":"","type":"address"}],"stateMutability":"view","type":"function"},{"inputs":[],"name":"currentMinGrab","outputs":[{"internalType":"uint256","name":"","type":"uint256"}],"stateMutability":"view","type":"function"},{"inputs":[],"name":"currentRound","outputs":[{"internalType":"uint256","name":"","type":"uint256"}],"stateMutability":"view","type":"function"},{"inputs":[{"internalType":"uint256","name":"amount","type":"uint256"}],"name":"depositSeed","outputs":[],"stateMutability":"nonpayable","type":"function"},{"inputs":[{"internalType":"uint256","name":"","type":"uint256"},{"internalType":"address","name":"","type":"address"}],"name":"deposits","outputs":[{"internalType":"uint256","name":"","type":"uint256"}],"stateMutability":"view","type":"function"},{"inputs":[],"name":"emergencyPause","outputs":[],"stateMutability":"nonpayable","type":"function"},{"inputs":[],"name":"emergencySettle","outputs":[],"stateMutability":"nonpayable","type":"function"},{"inputs":[],"name":"emergencyUnpause","outputs":[],"stateMutability":"nonpayable","type":"function"},{"inputs":[],"name":"emergencyWithdraw","outputs":[],"stateMutability":"nonpayable","type":"function"},{"inputs":[],"name":"eshare","outputs":[{"internalType":"contract IERC20","name":"","type":"address"}],"stateMutability":"view","type":"function"},{"inputs":[],"name":"feeRecipient","outputs":[{"internalType":"address","name":"","type":"address"}],"stateMutability":"view","type":"function"},{"inputs":[],"name":"getConfig","outputs":[{"components":[{"internalType":"uint256","name":"baseTimerBlocks","type":"uint256"},{"internalType":"uint256","name":"timerDecayBps","type":"uint256"},{"internalType":"uint256","name":"timerFloorBlocks","type":"uint256"},{"internalType":"uint256","name":"escalationBps","type":"uint256"},{"internalType":"uint256","name":"minGrabCost","type":"uint256"},{"internalType":"uint256","name":"burnBps","type":"uint256"},{"internalType":"uint256","name":"ownerBps","type":"uint256"},{"internalType":"uint256","name":"lottoPerGrabBps","type":"uint256"},{"internalType":"uint256","name":"lottoMaxBps","type":"uint256"},{"internalType":"uint256","name":"hotZoneBlocks","type":"uint256"},{"internalType":"uint256","name":"hotZoneBonusBps","type":"uint256"}],"internalType":"struct HotChicken.Config","name":"","type":"tuple"}],"stateMutability":"view","type":"function"},{"inputs":[],"name":"getCurrentRound","outputs":[{"internalType":"uint256","name":"round","type":"uint256"},{"internalType":"uint256","name":"pot","type":"uint256"},{"internalType":"address","name":"holder","type":"address"},{"internalType":"uint256","name":"minGrab","type":"uint256"},{"internalType":"uint256","name":"blocksLeft","type":"uint256"},{"internalType":"uint256","name":"participants","type":"uint256"},{"internalType":"uint256","name":"grabs","type":"uint256"},{"internalType":"bool","name":"isHotZone","type":"bool"},{"internalType":"uint256","name":"hzDeposits","type":"uint256"}],"stateMutability":"view","type":"function"},{"inputs":[],"name":"getGlobalStats","outputs":[{"internalType":"uint256","name":"rounds_","type":"uint256"},{"internalType":"uint256","name":"burned","type":"uint256"},{"internalType":"uint256","name":"lottoPaid","type":"uint256"},{"internalType":"uint256","name":"ownerRev","type":"uint256"},{"internalType":"uint256","name":"volume","type":"uint256"},{"internalType":"bool","name":"active","type":"bool"}],"stateMutability":"view","type":"function"},{"inputs":[{"internalType":"uint256","name":"round","type":"uint256"}],"name":"getParticipants","outputs":[{"internalType":"address[]","name":"","type":"address[]"}],"stateMutability":"view","type":"function"},{"inputs":[{"internalType":"uint256","name":"round","type":"uint256"},{"internalType":"address","name":"player","type":"address"}],"name":"getPlayerRound","outputs":[{"internalType":"uint256","name":"deps","type":"uint256"},{"internalType":"uint256","name":"hzDeps","type":"uint256"},{"internalType":"uint256","name":"grabs","type":"uint256"},{"internalType":"bool","name":"isLoser","type":"bool"}],"stateMutability":"view","type":"function"},{"inputs":[{"internalType":"address","name":"player","type":"address"}],"name":"getPlayerStats","outputs":[{"components":[{"internalType":"uint256","name":"roundsPlayed","type":"uint256"},{"internalType":"uint256","name":"roundsWon","type":"uint256"},{"internalType":"uint256","name":"roundsLost","type":"uint256"},{"internalType":"uint256","name":"totalDeposited","type":"uint256"},{"internalType":"uint256","name":"totalWon","type":"uint256"},{"internalType":"uint256","name":"totalLost","type":"uint256"},{"internalType":"uint256","name":"lottoWins","type":"uint256"},{"internalType":"uint256","name":"lottoWinnings","type":"uint256"},{"internalType":"uint256","name":"totalGrabs","type":"uint256"}],"internalType":"struct HotChicken.PlayerStats","name":"","type":"tuple"}],"stateMutability":"view","type":"function"},{"inputs":[{"internalType":"uint256","name":"round","type":"uint256"}],"name":"getRoundConfig","outputs":[{"components":[{"internalType":"uint256","name":"baseTimerBlocks","type":"uint256"},{"internalType":"uint256","name":"timerDecayBps","type":"uint256"},{"internalType":"uint256","name":"timerFloorBlocks","type":"uint256"},{"internalType":"uint256","name":"escalationBps","type":"uint256"},{"internalType":"uint256","name":"minGrabCost","type":"uint256"},{"internalType":"uint256","name":"burnBps","type":"uint256"},{"internalType":"uint256","name":"ownerBps","type":"uint256"},{"internalType":"uint256","name":"lottoPerGrabBps","type":"uint256"},{"internalType":"uint256","name":"lottoMaxBps","type":"uint256"},{"internalType":"uint256","name":"hotZoneBlocks","type":"uint256"},{"internalType":"uint256","name":"hotZoneBonusBps","type":"uint256"}],"internalType":"struct HotChicken.Config","name":"","type":"tuple"}],"stateMutability":"view","type":"function"},{"inputs":[{"internalType":"uint256","name":"round","type":"uint256"}],"name":"getRoundInfo","outputs":[{"internalType":"uint256","name":"pot","type":"uint256"},{"internalType":"uint256","name":"seed","type":"uint256"},{"internalType":"uint256","name":"playerDeps","type":"uint256"},{"internalType":"uint256","name":"hzDeps","type":"uint256"},{"internalType":"address","name":"loser","type":"address"},{"internalType":"uint256","name":"loserDeps","type":"uint256"},{"internalType":"bool","name":"settled","type":"bool"},{"internalType":"uint256","name":"burned","type":"uint256"},{"internalType":"uint256","name":"lottoPrize","type":"uint256"},{"internalType":"address","name":"lottoWinner","type":"address"},{"internalType":"uint256","name":"hzBonus","type":"uint256"},{"internalType":"uint256","name":"mainPool","type":"uint256"}],"stateMutability":"view","type":"function"},{"inputs":[],"name":"getTimeLeft","outputs":[{"internalType":"uint256","name":"blocks","type":"uint256"},{"internalType":"uint256","name":"secs","type":"uint256"},{"internalType":"bool","name":"isHZ","type":"bool"}],"stateMutability":"view","type":"function"},{"inputs":[{"internalType":"uint256","name":"amount","type":"uint256"}],"name":"grabChicken","outputs":[],"stateMutability":"nonpayable","type":"function"},{"inputs":[{"internalType":"uint256","name":"","type":"uint256"},{"internalType":"address","name":"","type":"address"}],"name":"grabCount","outputs":[{"internalType":"uint256","name":"","type":"uint256"}],"stateMutability":"view","type":"function"},{"inputs":[{"internalType":"uint256","name":"","type":"uint256"},{"internalType":"address","name":"","type":"address"}],"name":"hotZoneDeposits","outputs":[{"internalType":"uint256","name":"","type":"uint256"}],"stateMutability":"view","type":"function"},{"inputs":[],"name":"needsSettle","outputs":[{"internalType":"bool","name":"","type":"bool"}],"stateMutability":"view","type":"function"},{"inputs":[],"name":"nextConfig","outputs":[{"internalType":"uint256","name":"baseTimerBlocks","type":"uint256"},{"internalType":"uint256","name":"timerDecayBps","type":"uint256"},{"internalType":"uint256","name":"timerFloorBlocks","type":"uint256"},{"internalType":"uint256","name":"escalationBps","type":"uint256"},{"internalType":"uint256","name":"minGrabCost","type":"uint256"},{"internalType":"uint256","name":"burnBps","type":"uint256"},{"internalType":"uint256","name":"ownerBps","type":"uint256"},{"internalType":"uint256","name":"lottoPerGrabBps","type":"uint256"},{"internalType":"uint256","name":"lottoMaxBps","type":"uint256"},{"internalType":"uint256","name":"hotZoneBlocks","type":"uint256"},{"internalType":"uint256","name":"hotZoneBonusBps","type":"uint256"}],"stateMutability":"view","type":"function"},{"inputs":[],"name":"owner","outputs":[{"internalType":"address","name":"","type":"address"}],"stateMutability":"view","type":"function"},{"inputs":[],"name":"paused","outputs":[{"internalType":"bool","name":"","type":"bool"}],"stateMutability":"view","type":"function"},{"inputs":[],"name":"pendingLottoRollover","outputs":[{"internalType":"uint256","name":"","type":"uint256"}],"stateMutability":"view","type":"function"},{"inputs":[],"name":"pendingSeed","outputs":[{"internalType":"uint256","name":"","type":"uint256"}],"stateMutability":"view","type":"function"},{"inputs":[{"internalType":"address","name":"","type":"address"}],"name":"playerStats","outputs":[{"internalType":"uint256","name":"roundsPlayed","type":"uint256"},{"internalType":"uint256","name":"roundsWon","type":"uint256"},{"internalType":"uint256","name":"roundsLost","type":"uint256"},{"internalType":"uint256","name":"totalDeposited","type":"uint256"},{"internalType":"uint256","name":"totalWon","type":"uint256"},{"internalType":"uint256","name":"totalLost","type":"uint256"},{"internalType":"uint256","name":"lottoWins","type":"uint256"},{"internalType":"uint256","name":"lottoWinnings","type":"uint256"},{"internalType":"uint256","name":"totalGrabs","type":"uint256"}],"stateMutability":"view","type":"function"},{"inputs":[],"name":"renounceOwnership","outputs":[],"stateMutability":"nonpayable","type":"function"},{"inputs":[],"name":"roundActive","outputs":[{"internalType":"bool","name":"","type":"bool"}],"stateMutability":"view","type":"function"},{"inputs":[],"name":"roundEndBlock","outputs":[{"internalType":"uint256","name":"","type":"uint256"}],"stateMutability":"view","type":"function"},{"inputs":[{"internalType":"uint256","name":"","type":"uint256"}],"name":"rounds","outputs":[{"components":[{"internalType":"uint256","name":"baseTimerBlocks","type":"uint256"},{"internalType":"uint256","name":"timerDecayBps","type":"uint256"},{"internalType":"uint256","name":"timerFloorBlocks","type":"uint256"},{"internalType":"uint256","name":"escalationBps","type":"uint256"},{"internalType":"uint256","name":"minGrabCost","type":"uint256"},{"internalType":"uint256","name":"burnBps","type":"uint256"},{"internalType":"uint256","name":"ownerBps","type":"uint256"},{"internalType":"uint256","name":"lottoPerGrabBps","type":"uint256"},{"internalType":"uint256","name":"lottoMaxBps","type":"uint256"},{"internalType":"uint256","name":"hotZoneBlocks","type":"uint256"},{"internalType":"uint256","name":"hotZoneBonusBps","type":"uint256"}],"internalType":"struct HotChicken.Config","name":"config","type":"tuple"},{"internalType":"uint256","name":"pot","type":"uint256"},{"internalType":"uint256","name":"seed","type":"uint256"},{"internalType":"uint256","name":"playerDeposits","type":"uint256"},{"internalType":"uint256","name":"hotZoneDeposits","type":"uint256"},{"internalType":"uint256","name":"startBlock","type":"uint256"},{"internalType":"uint256","name":"endBlock","type":"uint256"},{"internalType":"uint256","name":"startTimestamp","type":"uint256"},{"internalType":"uint256","name":"endTimestamp","type":"uint256"},{"internalType":"uint256","name":"lastGrabBlock","type":"uint256"},{"internalType":"uint256","name":"totalGrabs","type":"uint256"},{"internalType":"uint256","name":"participantCount","type":"uint256"},{"internalType":"address","name":"loser","type":"address"},{"internalType":"uint256","name":"loserDeposits","type":"uint256"},{"internalType":"uint256","name":"loserHZDeposits","type":"uint256"},{"internalType":"uint256","name":"loserConsolation","type":"uint256"},{"internalType":"bool","name":"settled","type":"bool"},{"internalType":"uint256","name":"burnedAmount","type":"uint256"},{"internalType":"uint256","name":"ownerAmount","type":"uint256"},{"internalType":"uint256","name":"actualLottoPot","type":"uint256"},{"internalType":"uint256","name":"hotZoneBonusPool","type":"uint256"},{"internalType":"uint256","name":"mainPool","type":"uint256"},{"internalType":"address","name":"lottoWinner","type":"address"}],"stateMutability":"view","type":"function"},{"inputs":[{"internalType":"uint256","name":"val","type":"uint256"}],"name":"setBaseTimerBlocks","outputs":[],"stateMutability":"nonpayable","type":"function"},{"inputs":[{"internalType":"uint256","name":"val","type":"uint256"}],"name":"setBurnBps","outputs":[],"stateMutability":"nonpayable","type":"function"},{"inputs":[{"internalType":"uint256","name":"val","type":"uint256"}],"name":"setEscalationBps","outputs":[],"stateMutability":"nonpayable","type":"function"},{"inputs":[{"internalType":"address","name":"addr","type":"address"}],"name":"setFeeRecipient","outputs":[],"stateMutability":"nonpayable","type":"function"},{"inputs":[{"internalType":"uint256","name":"val","type":"uint256"}],"name":"setHotZoneBlocks","outputs":[],"stateMutability":"nonpayable","type":"function"},{"inputs":[{"internalType":"uint256","name":"val","type":"uint256"}],"name":"setHotZoneBonusBps","outputs":[],"stateMutability":"nonpayable","type":"function"},{"inputs":[{"internalType":"uint256","name":"val","type":"uint256"}],"name":"setLottoMaxBps","outputs":[],"stateMutability":"nonpayable","type":"function"},{"inputs":[{"internalType":"uint256","name":"val","type":"uint256"}],"name":"setLottoPerGrabBps","outputs":[],"stateMutability":"nonpayable","type":"function"},{"inputs":[{"internalType":"uint256","name":"val","type":"uint256"}],"name":"setMinGrabCost","outputs":[],"stateMutability":"nonpayable","type":"function"},{"inputs":[{"internalType":"uint256","name":"val","type":"uint256"}],"name":"setOwnerBps","outputs":[],"stateMutability":"nonpayable","type":"function"},{"inputs":[{"internalType":"uint256","name":"val","type":"uint256"}],"name":"setTimerDecayBps","outputs":[],"stateMutability":"nonpayable","type":"function"},{"inputs":[{"internalType":"uint256","name":"val","type":"uint256"}],"name":"setTimerFloorBlocks","outputs":[],"stateMutability":"nonpayable","type":"function"},{"inputs":[],"name":"totalBurned","outputs":[{"internalType":"uint256","name":"","type":"uint256"}],"stateMutability":"view","type":"function"},{"inputs":[],"name":"totalLottoPaid","outputs":[{"internalType":"uint256","name":"","type":"uint256"}],"stateMutability":"view","type":"function"},{"inputs":[],"name":"totalOwnerRevenue","outputs":[{"internalType":"uint256","name":"","type":"uint256"}],"stateMutability":"view","type":"function"},{"inputs":[],"name":"totalRounds","outputs":[{"internalType":"uint256","name":"","type":"uint256"}],"stateMutability":"view","type":"function"},{"inputs":[],"name":"totalVolume","outputs":[{"internalType":"uint256","name":"","type":"uint256"}],"stateMutability":"view","type":"function"},{"inputs":[{"internalType":"address","name":"newOwner","type":"address"}],"name":"transferOwnership","outputs":[],"stateMutability":"nonpayable","type":"function"}],"evm":{"bytecode":{"linkReferences":{},"object":"60a03462000211576001600160401b0390601f6200327c38819003918201601f1916830192919084841183851017620002165781602092849260409687528339810103126200021157516001600160a01b03808216939184900362000211573315620001f95760009384549160018060a01b031992338482161787558551913391167f8be0079c531659141344cd1fd0a4f28419497f9722a3daafe3b4186f6b6457e08880a3600180558115620001c757506080523390600d541617600d5581519061016082019082821090821117620001b3579061014091835261a8c0808252612328806020840152608285840152612af880606085015267016345785d8a0000918260808601526101f4938460a0870152606460c0870152603260e0870152610190958661010082015260966101208201526103e89788910152600255600355608260045560055560065560075560646008556032600955600a556096600b55600c555161304f90816200022d82396080518181816102dc015281816108c40152818161124b01528181611e5e015281816121570152818161292201528181612b7a01528181612c2e0152612c970152f35b634e487b7160e01b84526041600452602484fd5b62461bcd60e51b815260206004820152600d60248201526c24b73b30b634b2103a37b5b2b760991b6044820152606490fd5b8251631e4fbdf760e01b815260006004820152602490fd5b600080fd5b634e487b7160e01b600052604160045260246000fdfe6101e0806040526004908136101561001657600080fd5b60009160e08335811c92836301feb02c14611a5c57508263027471b014611a3957826303fd2a4514611a1c57826306fe8766146119875782630aa7813f14611951578263249d39e91461193457826342bae31f14611876578263469048401461184d578263497c7e0f146117b95782634a4e3bd51461176d5782634fd66eae1461164e57826351858e27146115fe57826353a58de1146115b957826359af99a2146115495782635c975abb146115235782635f81a57c1461150557826364e9f6711461148a5782636af24a86146114455782636b4169c3146113f8578263715018a61461139e57826371a588a5146113595782637aed11c11461121a5782637f8a14081461116457826388c3ffb0146110ab5782638a19c8bc1461108d5782638a5682991461106f5782638c65c81f14610e9d5782638da5cb5b14610e765782639653af2b14610e585782639fc9844414610da4578263a32bf59714610d40578263addc831e14610ca5578263b75bbd9b14610c87578263bf5e5a3014610c69578263c1e3bd3e14610bb7578263c3f909d414610b27578263c7e284b814610af7578263cb4e24ed14610ad9578263cba0b84114610a96578263cdafbbb614610a0157508163d89135cd146109e3578163db2e21bc14610872578163dbb4998d146107ff578163dce575191461075c578163dd4ac1b0146106a8578163dd78c96814610607578163e0bcfddb14610551578163e74b981b146104af578163e9f2a71f146103fc578163f13c8a9914610396578163f2fde38b1461030b57508063f5075ee8146102c6578063f553a20d146102995763f8ed217b1461027957600080fd5b346102965780600319360112610296576020601254604051908152f35b80fd5b5034610296578060031936011261029657600f5460405160109190911c6001600160a01b03168152602090f35b50346102965780600319360112610296576040517f00000000000000000000000000000000000000000000000000000000000000006001600160a01b03168152602090f35b90503461039257602036600319011261039257610326611a93565b61032e6123de565b6001600160a01b0390811691821561037a575082546001600160a01b0319811683178455167f8be0079c531659141344cd1fd0a4f28419497f9722a3daafe3b4186f6b6457e08380a380f35b604051631e4fbdf760e01b8152908101849052602490fd5b5080fd5b905034610392576020366003190112610392576103b1612e45565b60ff600f5460081c166103cf576103c89035611e12565b6001805580f35b60649060206040519162461bcd60e51b8352820152600660248201526514185d5cd95960d21b6044820152fd5b9050346103925760203660031901126103925780359061041a6123de565b601e821015806104a3575b1561047557600080516020612ffa83398151915260a082546040519060608252601060608301526f74696d6572466c6f6f72426c6f636b7360801b60808301526020820152846040820152a15580f35b60649060206040519162461bcd60e51b8352820152600760248201526618969b1836b4b760c91b6044820152fd5b50610708821115610425565b905034610392576020366003190112610392576104ca611a93565b6104d26123de565b6001600160a01b03908116918215610521575081600d549182167faaebcf1bfa00580e41d966056b48521fa9f202645c86d4ddf28113e617c1b1d38580a36001600160a01b03191617600d5580f35b60649060206040519162461bcd60e51b835282015260096024820152682d32b9379030b2323960b91b6044820152fd5b9050346103925760203660031901126103925780359061056f6123de565b612774821015806105fb575b156105cc5750600080516020612ffa83398151915260a06005546040519060608252600d60608301526c657363616c6174696f6e42707360981b60808301526020820152836040820152a160055580f35b60649060206040519162461bcd60e51b835282015260086024820152673130312d3135302560c01b6044820152fd5b50613a9882111561057b565b905034610392576020366003190112610392578035906106256123de565b6064821161067b5750600080516020612ffa83398151915260a06009546040519060608252600f60608301526e6c6f74746f5065724772616242707360881b60808301526020820152836040820152a160095580f35b60649060206040519162461bcd60e51b835282015260066024820152654d617820312560d01b6044820152fd5b905034610392576020366003190112610392578035906106c66123de565b61138882101580610750575b156107235750600080516020612ffa83398151915260a06003546040519060608252600d60608301526c74696d6572446563617942707360981b60808301526020820152836040820152a160035580f35b60649060206040519162461bcd60e51b8352820152600660248201526535302d39352560d01b6044820152fd5b5061251c8211156106d2565b9050346103925760203660031901126103925780359061077a6123de565b6107d082116107d15750600080516020612ffa83398151915260a0600c546040519060608252600f60608301526e686f745a6f6e65426f6e757342707360881b60808301526020820152836040820152a1600c5580f35b60649060206040519162461bcd60e51b835282015260076024820152664d61782032302560c81b6044820152fd5b905034610392576020366003190112610392573561081b6123de565b6108296101f4821115611c57565b600080516020612ffa83398151915260a0600a546040519060608252600b60608301526a6c6f74746f4d617842707360a81b60808301526020820152836040820152a1600a5580f35b90503461039257816003193601126103925761088c6123de565b60ff600f5461089f828260081c16611c1e565b166109b0576040516370a0823160e01b815230918101919091526001600160a01b03907f00000000000000000000000000000000000000000000000000000000000000006020826024818685165afa9182156109a557849261094d575b50907f99d7f8b71cfb9126984f7a5eed3a40e64a8959e9b0e442221546fb04ec6a489c928160209381610937575b505050604051908152a180f35b61094592600d541690612ec3565b38818161092a565b91506020823d60201161099d575b8161096860209383611b15565b81010312610999579051907f99d7f8b71cfb9126984f7a5eed3a40e64a8959e9b0e442221546fb04ec6a489c6108fc565b8380fd5b3d915061095b565b6040513d86823e3d90fd5b60649060206040519162461bcd60e51b8352820152600c60248201526b526f756e642061637469766560a01b6044820152fd5b82346102965780600319360112610296576020601a54604051908152f35b915034610a92576020366003190112610a9257610120926040906001600160a01b03610a2b611a93565b168152601e602052208054926001820154926002830154906003840154908401546005850154916006860154936008600788015497015497604051998a5260208a015260408901526060880152608087015260a086015260c0850152830152610100820152f35b8280fd5b83823461039257602036600319011261039257604061016092610aca92610abb611d48565b50358152601460205220611b37565b610ad76040518092611bb2565bf35b83346102965780600319360112610296576020601054604051908152f35b83346102965780600319360112610296576060610b12611dae565b90604051928352602083015215156040820152f35b90915034610a925782600319360112610a92576101609250610b47611d48565b5060405191610b5583611adc565b600254835260035460208401525460408301526005546060830152600654608083015260075460a083015260085460c083015260095490820152600a54610100820152600b54610120820152600c54610140820152610ad76040518092611bb2565b8382346103925760209081600319360112610a9257358252601581526040822060405192838383549182815201908193835284832090835b818110610c4c5750505084610c05910385611b15565b60405193838594850191818652518092526040850193925b828110610c2c57505050500390f35b83516001600160a01b031685528695509381019392810192600101610c1d565b82546001600160a01b031684529286019260019283019201610bef565b83346102965780600319360112610296576020601b54604051908152f35b83346102965780600319360112610296576020601c54604051908152f35b83823461039257602036600319011261039257803590610cc36123de565b6103e88211610d125750600080516020612ffa83398151915260a0600754604051906060825260076060830152666275726e42707360c81b60808301526020820152836040820152a160075580f35b60649060206040519162461bcd60e51b835282015260076024820152664d61782031302560c81b6044820152fd5b83903461039257816003193601126103925761012090610d5e611cbc565b979896604096919695929594939451998a5260208a015260018060a01b031660408901526060880152608087015260a086015260c0850152151590830152610100820152f35b83823461039257602036600319011261039257803590610dc26123de565b601e82101580610e4c575b15610e1e5750600080516020612ffa83398151915260a0600b546040519060608252600d60608301526c686f745a6f6e65426c6f636b7360981b60808301526020820152836040820152a1600b5580f35b60649060206040519162461bcd60e51b835282015260076024820152661896999836b4b760c91b6044820152fd5b50610384821115610dcd565b83346102965780600319360112610296576020601354604051908152f35b8334610296578060031936011261029657546040516001600160a01b039091168152602090f35b83823461039257602036600319011261039257906040913581526014602052206101c052610ecd6101c051611b37565b6101c051600b81015461010052600c81015461014052600d810154600e820154600f83015460108401546011850154601286015460138701546014880154601589015460168a015460178b015460188c015460198d0154601a8e015460ff16608052601b8e015460c052601c8e01546101a052601d8e015461018052601e8e015461016052601f8e0154610120526020909d01546001600160a01b0390811660e05260405160a08190529d9e919d929c93169a9399949895979594939291610f9491611bb2565b6101005161016060a05101526101405161018060a05101526101a060a05101526101c060a05101526101e060a051015261020060a051015261022060a051015261024060a051015261026060a051015261028060a05101526102a060a05101526102c060a05101526102e060a051015261030060a051015261032060a0510152608051151561034060a051015260c05161036060a05101526101a05161038060a0510152610180516103a060a0510152610160516103c060a0510152610120516103e060a051015260e05161040060a051015261042060a051f35b83346102965780600319360112610296576020601954604051908152f35b83346102965780600319360112610296576020600e54604051908152f35b915034610a92576020366003190112610a92576101809260409135815260146020522090600b82015491600c81015491600d82015490600e83015460018060a01b039182601686015416601786015460ff601a8801541691601b88015494601d8901549660208a01541697601f601e8b01549a01549a6040519c8d5260208d015260408c015260608b015260808a015260a0890152151560c0880152860152610100850152610120840152610140830152610160820152f35b838234610392576020366003190112610392578035906111826123de565b6107088210158061120d575b156111e15750600080516020612ffa83398151915260a06002546040519060608252600f60608301526e6261736554696d6572426c6f636b7360881b60808301526020820152836040820152a160025580f35b60649060206040519162461bcd60e51b835282015260056024820152640c5a0b4dd960da1b6044820152fd5b5062049d4082111561118e565b50823461029657602091826003193601126103925780359061123a612e45565b81156113275750819261126f8230337f0000000000000000000000000000000000000000000000000000000000000000612e68565b600f5460ff16156112ea577fe6a717f59dcc76969ca6f9d6a58041eee35bc5a4cec7eaa1d4201a42e2d43e77919250600e54845260148152600b60408520016112b9848254611c8c565b9055600e54845260148152600c60408520016112d6848254611c8c565b9055600e5492604051908152a26001805580f35b816113187fe6a717f59dcc76969ca6f9d6a58041eee35bc5a4cec7eaa1d4201a42e2d43e7793601254611c8c565b601255604051908152a26103c8565b60405162461bcd60e51b8152908101849052600b60248201526a16995c9bc8185b5bdd5b9d60aa1b6044820152606490fd5b8382346103925760403660031901126103925760209160409161137a611a78565b90358252601884528282206001600160a01b03909116825283522054604051908152f35b83346102965780600319360112610296576113b76123de565b80546001600160a01b03198116825581906001600160a01b03167f8be0079c531659141344cd1fd0a4f28419497f9722a3daafe3b4186f6b6457e08280a380f35b833461029657806003193601126102965760c0601954601a54601b54601c54601d549160ff600f5416936040519586526020860152604085015260608401526080830152151560a0820152f35b83823461039257604036600319011261039257602091604091611466611a78565b90358252601784528282206001600160a01b03909116825283522054604051908152f35b915034610a925782600319360112610a925761016092506002549160035491549060055490600654906007546008549060095493600a5495600b5497600c54996040519b8c5260208c015260408b015260608a0152608089015260a088015260c0870152850152610100840152610120830152610140820152f35b83346102965780600319360112610296576020601d54604051908152f35b8334610296578060031936011261029657602060ff600f5460081c166040519015158152f35b83823461039257602036600319011261039257356115656123de565b6115736101f4821115611c57565b600080516020612ffa83398151915260a0600854604051906060825260086060830152676f776e657242707360c01b60808301526020820152836040820152a160085580f35b838234610392576040366003190112610392576020916040916115da611a78565b90358252601684528282206001600160a01b03909116825283522054604051908152f35b83346102965780600319360112610296576116176123de565b61010061ff0019600f541617600f55337f62e78cea01bee320cd4e420270b5ea74000d11b0c9f74754ebdbfc544b05a2588280a280f35b90915034610a92576020366003190112610a925791610120926040611671611a93565b9281519361167e85611aa9565b81855281602086015281838601528160608601528160808601528160a08601528160c08601528184860152816101008096015260018060a01b03168152601e6020522090604051916116cf83611aa9565b805494858452600182015490602085019182526002830154906040860191825260038401549060608701918252840154906080870191825260058501549260a0880193845260068601549460c089019586528960086007890154988a8c01998a52015499019889526040519a8b525160208b01525160408a01525160608901525160808801525160a08701525160c086015251908401525190820152f35b83346102965780600319360112610296576117866123de565b61ff0019600f5416600f55337f5db9ee0a495bf2e6ff9c91a7834c1ba4fdd244a5e8aa4e537bd38aeae4b073aa8280a280f35b838234610392576040366003190112610392579060809135906117da611a78565b91808252602091601683526040812060018060a01b0380951690818352845260408220549483835260178552604083208284528552601660408085205494868152601888528181208582528852818120549681526014885220015416149260405194855284015260408301526060820152f35b8334610296578060031936011261029657600d546040516001600160a01b039091168152602090f35b838234610392576020366003190112610392578035906118946123de565b66038d7ea4c6800082101580611922575b156118f45750600080516020612ffa83398151915260a06006546040519060608252600b60608301526a1b5a5b91dc985890dbdcdd60aa1b60808301526020820152836040820152a160065580f35b60649060206040519162461bcd60e51b83528201526007602482015266302e3030312d3560c81b6044820152fd5b50674563918244f400008211156118a5565b833461029657806003193601126102965760206040516127108152f35b833461029657806003193601126102965760ff600f54168061197b575b6020906040519015158152f35b5060115443101561196e565b8382346103925781600319360112610392576119a16123de565b60ff600f546119b4828260081c16611c1e565b16156119ed57506119c361247b565b600e547f900e907f9c9b41743f506b7f161368a7ede0785f9e3fea29dea2e6adaf94a3cf8280a280f35b60649060206040519162461bcd60e51b83528201526008602482015267139bc81c9bdd5b9960c21b6044820152fd5b8334610296578060031936011261029657602060405161dead8152f35b8334610296578060031936011261029657602060ff600f54166040519015158152f35b8490346103925781600319360112610392576020906011548152f35b602435906001600160a01b0382168203611a8e57565b600080fd5b600435906001600160a01b0382168203611a8e57565b610120810190811067ffffffffffffffff821117611ac657604052565b634e487b7160e01b600052604160045260246000fd5b610160810190811067ffffffffffffffff821117611ac657604052565b6080810190811067ffffffffffffffff821117611ac657604052565b90601f8019910116810190811067ffffffffffffffff821117611ac657604052565b90604051611b4481611adc565b610140600a82948054845260018101546020850152600281015460408501526003810154606085015260048101546080850152600581015460a0850152600681015460c0850152600781015460e0850152600881015461010085015260098101546101208501520154910152565b805182526020810151602083015260408101516040830152606081015160608301526080810151608083015260a081015160a083015260c081015160c083015260e081015160e08301526101008082015190830152610120808201519083015261014080910151910152565b15611c2557565b60405162461bcd60e51b815260206004820152600a602482015269139bdd081c185d5cd95960b21b6044820152606490fd5b15611c5e57565b60405162461bcd60e51b81526020600482015260066024820152654d617820352560d01b6044820152606490fd5b91908201809211611c9957565b634e487b7160e01b600052601160045260246000fd5b91908203918211611c9957565b600e54600f5490918260ff831615611d32576000908152601460205260409020600b81015460108054601154929590911c6001600160a01b031693909291438111611d22575060005b8092601581015492600e6014830154936009840154101592015490565b611d2d904390611caf565b611d05565b5060065460009250829182908190819081908190565b60405190611d5582611adc565b816101406000918281528260208201528260408201528260608201528260808201528260a08201528260c08201528260e082015282610100820152826101208201520152565b81810292918115918404141715611c9957565b60ff600f5416158015611e06575b611dfb57611dcd6011544390611caf565b908160011b82810460021483151715611c995790600e54600052601460205260096040600020015483111590565b600090600090600090565b50601154431015611dbc565b600f60ff815416806123d2575b6123c5575b60ff815416156121415780546001600160a01b0390601090811c8216331461210a579081611e56859354841015612f01565b611e828330337f0000000000000000000000000000000000000000000000000000000000000000612e68565b600e9081549160009283526020916014835260409182852094611ea86011544390611caf565b611f87611f956009890192835481119a8d54881c169c600b8b019c8d611ecf828254611c8c565b9055600d8c01611ee0828254611c8c565b905560148c01611ef0815461246c565b9055875480885260168c528a88203389528c528a882054156120cc575b508754875260168b528987203388528b52898720611f2c828254611c8c565b90558754875260188b528987203388528b52898720611f4b815461246c565b90558c15612096575b50805462010000600160b01b03338a1b169062010000600160b01b0319161790558d61271093849160038d015490611d9b565b04875560018a015490611d9b565b0496600281015480891061208e575b50918591600893611fb58a43611c8c565b8060115587820155601343910155548811158099819a612086575b50612057575b338152601e8752600382822001611fee8d8254611c8c565b9055338152601e87522001612003815461246c565b905561201189601d54611c8c565b601d555495549054928251988952880152860152606085015260808401527f4fac472d5b6591a42f8223494b16f053353d72a46610d443eff08001b39a995160a03394a4565b83547f63068782713f7520cc644e32ad434f43630783099e68b3cbfee46b7263b02bfe8884518b8152a2611fd6565b905038611fd0565b975085611fa4565b878c016120a4828254611c8c565b90558754875260178b528987203388528b526120c48a8820918254611c8c565b90558e611f54565b875260158b526120de338b8920612f39565b60158c016120ec815461246c565b9055338752601e8b52898720612102815461246c565b905538611f0d565b60405162461bcd60e51b815260206004820152602481018490526e416c726561647920686f6c64696e6760881b6044820152606490fd5b61214f600654831015612f01565b61217b8230337f0000000000000000000000000000000000000000000000000000000000000000612e68565b600e90612188825461246c565b9182815561219760195461246c565b601955600160ff19835416178255600092835260209160148352604091828520946002860361236b575b86826121e1826121d660125460135490611c8c565b80600c8c0155611c8c565b97600b810198895582600d820155438682015561220060025443611c8c565b60108281019182554260118401554360138401556001601484018190556015840155875462010000600160b01b0319163390911b62010000600160b01b031617909655600554612710906122549085611d9b565b046010558554601155815484526015885261227133888620612f39565b815484526016885286842033855288528287852055815484526018885286842033855288526001878520556122a7438754611caf565b600b54101561234c575b505050338152601e85528381206122c8815461246c565b9055338152601e85526003848220016122e2888254611c8c565b9055338152601e85526008848220016122fb815461246c565b90558060125560135561231086601d54611c8c565b601d5554935490549282519586528501528301527fe550933eae5cb343560320c92fb0c4522e4d7d087a9503ecd95c3000952ae3e760603393a3565b01558154815260178552838120338252855286848220558682386122b1565b60025486556003546001870155600454600287015560055460038701556006546004870155600754600587015560085460068701556009546007870155600a546008870155600b546009870155600c54600a8701556121c1565b6123cd61247b565b611e24565b50601154431015611e1f565b6000546001600160a01b031633036123f257565b60405163118cdaa760e01b8152336004820152602490fd5b8115612414570490565b634e487b7160e01b600052601260045260246000fd5b805182101561243e5760209160051b010190565b634e487b7160e01b600052603260045260246000fd5b805482101561243e5760005260206000200190600090565b6000198114611c995760010190565b600e546000526014602052604060002042601282015560018060a01b03600f5460101c166001600160601b0360a01b601683015416176016820155601a810160ff1990600182825416179055600f5416600f556001601582015414612de957600e546000526016602052604060002090600160a01b60019003601682015416918260005260205260406000205491826017830155600e5460005260176020526040600020906000526020526040600020549182601883015580600d8301549061254391611caf565b92600e8301549061255391611caf565b92600c8301549160058401549461256a8685611d9b565b6127109004600686015491816125808488611d9b565b612710900496879161259191611caf565b9061259b91611caf565b978860198901556125ac9085611d9b565b6127109004926125bc9085611d9b565b612710900495838760088a01546125d39088611d9b565b61271090049687926125e491611caf565b906125ee91611caf565b906125f891611caf565b96600093600094600e54958660005260156020526040600020966014602052600160a01b60019003604060002060160154166000986000918154925b838110612daa57506126458b612f79565b9a6126536040519c8d611b15565b808c52612662601f1991612f79565b013660208d013760009160005b848110612d415750508a51159250612cf39150505750505060138a0154408015612cdc575b600e5460168c0154604051916020830193845260408301526001600160601b03199060601b166060820152605481526126cc81611af9565b5190208551998a15612414576127668c61276c936126f8601d9a601f9f60018060a01b0393069061242a565b51169a602082018c6001600160601b0360a01b825416179055600e54600052601860205260406000208c60005260205261271061275a612742604060002054600786015490611d9b565b6008850154808211612cd4575b506017850154611d9b565b04809a81930155611caf565b90611c8c565b958a61271061277f600a83015488611d9b565b0497808911612ccc575b916127d89594939161279e8a6127cc95611caf565b9c8d916127ab8585611c8c565b601b8201556127ba8888611c8c565b601c8201558b601e8201550155611c8c565b80612c63575b50611c8c565b80612c15575b5087612b64575b600e54600052601560205260406000209860005b8a54811015612a6a578061280f6001928d612454565b838060a01b0391549060031b1c16828060a01b0360168c0154168114612a6457600e54806000526016602052604060002082600052602052604060002054906000526017602052604060002082600052602052604060002054906000918b8d81151582612a5b575b612a1a575b50507fa5d2cf8bbb998380d1c6011ac6200fc92d40d80a6f7eff45a255a57738a91c7891608091896000918d82151583612a11575b80612a08575b6129ec575b5050506000908d898060a01b03168714806129e3575b612990575b6128ee826128e9836128e98a88611c8c565b611c8c565b9182612917575b50600e5495604051938452602084015260408301526060820152a35b016127f9565b61295090612946848a7f0000000000000000000000000000000000000000000000000000000000000000612ec3565b6128e98389611c8c565b87600052601e60205261296c6004604060002001918254611c8c565b905586600052601e60205288604060002001612988815461246c565b9055386128f5565b90508a906129a08c601b54611c8c565b601b5586600052601e60205260066040600020016129be815461246c565b905586600052601e60205260076040600020016129dc8d8254611c8c565b90556128d7565b508b15156128d2565b612a009350906129fb91611d9b565b61240a565b89388d6128bc565b508115156128b7565b508015156128b1565b608092945083916129fb7fa5d2cf8bbb998380d1c6011ac6200fc92d40d80a6f7eff45a255a57738a91c7895612a4f93611d9b565b93915091508b8d61287c565b50801515612877565b50612911565b50985050957fc31996d40e5893861400760c37787365eb4d183c84dc81f29b76371a26d6283593509460e092919560018060a01b03601683015416600052601e6020526002604060002001612abf815461246c565b9055601782015490808211612b2a575b5050600e549460018060a01b0360168301541696601783015498601b840154936015601c820154910154946040519b8c5260208c015260408b015260608a0152608089015260a088015260c087015260018060a01b031694a4565b612b3391611caf565b60018060a01b03601683015416600052601e602052612b5b6005604060002001918254611c8c565b90553880612acf565b6016870154612b9e9089906001600160a01b03167f0000000000000000000000000000000000000000000000000000000000000000612ec3565b60178701546000811289828103128116908a8381031390151617611c9957600e547f4119e264be4fc285d7dc58e5960cf706d6af27faab8ab0df53d738e3727ad838608060018060a01b0360168c01541693600c8c0154906040519182528d60208301528060408301528d036060820152a36127e5565b600d54612c5a9190612c529082906001600160a01b03167f0000000000000000000000000000000000000000000000000000000000000000612ec3565b601c54611c8c565b601c55386127de565b612cc390612cbb60405163a9059cbb60e01b602082015261dead602482015282604482015260448152612c9581611af9565b7f0000000000000000000000000000000000000000000000000000000000000000612f91565b601a54611c8c565b601a55386127d2565b975087612789565b90503861274f565b5043600019810111611c9957436000190140612694565b81601f9c9298508a61276692612d0f61276c969d601354611c8c565b6013557fdc76f7bd9027753b77634361d9bdb47369cf0d2a02f5c12333e17cc0292094176020604051848152a2611caf565b8c83612d4d8385612454565b905460039291831b1c6001600160a01b031603612d6f575b505060010161266f565b94612da0839296612d8260019587612454565b9054911b1c60a085901b8590031691612d9a8161246c565b9761242a565b5290508c38612d65565b81612db58285612454565b905460039190911b1c6001600160a01b031603612dd5575b600101612634565b9a612de160019161246c565b9b9050612dcd565b600b0154806012557fdb5921df7fbb38e24667925d5736d9d890212d79605330d0315a5c7225663af76080600e549260405190815260406020820152600d60408201526c39b4b733b63290383630bcb2b960991b6060820152a2565b600260015414612e56576002600155565b604051633ee5aeb560e01b8152600490fd5b6040516323b872dd60e01b60208201526001600160a01b03928316602482015292909116604483015260648083019390935291815260a081019181831067ffffffffffffffff841117611ac657612ec192604052612f91565b565b60405163a9059cbb60e01b60208201526001600160a01b039092166024830152604480830193909352918152612ec191612efc82611af9565b612f91565b15612f0857565b60405162461bcd60e51b81526020600482015260096024820152682132b637bb9036b4b760b91b6044820152606490fd5b805468010000000000000000811015611ac657612f5b91600182018155612454565b60018060a09493941b038084549260031b9316831b921b1916179055565b67ffffffffffffffff8111611ac65760051b60200190565b906000602091828151910182855af115612fed576000513d612fe457506001600160a01b0381163b155b612fc25750565b604051635274afe760e01b81526001600160a01b039091166004820152602490fd5b60011415612fbb565b6040513d6000823e3d90fdfed7474166e78731bc168caca1fe1ccebbd6f3c95baee64997902e6b48f442b81aa2646970667358221220e392246d0b14464108f9de0706ee067fd477862cf7b4cc7cb7bba97dc0a768f864736f6c63430008180033","opcodes":"PUSH1 0xA0 CALLVALUE PUSH3 0x211 JUMPI PUSH1 0x1 PUSH1 0x1 PUSH1 0x40 SHL SUB SWAP1 PUSH1 0x1F PUSH3 0x327C CODESIZE DUP2 SWAP1 SUB SWAP2 DUP3 ADD PUSH1 0x1F NOT AND DUP4 ADD SWAP3 SWAP2 SWAP1 DUP5 DUP5 GT DUP4 DUP6 LT OR PUSH3 0x216 JUMPI DUP2 PUSH1 0x20 SWAP3 DUP5 SWAP3 PUSH1 0x40 SWAP7 DUP8 MSTORE DUP4 CODECOPY DUP2 ADD SUB SLT PUSH3 0x211 JUMPI MLOAD PUSH1 0x1 PUSH1 0x1 PUSH1 0xA0 SHL SUB DUP1 DUP3 AND SWAP4 SWAP2 DUP5 SWAP1 SUB PUSH3 0x211 JUMPI CALLER ISZERO PUSH3 0x1F9 JUMPI PUSH1 0x0 SWAP4 DUP5 SLOAD SWAP2 PUSH1 0x1 DUP1 PUSH1 0xA0 SHL SUB NOT SWAP3 CALLER DUP5 DUP3 AND OR DUP8 SSTORE DUP6 MLOAD SWAP2 CALLER SWAP2 AND PUSH32 0x8BE0079C531659141344CD1FD0A4F28419497F9722A3DAAFE3B4186F6B6457E0 DUP9 DUP1 LOG3 PUSH1 0x1 DUP1 SSTORE DUP2 ISZERO PUSH3 0x1C7 JUMPI POP PUSH1 0x80 MSTORE CALLER SWAP1 PUSH1 0xD SLOAD AND OR PUSH1 0xD SSTORE DUP2 MLOAD SWAP1 PUSH2 0x160 DUP3 ADD SWAP1 DUP3 DUP3 LT SWAP1 DUP3 GT OR PUSH3 0x1B3 JUMPI SWAP1 PUSH2 0x140 SWAP2 DUP4 MSTORE PUSH2 0xA8C0 DUP1 DUP3 MSTORE PUSH2 0x2328 DUP1 PUSH1 0x20 DUP5 ADD MSTORE PUSH1 0x82 DUP6 DUP5 ADD MSTORE PUSH2 0x2AF8 DUP1 PUSH1 0x60 DUP6 ADD MSTORE PUSH8 0x16345785D8A0000 SWAP2 DUP3 PUSH1 0x80 DUP7 ADD MSTORE PUSH2 0x1F4 SWAP4 DUP5 PUSH1 0xA0 DUP8 ADD MSTORE PUSH1 0x64 PUSH1 0xC0 DUP8 ADD MSTORE PUSH1 0x32 PUSH1 0xE0 DUP8 ADD MSTORE PUSH2 0x190 SWAP6 DUP7 PUSH2 0x100 DUP3 ADD MSTORE PUSH1 0x96 PUSH2 0x120 DUP3 ADD MSTORE PUSH2 0x3E8 SWAP8 DUP9 SWAP2 ADD MSTORE PUSH1 0x2 SSTORE PUSH1 0x3 SSTORE PUSH1 0x82 PUSH1 0x4 SSTORE PUSH1 0x5 SSTORE PUSH1 0x6 SSTORE PUSH1 0x7 SSTORE PUSH1 0x64 PUSH1 0x8 SSTORE PUSH1 0x32 PUSH1 0x9 SSTORE PUSH1 0xA SSTORE PUSH1 0x96 PUSH1 0xB SSTORE PUSH1 0xC SSTORE MLOAD PUSH2 0x304F SWAP1 DUP2 PUSH3 0x22D DUP3 CODECOPY PUSH1 0x80 MLOAD DUP2 DUP2 DUP2 PUSH2 0x2DC ADD MSTORE DUP2 DUP2 PUSH2 0x8C4 ADD MSTORE DUP2 DUP2 PUSH2 0x124B ADD MSTORE DUP2 DUP2 PUSH2 0x1E5E ADD MSTORE DUP2 DUP2 PUSH2 0x2157 ADD MSTORE DUP2 DUP2 PUSH2 0x2922 ADD MSTORE DUP2 DUP2 PUSH2 0x2B7A ADD MSTORE DUP2 DUP2 PUSH2 0x2C2E ADD MSTORE PUSH2 0x2C97 ADD MSTORE RETURN JUMPDEST PUSH4 0x4E487B71 PUSH1 0xE0 SHL DUP5 MSTORE PUSH1 0x41 PUSH1 0x4 MSTORE PUSH1 0x24 DUP5 REVERT JUMPDEST PUSH3 0x461BCD PUSH1 0xE5 SHL DUP2 MSTORE PUSH1 0x20 PUSH1 0x4 DUP3 ADD MSTORE PUSH1 0xD PUSH1 0x24 DUP3 ADD MSTORE PUSH13 0x24B73B30B634B2103A37B5B2B7 PUSH1 0x99 SHL PUSH1 0x44 DUP3 ADD MSTORE PUSH1 0x64 SWAP1 REVERT JUMPDEST DUP3 MLOAD PUSH4 0x1E4FBDF7 PUSH1 0xE0 SHL DUP2 MSTORE PUSH1 0x0 PUSH1 0x4 DUP3 ADD MSTORE PUSH1 0x24 SWAP1 REVERT JUMPDEST PUSH1 0x0 DUP1 REVERT JUMPDEST PUSH4 0x4E487B71 PUSH1 0xE0 SHL PUSH1 0x0 MSTORE PUSH1 0x41 PUSH1 0x4 MSTORE PUSH1 0x24 PUSH1 0x0 REVERT INVALID PUSH2 0x1E0 DUP1 PUSH1 0x40 MSTORE PUSH1 0x4 SWAP1 DUP2 CALLDATASIZE LT ISZERO PUSH2 0x16 JUMPI PUSH1 0x0 DUP1 REVERT JUMPDEST PUSH1 0x0 SWAP2 PUSH1 0xE0 DUP4 CALLDATALOAD DUP2 SHR SWAP3 DUP4 PUSH4 0x1FEB02C EQ PUSH2 0x1A5C JUMPI POP DUP3 PUSH4 0x27471B0 EQ PUSH2 0x1A39 JUMPI DUP3 PUSH4 0x3FD2A45 EQ PUSH2 0x1A1C JUMPI DUP3 PUSH4 0x6FE8766 EQ PUSH2 0x1987 JUMPI DUP3 PUSH4 0xAA7813F EQ PUSH2 0x1951 JUMPI DUP3 PUSH4 0x249D39E9 EQ PUSH2 0x1934 JUMPI DUP3 PUSH4 0x42BAE31F EQ PUSH2 0x1876 JUMPI DUP3 PUSH4 0x46904840 EQ PUSH2 0x184D JUMPI DUP3 PUSH4 0x497C7E0F EQ PUSH2 0x17B9 JUMPI DUP3 PUSH4 0x4A4E3BD5 EQ PUSH2 0x176D JUMPI DUP3 PUSH4 0x4FD66EAE EQ PUSH2 0x164E JUMPI DUP3 PUSH4 0x51858E27 EQ PUSH2 0x15FE JUMPI DUP3 PUSH4 0x53A58DE1 EQ PUSH2 0x15B9 JUMPI DUP3 PUSH4 0x59AF99A2 EQ PUSH2 0x1549 JUMPI DUP3 PUSH4 0x5C975ABB EQ PUSH2 0x1523 JUMPI DUP3 PUSH4 0x5F81A57C EQ PUSH2 0x1505 JUMPI DUP3 PUSH4 0x64E9F671 EQ PUSH2 0x148A JUMPI DUP3 PUSH4 0x6AF24A86 EQ PUSH2 0x1445 JUMPI DUP3 PUSH4 0x6B4169C3 EQ PUSH2 0x13F8 JUMPI DUP3 PUSH4 0x715018A6 EQ PUSH2 0x139E JUMPI DUP3 PUSH4 0x71A588A5 EQ PUSH2 0x1359 JUMPI DUP3 PUSH4 0x7AED11C1 EQ PUSH2 0x121A JUMPI DUP3 PUSH4 0x7F8A1408 EQ PUSH2 0x1164 JUMPI DUP3 PUSH4 0x88C3FFB0 EQ PUSH2 0x10AB JUMPI DUP3 PUSH4 0x8A19C8BC EQ PUSH2 0x108D JUMPI DUP3 PUSH4 0x8A568299 EQ PUSH2 0x106F JUMPI DUP3 PUSH4 0x8C65C81F EQ PUSH2 0xE9D JUMPI DUP3 PUSH4 0x8DA5CB5B EQ PUSH2 0xE76 JUMPI DUP3 PUSH4 0x9653AF2B EQ PUSH2 0xE58 JUMPI DUP3 PUSH4 0x9FC98444 EQ PUSH2 0xDA4 JUMPI DUP3 PUSH4 0xA32BF597 EQ PUSH2 0xD40 JUMPI DUP3 PUSH4 0xADDC831E EQ PUSH2 0xCA5 JUMPI DUP3 PUSH4 0xB75BBD9B EQ PUSH2 0xC87 JUMPI DUP3 PUSH4 0xBF5E5A30 EQ PUSH2 0xC69 JUMPI DUP3 PUSH4 0xC1E3BD3E EQ PUSH2 0xBB7 JUMPI DUP3 PUSH4 0xC3F909D4 EQ PUSH2 0xB27 JUMPI DUP3 PUSH4 0xC7E284B8 EQ PUSH2 0xAF7 JUMPI DUP3 PUSH4 0xCB4E24ED EQ PUSH2 0xAD9 JUMPI DUP3 PUSH4 0xCBA0B841 EQ PUSH2 0xA96 JUMPI DUP3 PUSH4 0xCDAFBBB6 EQ PUSH2 0xA01 JUMPI POP DUP2 PUSH4 0xD89135CD EQ PUSH2 0x9E3 JUMPI DUP2 PUSH4 0xDB2E21BC EQ PUSH2 0x872 JUMPI DUP2 PUSH4 0xDBB4998D EQ PUSH2 0x7FF JUMPI DUP2 PUSH4 0xDCE57519 EQ PUSH2 0x75C JUMPI DUP2 PUSH4 0xDD4AC1B0 EQ PUSH2 0x6A8 JUMPI DUP2 PUSH4 0xDD78C968 EQ PUSH2 0x607 JUMPI DUP2 PUSH4 0xE0BCFDDB EQ PUSH2 0x551 JUMPI DUP2 PUSH4 0xE74B981B EQ PUSH2 0x4AF JUMPI DUP2 PUSH4 0xE9F2A71F EQ PUSH2 0x3FC JUMPI DUP2 PUSH4 0xF13C8A99 EQ PUSH2 0x396 JUMPI DUP2 PUSH4 0xF2FDE38B EQ PUSH2 0x30B JUMPI POP DUP1 PUSH4 0xF5075EE8 EQ PUSH2 0x2C6 JUMPI DUP1 PUSH4 0xF553A20D EQ PUSH2 0x299 JUMPI PUSH4 0xF8ED217B EQ PUSH2 0x279 JUMPI PUSH1 0x0 DUP1 REVERT JUMPDEST CALLVALUE PUSH2 0x296 JUMPI DUP1 PUSH1 0x3 NOT CALLDATASIZE ADD SLT PUSH2 0x296 JUMPI PUSH1 0x20 PUSH1 0x12 SLOAD PUSH1 0x40 MLOAD SWAP1 DUP2 MSTORE RETURN JUMPDEST DUP1 REVERT JUMPDEST POP CALLVALUE PUSH2 0x296 JUMPI DUP1 PUSH1 0x3 NOT CALLDATASIZE ADD SLT PUSH2 0x296 JUMPI PUSH1 0xF SLOAD PUSH1 0x40 MLOAD PUSH1 0x10 SWAP2 SWAP1 SWAP2 SHR PUSH1 0x1 PUSH1 0x1 PUSH1 0xA0 SHL SUB AND DUP2 MSTORE PUSH1 0x20 SWAP1 RETURN JUMPDEST POP CALLVALUE PUSH2 0x296 JUMPI DUP1 PUSH1 0x3 NOT CALLDATASIZE ADD SLT PUSH2 0x296 JUMPI PUSH1 0x40 MLOAD PUSH32 0x0 PUSH1 0x1 PUSH1 0x1 PUSH1 0xA0 SHL SUB AND DUP2 MSTORE PUSH1 0x20 SWAP1 RETURN JUMPDEST SWAP1 POP CALLVALUE PUSH2 0x392 JUMPI PUSH1 0x20 CALLDATASIZE PUSH1 0x3 NOT ADD SLT PUSH2 0x392 JUMPI PUSH2 0x326 PUSH2 0x1A93 JUMP JUMPDEST PUSH2 0x32E PUSH2 0x23DE JUMP JUMPDEST PUSH1 0x1 PUSH1 0x1 PUSH1 0xA0 SHL SUB SWAP1 DUP2 AND SWAP2 DUP3 ISZERO PUSH2 0x37A JUMPI POP DUP3 SLOAD PUSH1 0x1 PUSH1 0x1 PUSH1 0xA0 SHL SUB NOT DUP2 AND DUP4 OR DUP5 SSTORE AND PUSH32 0x8BE0079C531659141344CD1FD0A4F28419497F9722A3DAAFE3B4186F6B6457E0 DUP4 DUP1 LOG3 DUP1 RETURN JUMPDEST PUSH1 0x40 MLOAD PUSH4 0x1E4FBDF7 PUSH1 0xE0 SHL DUP2 MSTORE SWAP1 DUP2 ADD DUP5 SWAP1 MSTORE PUSH1 0x24 SWAP1 REVERT JUMPDEST POP DUP1 REVERT JUMPDEST SWAP1 POP CALLVALUE PUSH2 0x392 JUMPI PUSH1 0x20 CALLDATASIZE PUSH1 0x3 NOT ADD SLT PUSH2 0x392 JUMPI PUSH2 0x3B1 PUSH2 0x2E45 JUMP JUMPDEST PUSH1 0xFF PUSH1 0xF SLOAD PUSH1 0x8 SHR AND PUSH2 0x3CF JUMPI PUSH2 0x3C8 SWAP1 CALLDATALOAD PUSH2 0x1E12 JUMP JUMPDEST PUSH1 0x1 DUP1 SSTORE DUP1 RETURN JUMPDEST PUSH1 0x64 SWAP1 PUSH1 0x20 PUSH1 0x40 MLOAD SWAP2 PUSH3 0x461BCD PUSH1 0xE5 SHL DUP4 MSTORE DUP3 ADD MSTORE PUSH1 0x6 PUSH1 0x24 DUP3 ADD MSTORE PUSH6 0x14185D5CD959 PUSH1 0xD2 SHL PUSH1 0x44 DUP3 ADD MSTORE REVERT JUMPDEST SWAP1 POP CALLVALUE PUSH2 0x392 JUMPI PUSH1 0x20 CALLDATASIZE PUSH1 0x3 NOT ADD SLT PUSH2 0x392 JUMPI DUP1 CALLDATALOAD SWAP1 PUSH2 0x41A PUSH2 0x23DE JUMP JUMPDEST PUSH1 0x1E DUP3 LT ISZERO DUP1 PUSH2 0x4A3 JUMPI JUMPDEST ISZERO PUSH2 0x475 JUMPI PUSH1 0x0 DUP1 MLOAD PUSH1 0x20 PUSH2 0x2FFA DUP4 CODECOPY DUP2 MLOAD SWAP2 MSTORE PUSH1 0xA0 DUP3 SLOAD PUSH1 0x40 MLOAD SWAP1 PUSH1 0x60 DUP3 MSTORE PUSH1 0x10 PUSH1 0x60 DUP4 ADD MSTORE PUSH16 0x74696D6572466C6F6F72426C6F636B73 PUSH1 0x80 SHL PUSH1 0x80 DUP4 ADD MSTORE PUSH1 0x20 DUP3 ADD MSTORE DUP5 PUSH1 0x40 DUP3 ADD MSTORE LOG1 SSTORE DUP1 RETURN JUMPDEST PUSH1 0x64 SWAP1 PUSH1 0x20 PUSH1 0x40 MLOAD SWAP2 PUSH3 0x461BCD PUSH1 0xE5 SHL DUP4 MSTORE DUP3 ADD MSTORE PUSH1 0x7 PUSH1 0x24 DUP3 ADD MSTORE PUSH7 0x18969B1836B4B7 PUSH1 0xC9 SHL PUSH1 0x44 DUP3 ADD MSTORE REVERT JUMPDEST POP PUSH2 0x708 DUP3 GT ISZERO PUSH2 0x425 JUMP JUMPDEST SWAP1 POP CALLVALUE PUSH2 0x392 JUMPI PUSH1 0x20 CALLDATASIZE PUSH1 0x3 NOT ADD SLT PUSH2 0x392 JUMPI PUSH2 0x4CA PUSH2 0x1A93 JUMP JUMPDEST PUSH2 0x4D2 PUSH2 0x23DE JUMP JUMPDEST PUSH1 0x1 PUSH1 0x1 PUSH1 0xA0 SHL SUB SWAP1 DUP2 AND SWAP2 DUP3 ISZERO PUSH2 0x521 JUMPI POP DUP2 PUSH1 0xD SLOAD SWAP2 DUP3 AND PUSH32 0xAAEBCF1BFA00580E41D966056B48521FA9F202645C86D4DDF28113E617C1B1D3 DUP6 DUP1 LOG3 PUSH1 0x1 PUSH1 0x1 PUSH1 0xA0 SHL SUB NOT AND OR PUSH1 0xD SSTORE DUP1 RETURN JUMPDEST PUSH1 0x64 SWAP1 PUSH1 0x20 PUSH1 0x40 MLOAD SWAP2 PUSH3 0x461BCD PUSH1 0xE5 SHL DUP4 MSTORE DUP3 ADD MSTORE PUSH1 0x9 PUSH1 0x24 DUP3 ADD MSTORE PUSH9 0x2D32B9379030B23239 PUSH1 0xB9 SHL PUSH1 0x44 DUP3 ADD MSTORE REVERT JUMPDEST SWAP1 POP CALLVALUE PUSH2 0x392 JUMPI PUSH1 0x20 CALLDATASIZE PUSH1 0x3 NOT ADD SLT PUSH2 0x392 JUMPI DUP1 CALLDATALOAD SWAP1 PUSH2 0x56F PUSH2 0x23DE JUMP JUMPDEST PUSH2 0x2774 DUP3 LT ISZERO DUP1 PUSH2 0x5FB JUMPI JUMPDEST ISZERO PUSH2 0x5CC JUMPI POP PUSH1 0x0 DUP1 MLOAD PUSH1 0x20 PUSH2 0x2FFA DUP4 CODECOPY DUP2 MLOAD SWAP2 MSTORE PUSH1 0xA0 PUSH1 0x5 SLOAD PUSH1 0x40 MLOAD SWAP1 PUSH1 0x60 DUP3 MSTORE PUSH1 0xD PUSH1 0x60 DUP4 ADD MSTORE PUSH13 0x657363616C6174696F6E427073 PUSH1 0x98 SHL PUSH1 0x80 DUP4 ADD MSTORE PUSH1 0x20 DUP3 ADD MSTORE DUP4 PUSH1 0x40 DUP3 ADD MSTORE LOG1 PUSH1 0x5 SSTORE DUP1 RETURN JUMPDEST PUSH1 0x64 SWAP1 PUSH1 0x20 PUSH1 0x40 MLOAD SWAP2 PUSH3 0x461BCD PUSH1 0xE5 SHL DUP4 MSTORE DUP3 ADD MSTORE PUSH1 0x8 PUSH1 0x24 DUP3 ADD MSTORE PUSH8 0x3130312D31353025 PUSH1 0xC0 SHL PUSH1 0x44 DUP3 ADD MSTORE REVERT JUMPDEST POP PUSH2 0x3A98 DUP3 GT ISZERO PUSH2 0x57B JUMP JUMPDEST SWAP1 POP CALLVALUE PUSH2 0x392 JUMPI PUSH1 0x20 CALLDATASIZE PUSH1 0x3 NOT ADD SLT PUSH2 0x392 JUMPI DUP1 CALLDATALOAD SWAP1 PUSH2 0x625 PUSH2 0x23DE JUMP JUMPDEST PUSH1 0x64 DUP3 GT PUSH2 0x67B JUMPI POP PUSH1 0x0 DUP1 MLOAD PUSH1 0x20 PUSH2 0x2FFA DUP4 CODECOPY DUP2 MLOAD SWAP2 MSTORE PUSH1 0xA0 PUSH1 0x9 SLOAD PUSH1 0x40 MLOAD SWAP1 PUSH1 0x60 DUP3 MSTORE PUSH1 0xF PUSH1 0x60 DUP4 ADD MSTORE PUSH15 0x6C6F74746F50657247726162427073 PUSH1 0x88 SHL PUSH1 0x80 DUP4 ADD MSTORE PUSH1 0x20 DUP3 ADD MSTORE DUP4 PUSH1 0x40 DUP3 ADD MSTORE LOG1 PUSH1 0x9 SSTORE DUP1 RETURN JUMPDEST PUSH1 0x64 SWAP1 PUSH1 0x20 PUSH1 0x40 MLOAD SWAP2 PUSH3 0x461BCD PUSH1 0xE5 SHL DUP4 MSTORE DUP3 ADD MSTORE PUSH1 0x6 PUSH1 0x24 DUP3 ADD MSTORE PUSH6 0x4D6178203125 PUSH1 0xD0 SHL PUSH1 0x44 DUP3 ADD MSTORE REVERT JUMPDEST SWAP1 POP CALLVALUE PUSH2 0x392 JUMPI PUSH1 0x20 CALLDATASIZE PUSH1 0x3 NOT ADD SLT PUSH2 0x392 JUMPI DUP1 CALLDATALOAD SWAP1 PUSH2 0x6C6 PUSH2 0x23DE JUMP JUMPDEST PUSH2 0x1388 DUP3 LT ISZERO DUP1 PUSH2 0x750 JUMPI JUMPDEST ISZERO PUSH2 0x723 JUMPI POP PUSH1 0x0 DUP1 MLOAD PUSH1 0x20 PUSH2 0x2FFA DUP4 CODECOPY DUP2 MLOAD SWAP2 MSTORE PUSH1 0xA0 PUSH1 0x3 SLOAD PUSH1 0x40 MLOAD SWAP1 PUSH1 0x60 DUP3 MSTORE PUSH1 0xD PUSH1 0x60 DUP4 ADD MSTORE PUSH13 0x74696D65724465636179427073 PUSH1 0x98 SHL PUSH1 0x80 DUP4 ADD MSTORE PUSH1 0x20 DUP3 ADD MSTORE DUP4 PUSH1 0x40 DUP3 ADD MSTORE LOG1 PUSH1 0x3 SSTORE DUP1 RETURN JUMPDEST PUSH1 0x64 SWAP1 PUSH1 0x20 PUSH1 0x40 MLOAD SWAP2 PUSH3 0x461BCD PUSH1 0xE5 SHL DUP4 MSTORE DUP3 ADD MSTORE PUSH1 0x6 PUSH1 0x24 DUP3 ADD MSTORE PUSH6 0x35302D393525 PUSH1 0xD0 SHL PUSH1 0x44 DUP3 ADD MSTORE REVERT JUMPDEST POP PUSH2 0x251C DUP3 GT ISZERO PUSH2 0x6D2 JUMP JUMPDEST SWAP1 POP CALLVALUE PUSH2 0x392 JUMPI PUSH1 0x20 CALLDATASIZE PUSH1 0x3 NOT ADD SLT PUSH2 0x392 JUMPI DUP1 CALLDATALOAD SWAP1 PUSH2 0x77A PUSH2 0x23DE JUMP JUMPDEST PUSH2 0x7D0 DUP3 GT PUSH2 0x7D1 JUMPI POP PUSH1 0x0 DUP1 MLOAD PUSH1 0x20 PUSH2 0x2FFA DUP4 CODECOPY DUP2 MLOAD SWAP2 MSTORE PUSH1 0xA0 PUSH1 0xC SLOAD PUSH1 0x40 MLOAD SWAP1 PUSH1 0x60 DUP3 MSTORE PUSH1 0xF PUSH1 0x60 DUP4 ADD MSTORE PUSH15 0x686F745A6F6E65426F6E7573427073 PUSH1 0x88 SHL PUSH1 0x80 DUP4 ADD MSTORE PUSH1 0x20 DUP3 ADD MSTORE DUP4 PUSH1 0x40 DUP3 ADD MSTORE LOG1 PUSH1 0xC SSTORE DUP1 RETURN JUMPDEST PUSH1 0x64 SWAP1 PUSH1 0x20 PUSH1 0x40 MLOAD SWAP2 PUSH3 0x461BCD PUSH1 0xE5 SHL DUP4 MSTORE DUP3 ADD MSTORE PUSH1 0x7 PUSH1 0x24 DUP3 ADD MSTORE PUSH7 0x4D617820323025 PUSH1 0xC8 SHL PUSH1 0x44 DUP3 ADD MSTORE REVERT JUMPDEST SWAP1 POP CALLVALUE PUSH2 0x392 JUMPI PUSH1 0x20 CALLDATASIZE PUSH1 0x3 NOT ADD SLT PUSH2 0x392 JUMPI CALLDATALOAD PUSH2 0x81B PUSH2 0x23DE JUMP JUMPDEST PUSH2 0x829 PUSH2 0x1F4 DUP3 GT ISZERO PUSH2 0x1C57 JUMP JUMPDEST PUSH1 0x0 DUP1 MLOAD PUSH1 0x20 PUSH2 0x2FFA DUP4 CODECOPY DUP2 MLOAD SWAP2 MSTORE PUSH1 0xA0 PUSH1 0xA SLOAD PUSH1 0x40 MLOAD SWAP1 PUSH1 0x60 DUP3 MSTORE PUSH1 0xB PUSH1 0x60 DUP4 ADD MSTORE PUSH11 0x6C6F74746F4D6178427073 PUSH1 0xA8 SHL PUSH1 0x80 DUP4 ADD MSTORE PUSH1 0x20 DUP3 ADD MSTORE DUP4 PUSH1 0x40 DUP3 ADD MSTORE LOG1 PUSH1 0xA SSTORE DUP1 RETURN JUMPDEST SWAP1 POP CALLVALUE PUSH2 0x392 JUMPI DUP2 PUSH1 0x3 NOT CALLDATASIZE ADD SLT PUSH2 0x392 JUMPI PUSH2 0x88C PUSH2 0x23DE JUMP JUMPDEST PUSH1 0xFF PUSH1 0xF SLOAD PUSH2 0x89F DUP3 DUP3 PUSH1 0x8 SHR AND PUSH2 0x1C1E JUMP JUMPDEST AND PUSH2 0x9B0 JUMPI PUSH1 0x40 MLOAD PUSH4 0x70A08231 PUSH1 0xE0 SHL DUP2 MSTORE ADDRESS SWAP2 DUP2 ADD SWAP2 SWAP1 SWAP2 MSTORE PUSH1 0x1 PUSH1 0x1 PUSH1 0xA0 SHL SUB SWAP1 PUSH32 0x0 PUSH1 0x20 DUP3 PUSH1 0x24 DUP2 DUP7 DUP6 AND GAS STATICCALL SWAP2 DUP3 ISZERO PUSH2 0x9A5 JUMPI DUP5 SWAP3 PUSH2 0x94D JUMPI JUMPDEST POP SWAP1 PUSH32 0x99D7F8B71CFB9126984F7A5EED3A40E64A8959E9B0E442221546FB04EC6A489C SWAP3 DUP2 PUSH1 0x20 SWAP4 DUP2 PUSH2 0x937 JUMPI JUMPDEST POP POP POP PUSH1 0x40 MLOAD SWAP1 DUP2 MSTORE LOG1 DUP1 RETURN JUMPDEST PUSH2 0x945 SWAP3 PUSH1 0xD SLOAD AND SWAP1 PUSH2 0x2EC3 JUMP JUMPDEST CODESIZE DUP2 DUP2 PUSH2 0x92A JUMP JUMPDEST SWAP2 POP PUSH1 0x20 DUP3 RETURNDATASIZE PUSH1 0x20 GT PUSH2 0x99D JUMPI JUMPDEST DUP2 PUSH2 0x968 PUSH1 0x20 SWAP4 DUP4 PUSH2 0x1B15 JUMP JUMPDEST DUP2 ADD SUB SLT PUSH2 0x999 JUMPI SWAP1 MLOAD SWAP1 PUSH32 0x99D7F8B71CFB9126984F7A5EED3A40E64A8959E9B0E442221546FB04EC6A489C PUSH2 0x8FC JUMP JUMPDEST DUP4 DUP1 REVERT JUMPDEST RETURNDATASIZE SWAP2 POP PUSH2 0x95B JUMP JUMPDEST PUSH1 0x40 MLOAD RETURNDATASIZE DUP7 DUP3 RETURNDATACOPY RETURNDATASIZE SWAP1 REVERT JUMPDEST PUSH1 0x64 SWAP1 PUSH1 0x20 PUSH1 0x40 MLOAD SWAP2 PUSH3 0x461BCD PUSH1 0xE5 SHL DUP4 MSTORE DUP3 ADD MSTORE PUSH1 0xC PUSH1 0x24 DUP3 ADD MSTORE PUSH12 0x526F756E6420616374697665 PUSH1 0xA0 SHL PUSH1 0x44 DUP3 ADD MSTORE REVERT JUMPDEST DUP3 CALLVALUE PUSH2 0x296 JUMPI DUP1 PUSH1 0x3 NOT CALLDATASIZE ADD SLT PUSH2 0x296 JUMPI PUSH1 0x20 PUSH1 0x1A SLOAD PUSH1 0x40 MLOAD SWAP1 DUP2 MSTORE RETURN JUMPDEST SWAP2 POP CALLVALUE PUSH2 0xA92 JUMPI PUSH1 0x20 CALLDATASIZE PUSH1 0x3 NOT ADD SLT PUSH2 0xA92 JUMPI PUSH2 0x120 SWAP3 PUSH1 0x40 SWAP1 PUSH1 0x1 PUSH1 0x1 PUSH1 0xA0 SHL SUB PUSH2 0xA2B PUSH2 0x1A93 JUMP JUMPDEST AND DUP2 MSTORE PUSH1 0x1E PUSH1 0x20 MSTORE KECCAK256 DUP1 SLOAD SWAP3 PUSH1 0x1 DUP3 ADD SLOAD SWAP3 PUSH1 0x2 DUP4 ADD SLOAD SWAP1 PUSH1 0x3 DUP5 ADD SLOAD SWAP1 DUP5 ADD SLOAD PUSH1 0x5 DUP6 ADD SLOAD SWAP2 PUSH1 0x6 DUP7 ADD SLOAD SWAP4 PUSH1 0x8 PUSH1 0x7 DUP9 ADD SLOAD SWAP8 ADD SLOAD SWAP8 PUSH1 0x40 MLOAD SWAP10 DUP11 MSTORE PUSH1 0x20 DUP11 ADD MSTORE PUSH1 0x40 DUP10 ADD MSTORE PUSH1 0x60 DUP9 ADD MSTORE PUSH1 0x80 DUP8 ADD MSTORE PUSH1 0xA0 DUP7 ADD MSTORE PUSH1 0xC0 DUP6 ADD MSTORE DUP4 ADD MSTORE PUSH2 0x100 DUP3 ADD MSTORE RETURN JUMPDEST DUP3 DUP1 REVERT JUMPDEST DUP4 DUP3 CALLVALUE PUSH2 0x392 JUMPI PUSH1 0x20 CALLDATASIZE PUSH1 0x3 NOT ADD SLT PUSH2 0x392 JUMPI PUSH1 0x40 PUSH2 0x160 SWAP3 PUSH2 0xACA SWAP3 PUSH2 0xABB PUSH2 0x1D48 JUMP JUMPDEST POP CALLDATALOAD DUP2 MSTORE PUSH1 0x14 PUSH1 0x20 MSTORE KECCAK256 PUSH2 0x1B37 JUMP JUMPDEST PUSH2 0xAD7 PUSH1 0x40 MLOAD DUP1 SWAP3 PUSH2 0x1BB2 JUMP JUMPDEST RETURN JUMPDEST DUP4 CALLVALUE PUSH2 0x296 JUMPI DUP1 PUSH1 0x3 NOT CALLDATASIZE ADD SLT PUSH2 0x296 JUMPI PUSH1 0x20 PUSH1 0x10 SLOAD PUSH1 0x40 MLOAD SWAP1 DUP2 MSTORE RETURN JUMPDEST DUP4 CALLVALUE PUSH2 0x296 JUMPI DUP1 PUSH1 0x3 NOT CALLDATASIZE ADD SLT PUSH2 0x296 JUMPI PUSH1 0x60 PUSH2 0xB12 PUSH2 0x1DAE JUMP JUMPDEST SWAP1 PUSH1 0x40 MLOAD SWAP3 DUP4 MSTORE PUSH1 0x20 DUP4 ADD MSTORE ISZERO ISZERO PUSH1 0x40 DUP3 ADD MSTORE RETURN JUMPDEST SWAP1 SWAP2 POP CALLVALUE PUSH2 0xA92 JUMPI DUP3 PUSH1 0x3 NOT CALLDATASIZE ADD SLT PUSH2 0xA92 JUMPI PUSH2 0x160 SWAP3 POP PUSH2 0xB47 PUSH2 0x1D48 JUMP JUMPDEST POP PUSH1 0x40 MLOAD SWAP2 PUSH2 0xB55 DUP4 PUSH2 0x1ADC JUMP JUMPDEST PUSH1 0x2 SLOAD DUP4 MSTORE PUSH1 0x3 SLOAD PUSH1 0x20 DUP5 ADD MSTORE SLOAD PUSH1 0x40 DUP4 ADD MSTORE PUSH1 0x5 SLOAD PUSH1 0x60 DUP4 ADD MSTORE PUSH1 0x6 SLOAD PUSH1 0x80 DUP4 ADD MSTORE PUSH1 0x7 SLOAD PUSH1 0xA0 DUP4 ADD MSTORE PUSH1 0x8 SLOAD PUSH1 0xC0 DUP4 ADD MSTORE PUSH1 0x9 SLOAD SWAP1 DUP3 ADD MSTORE PUSH1 0xA SLOAD PUSH2 0x100 DUP3 ADD MSTORE PUSH1 0xB SLOAD PUSH2 0x120 DUP3 ADD MSTORE PUSH1 0xC SLOAD PUSH2 0x140 DUP3 ADD MSTORE PUSH2 0xAD7 PUSH1 0x40 MLOAD DUP1 SWAP3 PUSH2 0x1BB2 JUMP JUMPDEST DUP4 DUP3 CALLVALUE PUSH2 0x392 JUMPI PUSH1 0x20 SWAP1 DUP2 PUSH1 0x3 NOT CALLDATASIZE ADD SLT PUSH2 0xA92 JUMPI CALLDATALOAD DUP3 MSTORE PUSH1 0x15 DUP2 MSTORE PUSH1 0x40 DUP3 KECCAK256 PUSH1 0x40 MLOAD SWAP3 DUP4 DUP4 DUP4 SLOAD SWAP2 DUP3 DUP2 MSTORE ADD SWAP1 DUP2 SWAP4 DUP4 MSTORE DUP5 DUP4 KECCAK256 SWAP1 DUP4 JUMPDEST DUP2 DUP2 LT PUSH2 0xC4C JUMPI POP POP POP DUP5 PUSH2 0xC05 SWAP2 SUB DUP6 PUSH2 0x1B15 JUMP JUMPDEST PUSH1 0x40 MLOAD SWAP4 DUP4 DUP6 SWAP5 DUP6 ADD SWAP2 DUP2 DUP7 MSTORE MLOAD DUP1 SWAP3 MSTORE PUSH1 0x40 DUP6 ADD SWAP4 SWAP3 JUMPDEST DUP3 DUP2 LT PUSH2 0xC2C JUMPI POP POP POP POP SUB SWAP1 RETURN JUMPDEST DUP4 MLOAD PUSH1 0x1 PUSH1 0x1 PUSH1 0xA0 SHL SUB AND DUP6 MSTORE DUP7 SWAP6 POP SWAP4 DUP2 ADD SWAP4 SWAP3 DUP2 ADD SWAP3 PUSH1 0x1 ADD PUSH2 0xC1D JUMP JUMPDEST DUP3 SLOAD PUSH1 0x1 PUSH1 0x1 PUSH1 0xA0 SHL SUB AND DUP5 MSTORE SWAP3 DUP7 ADD SWAP3 PUSH1 0x1 SWAP3 DUP4 ADD SWAP3 ADD PUSH2 0xBEF JUMP JUMPDEST DUP4 CALLVALUE PUSH2 0x296 JUMPI DUP1 PUSH1 0x3 NOT CALLDATASIZE ADD SLT PUSH2 0x296 JUMPI PUSH1 0x20 PUSH1 0x1B SLOAD PUSH1 0x40 MLOAD SWAP1 DUP2 MSTORE RETURN JUMPDEST DUP4 CALLVALUE PUSH2 0x296 JUMPI DUP1 PUSH1 0x3 NOT CALLDATASIZE ADD SLT PUSH2 0x296 JUMPI PUSH1 0x20 PUSH1 0x1C SLOAD PUSH1 0x40 MLOAD SWAP1 DUP2 MSTORE RETURN JUMPDEST DUP4 DUP3 CALLVALUE PUSH2 0x392 JUMPI PUSH1 0x20 CALLDATASIZE PUSH1 0x3 NOT ADD SLT PUSH2 0x392 JUMPI DUP1 CALLDATALOAD SWAP1 PUSH2 0xCC3 PUSH2 0x23DE JUMP JUMPDEST PUSH2 0x3E8 DUP3 GT PUSH2 0xD12 JUMPI POP PUSH1 0x0 DUP1 MLOAD PUSH1 0x20 PUSH2 0x2FFA DUP4 CODECOPY DUP2 MLOAD SWAP2 MSTORE PUSH1 0xA0 PUSH1 0x7 SLOAD PUSH1 0x40 MLOAD SWAP1 PUSH1 0x60 DUP3 MSTORE PUSH1 0x7 PUSH1 0x60 DUP4 ADD MSTORE PUSH7 0x6275726E427073 PUSH1 0xC8 SHL PUSH1 0x80 DUP4 ADD MSTORE PUSH1 0x20 DUP3 ADD MSTORE DUP4 PUSH1 0x40 DUP3 ADD MSTORE LOG1 PUSH1 0x7 SSTORE DUP1 RETURN JUMPDEST PUSH1 0x64 SWAP1 PUSH1 0x20 PUSH1 0x40 MLOAD SWAP2 PUSH3 0x461BCD PUSH1 0xE5 SHL DUP4 MSTORE DUP3 ADD MSTORE PUSH1 0x7 PUSH1 0x24 DUP3 ADD MSTORE PUSH7 0x4D617820313025 PUSH1 0xC8 SHL PUSH1 0x44 DUP3 ADD MSTORE REVERT JUMPDEST DUP4 SWAP1 CALLVALUE PUSH2 0x392 JUMPI DUP2 PUSH1 0x3 NOT CALLDATASIZE ADD SLT PUSH2 0x392 JUMPI PUSH2 0x120 SWAP1 PUSH2 0xD5E PUSH2 0x1CBC JUMP JUMPDEST SWAP8 SWAP9 SWAP7 PUSH1 0x40 SWAP7 SWAP2 SWAP7 SWAP6 SWAP3 SWAP6 SWAP5 SWAP4 SWAP5 MLOAD SWAP10 DUP11 MSTORE PUSH1 0x20 DUP11 ADD MSTORE PUSH1 0x1 DUP1 PUSH1 0xA0 SHL SUB AND PUSH1 0x40 DUP10 ADD MSTORE PUSH1 0x60 DUP9 ADD MSTORE PUSH1 0x80 DUP8 ADD MSTORE PUSH1 0xA0 DUP7 ADD MSTORE PUSH1 0xC0 DUP6 ADD MSTORE ISZERO ISZERO SWAP1 DUP4 ADD MSTORE PUSH2 0x100 DUP3 ADD MSTORE RETURN JUMPDEST DUP4 DUP3 CALLVALUE PUSH2 0x392 JUMPI PUSH1 0x20 CALLDATASIZE PUSH1 0x3 NOT ADD SLT PUSH2 0x392 JUMPI DUP1 CALLDATALOAD SWAP1 PUSH2 0xDC2 PUSH2 0x23DE JUMP JUMPDEST PUSH1 0x1E DUP3 LT ISZERO DUP1 PUSH2 0xE4C JUMPI JUMPDEST ISZERO PUSH2 0xE1E JUMPI POP PUSH1 0x0 DUP1 MLOAD PUSH1 0x20 PUSH2 0x2FFA DUP4 CODECOPY DUP2 MLOAD SWAP2 MSTORE PUSH1 0xA0 PUSH1 0xB SLOAD PUSH1 0x40 MLOAD SWAP1 PUSH1 0x60 DUP3 MSTORE PUSH1 0xD PUSH1 0x60 DUP4 ADD MSTORE PUSH13 0x686F745A6F6E65426C6F636B73 PUSH1 0x98 SHL PUSH1 0x80 DUP4 ADD MSTORE PUSH1 0x20 DUP3 ADD MSTORE DUP4 PUSH1 0x40 DUP3 ADD MSTORE LOG1 PUSH1 0xB SSTORE DUP1 RETURN JUMPDEST PUSH1 0x64 SWAP1 PUSH1 0x20 PUSH1 0x40 MLOAD SWAP2 PUSH3 0x461BCD PUSH1 0xE5 SHL DUP4 MSTORE DUP3 ADD MSTORE PUSH1 0x7 PUSH1 0x24 DUP3 ADD MSTORE PUSH7 0x1896999836B4B7 PUSH1 0xC9 SHL PUSH1 0x44 DUP3 ADD MSTORE REVERT JUMPDEST POP PUSH2 0x384 DUP3 GT ISZERO PUSH2 0xDCD JUMP JUMPDEST DUP4 CALLVALUE PUSH2 0x296 JUMPI DUP1 PUSH1 0x3 NOT CALLDATASIZE ADD SLT PUSH2 0x296 JUMPI PUSH1 0x20 PUSH1 0x13 SLOAD PUSH1 0x40 MLOAD SWAP1 DUP2 MSTORE RETURN JUMPDEST DUP4 CALLVALUE PUSH2 0x296 JUMPI DUP1 PUSH1 0x3 NOT CALLDATASIZE ADD SLT PUSH2 0x296 JUMPI SLOAD PUSH1 0x40 MLOAD PUSH1 0x1 PUSH1 0x1 PUSH1 0xA0 SHL SUB SWAP1 SWAP2 AND DUP2 MSTORE PUSH1 0x20 SWAP1 RETURN JUMPDEST DUP4 DUP3 CALLVALUE PUSH2 0x392 JUMPI PUSH1 0x20 CALLDATASIZE PUSH1 0x3 NOT ADD SLT PUSH2 0x392 JUMPI SWAP1 PUSH1 0x40 SWAP2 CALLDATALOAD DUP2 MSTORE PUSH1 0x14 PUSH1 0x20 MSTORE KECCAK256 PUSH2 0x1C0 MSTORE PUSH2 0xECD PUSH2 0x1C0 MLOAD PUSH2 0x1B37 JUMP JUMPDEST PUSH2 0x1C0 MLOAD PUSH1 0xB DUP2 ADD SLOAD PUSH2 0x100 MSTORE PUSH1 0xC DUP2 ADD SLOAD PUSH2 0x140 MSTORE PUSH1 0xD DUP2 ADD SLOAD PUSH1 0xE DUP3 ADD SLOAD PUSH1 0xF DUP4 ADD SLOAD PUSH1 0x10 DUP5 ADD SLOAD PUSH1 0x11 DUP6 ADD SLOAD PUSH1 0x12 DUP7 ADD SLOAD PUSH1 0x13 DUP8 ADD SLOAD PUSH1 0x14 DUP9 ADD SLOAD PUSH1 0x15 DUP10 ADD SLOAD PUSH1 0x16 DUP11 ADD SLOAD PUSH1 0x17 DUP12 ADD SLOAD PUSH1 0x18 DUP13 ADD SLOAD PUSH1 0x19 DUP14 ADD SLOAD PUSH1 0x1A DUP15 ADD SLOAD PUSH1 0xFF AND PUSH1 0x80 MSTORE PUSH1 0x1B DUP15 ADD SLOAD PUSH1 0xC0 MSTORE PUSH1 0x1C DUP15 ADD SLOAD PUSH2 0x1A0 MSTORE PUSH1 0x1D DUP15 ADD SLOAD PUSH2 0x180 MSTORE PUSH1 0x1E DUP15 ADD SLOAD PUSH2 0x160 MSTORE PUSH1 0x1F DUP15 ADD SLOAD PUSH2 0x120 MSTORE PUSH1 0x20 SWAP1 SWAP14 ADD SLOAD PUSH1 0x1 PUSH1 0x1 PUSH1 0xA0 SHL SUB SWAP1 DUP2 AND PUSH1 0xE0 MSTORE PUSH1 0x40 MLOAD PUSH1 0xA0 DUP2 SWAP1 MSTORE SWAP14 SWAP15 SWAP2 SWAP14 SWAP3 SWAP13 SWAP4 AND SWAP11 SWAP4 SWAP10 SWAP5 SWAP9 SWAP6 SWAP8 SWAP6 SWAP5 SWAP4 SWAP3 SWAP2 PUSH2 0xF94 SWAP2 PUSH2 0x1BB2 JUMP JUMPDEST PUSH2 0x100 MLOAD PUSH2 0x160 PUSH1 0xA0 MLOAD ADD MSTORE PUSH2 0x140 MLOAD PUSH2 0x180 PUSH1 0xA0 MLOAD ADD MSTORE PUSH2 0x1A0 PUSH1 0xA0 MLOAD ADD MSTORE PUSH2 0x1C0 PUSH1 0xA0 MLOAD ADD MSTORE PUSH2 0x1E0 PUSH1 0xA0 MLOAD ADD MSTORE PUSH2 0x200 PUSH1 0xA0 MLOAD ADD MSTORE PUSH2 0x220 PUSH1 0xA0 MLOAD ADD MSTORE PUSH2 0x240 PUSH1 0xA0 MLOAD ADD MSTORE PUSH2 0x260 PUSH1 0xA0 MLOAD ADD MSTORE PUSH2 0x280 PUSH1 0xA0 MLOAD ADD MSTORE PUSH2 0x2A0 PUSH1 0xA0 MLOAD ADD MSTORE PUSH2 0x2C0 PUSH1 0xA0 MLOAD ADD MSTORE PUSH2 0x2E0 PUSH1 0xA0 MLOAD ADD MSTORE PUSH2 0x300 PUSH1 0xA0 MLOAD ADD MSTORE PUSH2 0x320 PUSH1 0xA0 MLOAD ADD MSTORE PUSH1 0x80 MLOAD ISZERO ISZERO PUSH2 0x340 PUSH1 0xA0 MLOAD ADD MSTORE PUSH1 0xC0 MLOAD PUSH2 0x360 PUSH1 0xA0 MLOAD ADD MSTORE PUSH2 0x1A0 MLOAD PUSH2 0x380 PUSH1 0xA0 MLOAD ADD MSTORE PUSH2 0x180 MLOAD PUSH2 0x3A0 PUSH1 0xA0 MLOAD ADD MSTORE PUSH2 0x160 MLOAD PUSH2 0x3C0 PUSH1 0xA0 MLOAD ADD MSTORE PUSH2 0x120 MLOAD PUSH2 0x3E0 PUSH1 0xA0 MLOAD ADD MSTORE PUSH1 0xE0 MLOAD PUSH2 0x400 PUSH1 0xA0 MLOAD ADD MSTORE PUSH2 0x420 PUSH1 0xA0 MLOAD RETURN JUMPDEST DUP4 CALLVALUE PUSH2 0x296 JUMPI DUP1 PUSH1 0x3 NOT CALLDATASIZE ADD SLT PUSH2 0x296 JUMPI PUSH1 0x20 PUSH1 0x19 SLOAD PUSH1 0x40 MLOAD SWAP1 DUP2 MSTORE RETURN JUMPDEST DUP4 CALLVALUE PUSH2 0x296 JUMPI DUP1 PUSH1 0x3 NOT CALLDATASIZE ADD SLT PUSH2 0x296 JUMPI PUSH1 0x20 PUSH1 0xE SLOAD PUSH1 0x40 MLOAD SWAP1 DUP2 MSTORE RETURN JUMPDEST SWAP2 POP CALLVALUE PUSH2 0xA92 JUMPI PUSH1 0x20 CALLDATASIZE PUSH1 0x3 NOT ADD SLT PUSH2 0xA92 JUMPI PUSH2 0x180 SWAP3 PUSH1 0x40 SWAP2 CALLDATALOAD DUP2 MSTORE PUSH1 0x14 PUSH1 0x20 MSTORE KECCAK256 SWAP1 PUSH1 0xB DUP3 ADD SLOAD SWAP2 PUSH1 0xC DUP2 ADD SLOAD SWAP2 PUSH1 0xD DUP3 ADD SLOAD SWAP1 PUSH1 0xE DUP4 ADD SLOAD PUSH1 0x1 DUP1 PUSH1 0xA0 SHL SUB SWAP2 DUP3 PUSH1 0x16 DUP7 ADD SLOAD AND PUSH1 0x17 DUP7 ADD SLOAD PUSH1 0xFF PUSH1 0x1A DUP9 ADD SLOAD AND SWAP2 PUSH1 0x1B DUP9 ADD SLOAD SWAP5 PUSH1 0x1D DUP10 ADD SLOAD SWAP7 PUSH1 0x20 DUP11 ADD SLOAD AND SWAP8 PUSH1 0x1F PUSH1 0x1E DUP12 ADD SLOAD SWAP11 ADD SLOAD SWAP11 PUSH1 0x40 MLOAD SWAP13 DUP14 MSTORE PUSH1 0x20 DUP14 ADD MSTORE PUSH1 0x40 DUP13 ADD MSTORE PUSH1 0x60 DUP12 ADD MSTORE PUSH1 0x80 DUP11 ADD MSTORE PUSH1 0xA0 DUP10 ADD MSTORE ISZERO ISZERO PUSH1 0xC0 DUP9 ADD MSTORE DUP7 ADD MSTORE PUSH2 0x100 DUP6 ADD MSTORE PUSH2 0x120 DUP5 ADD MSTORE PUSH2 0x140 DUP4 ADD MSTORE PUSH2 0x160 DUP3 ADD MSTORE RETURN JUMPDEST DUP4 DUP3 CALLVALUE PUSH2 0x392 JUMPI PUSH1 0x20 CALLDATASIZE PUSH1 0x3 NOT ADD SLT PUSH2 0x392 JUMPI DUP1 CALLDATALOAD SWAP1 PUSH2 0x1182 PUSH2 0x23DE JUMP JUMPDEST PUSH2 0x708 DUP3 LT ISZERO DUP1 PUSH2 0x120D JUMPI JUMPDEST ISZERO PUSH2 0x11E1 JUMPI POP PUSH1 0x0 DUP1 MLOAD PUSH1 0x20 PUSH2 0x2FFA DUP4 CODECOPY DUP2 MLOAD SWAP2 MSTORE PUSH1 0xA0 PUSH1 0x2 SLOAD PUSH1 0x40 MLOAD SWAP1 PUSH1 0x60 DUP3 MSTORE PUSH1 0xF PUSH1 0x60 DUP4 ADD MSTORE PUSH15 0x6261736554696D6572426C6F636B73 PUSH1 0x88 SHL PUSH1 0x80 DUP4 ADD MSTORE PUSH1 0x20 DUP3 ADD MSTORE DUP4 PUSH1 0x40 DUP3 ADD MSTORE LOG1 PUSH1 0x2 SSTORE DUP1 RETURN JUMPDEST PUSH1 0x64 SWAP1 PUSH1 0x20 PUSH1 0x40 MLOAD SWAP2 PUSH3 0x461BCD PUSH1 0xE5 SHL DUP4 MSTORE DUP3 ADD MSTORE PUSH1 0x5 PUSH1 0x24 DUP3 ADD MSTORE PUSH5 0xC5A0B4DD9 PUSH1 0xDA SHL PUSH1 0x44 DUP3 ADD MSTORE REVERT JUMPDEST POP PUSH3 0x49D40 DUP3 GT ISZERO PUSH2 0x118E JUMP JUMPDEST POP DUP3 CALLVALUE PUSH2 0x296 JUMPI PUSH1 0x20 SWAP2 DUP3 PUSH1 0x3 NOT CALLDATASIZE ADD SLT PUSH2 0x392 JUMPI DUP1 CALLDATALOAD SWAP1 PUSH2 0x123A PUSH2 0x2E45 JUMP JUMPDEST DUP2 ISZERO PUSH2 0x1327 JUMPI POP DUP2 SWAP3 PUSH2 0x126F DUP3 ADDRESS CALLER PUSH32 0x0 PUSH2 0x2E68 JUMP JUMPDEST PUSH1 0xF SLOAD PUSH1 0xFF AND ISZERO PUSH2 0x12EA JUMPI PUSH32 0xE6A717F59DCC76969CA6F9D6A58041EEE35BC5A4CEC7EAA1D4201A42E2D43E77 SWAP2 SWAP3 POP PUSH1 0xE SLOAD DUP5 MSTORE PUSH1 0x14 DUP2 MSTORE PUSH1 0xB PUSH1 0x40 DUP6 KECCAK256 ADD PUSH2 0x12B9 DUP5 DUP3 SLOAD PUSH2 0x1C8C JUMP JUMPDEST SWAP1 SSTORE PUSH1 0xE SLOAD DUP5 MSTORE PUSH1 0x14 DUP2 MSTORE PUSH1 0xC PUSH1 0x40 DUP6 KECCAK256 ADD PUSH2 0x12D6 DUP5 DUP3 SLOAD PUSH2 0x1C8C JUMP JUMPDEST SWAP1 SSTORE PUSH1 0xE SLOAD SWAP3 PUSH1 0x40 MLOAD SWAP1 DUP2 MSTORE LOG2 PUSH1 0x1 DUP1 SSTORE DUP1 RETURN JUMPDEST DUP2 PUSH2 0x1318 PUSH32 0xE6A717F59DCC76969CA6F9D6A58041EEE35BC5A4CEC7EAA1D4201A42E2D43E77 SWAP4 PUSH1 0x12 SLOAD PUSH2 0x1C8C JUMP JUMPDEST PUSH1 0x12 SSTORE PUSH1 0x40 MLOAD SWAP1 DUP2 MSTORE LOG2 PUSH2 0x3C8 JUMP JUMPDEST PUSH1 0x40 MLOAD PUSH3 0x461BCD PUSH1 0xE5 SHL DUP2 MSTORE SWAP1 DUP2 ADD DUP5 SWAP1 MSTORE PUSH1 0xB PUSH1 0x24 DUP3 ADD MSTORE PUSH11 0x16995C9BC8185B5BDD5B9D PUSH1 0xAA SHL PUSH1 0x44 DUP3 ADD MSTORE PUSH1 0x64 SWAP1 REVERT JUMPDEST DUP4 DUP3 CALLVALUE PUSH2 0x392 JUMPI PUSH1 0x40 CALLDATASIZE PUSH1 0x3 NOT ADD SLT PUSH2 0x392 JUMPI PUSH1 0x20 SWAP2 PUSH1 0x40 SWAP2 PUSH2 0x137A PUSH2 0x1A78 JUMP JUMPDEST SWAP1 CALLDATALOAD DUP3 MSTORE PUSH1 0x18 DUP5 MSTORE DUP3 DUP3 KECCAK256 PUSH1 0x1 PUSH1 0x1 PUSH1 0xA0 SHL SUB SWAP1 SWAP2 AND DUP3 MSTORE DUP4 MSTORE KECCAK256 SLOAD PUSH1 0x40 MLOAD SWAP1 DUP2 MSTORE RETURN JUMPDEST DUP4 CALLVALUE PUSH2 0x296 JUMPI DUP1 PUSH1 0x3 NOT CALLDATASIZE ADD SLT PUSH2 0x296 JUMPI PUSH2 0x13B7 PUSH2 0x23DE JUMP JUMPDEST DUP1 SLOAD PUSH1 0x1 PUSH1 0x1 PUSH1 0xA0 SHL SUB NOT DUP2 AND DUP3 SSTORE DUP2 SWAP1 PUSH1 0x1 PUSH1 0x1 PUSH1 0xA0 SHL SUB AND PUSH32 0x8BE0079C531659141344CD1FD0A4F28419497F9722A3DAAFE3B4186F6B6457E0 DUP3 DUP1 LOG3 DUP1 RETURN JUMPDEST DUP4 CALLVALUE PUSH2 0x296 JUMPI DUP1 PUSH1 0x3 NOT CALLDATASIZE ADD SLT PUSH2 0x296 JUMPI PUSH1 0xC0 PUSH1 0x19 SLOAD PUSH1 0x1A SLOAD PUSH1 0x1B SLOAD PUSH1 0x1C SLOAD PUSH1 0x1D SLOAD SWAP2 PUSH1 0xFF PUSH1 0xF SLOAD AND SWAP4 PUSH1 0x40 MLOAD SWAP6 DUP7 MSTORE PUSH1 0x20 DUP7 ADD MSTORE PUSH1 0x40 DUP6 ADD MSTORE PUSH1 0x60 DUP5 ADD MSTORE PUSH1 0x80 DUP4 ADD MSTORE ISZERO ISZERO PUSH1 0xA0 DUP3 ADD MSTORE RETURN JUMPDEST DUP4 DUP3 CALLVALUE PUSH2 0x392 JUMPI PUSH1 0x40 CALLDATASIZE PUSH1 0x3 NOT ADD SLT PUSH2 0x392 JUMPI PUSH1 0x20 SWAP2 PUSH1 0x40 SWAP2 PUSH2 0x1466 PUSH2 0x1A78 JUMP JUMPDEST SWAP1 CALLDATALOAD DUP3 MSTORE PUSH1 0x17 DUP5 MSTORE DUP3 DUP3 KECCAK256 PUSH1 0x1 PUSH1 0x1 PUSH1 0xA0 SHL SUB SWAP1 SWAP2 AND DUP3 MSTORE DUP4 MSTORE KECCAK256 SLOAD PUSH1 0x40 MLOAD SWAP1 DUP2 MSTORE RETURN JUMPDEST SWAP2 POP CALLVALUE PUSH2 0xA92 JUMPI DUP3 PUSH1 0x3 NOT CALLDATASIZE ADD SLT PUSH2 0xA92 JUMPI PUSH2 0x160 SWAP3 POP PUSH1 0x2 SLOAD SWAP2 PUSH1 0x3 SLOAD SWAP2 SLOAD SWAP1 PUSH1 0x5 SLOAD SWAP1 PUSH1 0x6 SLOAD SWAP1 PUSH1 0x7 SLOAD PUSH1 0x8 SLOAD SWAP1 PUSH1 0x9 SLOAD SWAP4 PUSH1 0xA SLOAD SWAP6 PUSH1 0xB SLOAD SWAP8 PUSH1 0xC SLOAD SWAP10 PUSH1 0x40 MLOAD SWAP12 DUP13 MSTORE PUSH1 0x20 DUP13 ADD MSTORE PUSH1 0x40 DUP12 ADD MSTORE PUSH1 0x60 DUP11 ADD MSTORE PUSH1 0x80 DUP10 ADD MSTORE PUSH1 0xA0 DUP9 ADD MSTORE PUSH1 0xC0 DUP8 ADD MSTORE DUP6 ADD MSTORE PUSH2 0x100 DUP5 ADD MSTORE PUSH2 0x120 DUP4 ADD MSTORE PUSH2 0x140 DUP3 ADD MSTORE RETURN JUMPDEST DUP4 CALLVALUE PUSH2 0x296 JUMPI DUP1 PUSH1 0x3 NOT CALLDATASIZE ADD SLT PUSH2 0x296 JUMPI PUSH1 0x20 PUSH1 0x1D SLOAD PUSH1 0x40 MLOAD SWAP1 DUP2 MSTORE RETURN JUMPDEST DUP4 CALLVALUE PUSH2 0x296 JUMPI DUP1 PUSH1 0x3 NOT CALLDATASIZE ADD SLT PUSH2 0x296 JUMPI PUSH1 0x20 PUSH1 0xFF PUSH1 0xF SLOAD PUSH1 0x8 SHR AND PUSH1 0x40 MLOAD SWAP1 ISZERO ISZERO DUP2 MSTORE RETURN JUMPDEST DUP4 DUP3 CALLVALUE PUSH2 0x392 JUMPI PUSH1 0x20 CALLDATASIZE PUSH1 0x3 NOT ADD SLT PUSH2 0x392 JUMPI CALLDATALOAD PUSH2 0x1565 PUSH2 0x23DE JUMP JUMPDEST PUSH2 0x1573 PUSH2 0x1F4 DUP3 GT ISZERO PUSH2 0x1C57 JUMP JUMPDEST PUSH1 0x0 DUP1 MLOAD PUSH1 0x20 PUSH2 0x2FFA DUP4 CODECOPY DUP2 MLOAD SWAP2 MSTORE PUSH1 0xA0 PUSH1 0x8 SLOAD PUSH1 0x40 MLOAD SWAP1 PUSH1 0x60 DUP3 MSTORE PUSH1 0x8 PUSH1 0x60 DUP4 ADD MSTORE PUSH8 0x6F776E6572427073 PUSH1 0xC0 SHL PUSH1 0x80 DUP4 ADD MSTORE PUSH1 0x20 DUP3 ADD MSTORE DUP4 PUSH1 0x40 DUP3 ADD MSTORE LOG1 PUSH1 0x8 SSTORE DUP1 RETURN JUMPDEST DUP4 DUP3 CALLVALUE PUSH2 0x392 JUMPI PUSH1 0x40 CALLDATASIZE PUSH1 0x3 NOT ADD SLT PUSH2 0x392 JUMPI PUSH1 0x20 SWAP2 PUSH1 0x40 SWAP2 PUSH2 0x15DA PUSH2 0x1A78 JUMP JUMPDEST SWAP1 CALLDATALOAD DUP3 MSTORE PUSH1 0x16 DUP5 MSTORE DUP3 DUP3 KECCAK256 PUSH1 0x1 PUSH1 0x1 PUSH1 0xA0 SHL SUB SWAP1 SWAP2 AND DUP3 MSTORE DUP4 MSTORE KECCAK256 SLOAD PUSH1 0x40 MLOAD SWAP1 DUP2 MSTORE RETURN JUMPDEST DUP4 CALLVALUE PUSH2 0x296 JUMPI DUP1 PUSH1 0x3 NOT CALLDATASIZE ADD SLT PUSH2 0x296 JUMPI PUSH2 0x1617 PUSH2 0x23DE JUMP JUMPDEST PUSH2 0x100 PUSH2 0xFF00 NOT PUSH1 0xF SLOAD AND OR PUSH1 0xF SSTORE CALLER PUSH32 0x62E78CEA01BEE320CD4E420270B5EA74000D11B0C9F74754EBDBFC544B05A258 DUP3 DUP1 LOG2 DUP1 RETURN JUMPDEST SWAP1 SWAP2 POP CALLVALUE PUSH2 0xA92 JUMPI PUSH1 0x20 CALLDATASIZE PUSH1 0x3 NOT ADD SLT PUSH2 0xA92 JUMPI SWAP2 PUSH2 0x120 SWAP3 PUSH1 0x40 PUSH2 0x1671 PUSH2 0x1A93 JUMP JUMPDEST SWAP3 DUP2 MLOAD SWAP4 PUSH2 0x167E DUP6 PUSH2 0x1AA9 JUMP JUMPDEST DUP2 DUP6 MSTORE DUP2 PUSH1 0x20 DUP7 ADD MSTORE DUP2 DUP4 DUP7 ADD MSTORE DUP2 PUSH1 0x60 DUP7 ADD MSTORE DUP2 PUSH1 0x80 DUP7 ADD MSTORE DUP2 PUSH1 0xA0 DUP7 ADD MSTORE DUP2 PUSH1 0xC0 DUP7 ADD MSTORE DUP2 DUP5 DUP7 ADD MSTORE DUP2 PUSH2 0x100 DUP1 SWAP7 ADD MSTORE PUSH1 0x1 DUP1 PUSH1 0xA0 SHL SUB AND DUP2 MSTORE PUSH1 0x1E PUSH1 0x20 MSTORE KECCAK256 SWAP1 PUSH1 0x40 MLOAD SWAP2 PUSH2 0x16CF DUP4 PUSH2 0x1AA9 JUMP JUMPDEST DUP1 SLOAD SWAP5 DUP6 DUP5 MSTORE PUSH1 0x1 DUP3 ADD SLOAD SWAP1 PUSH1 0x20 DUP6 ADD SWAP2 DUP3 MSTORE PUSH1 0x2 DUP4 ADD SLOAD SWAP1 PUSH1 0x40 DUP7 ADD SWAP2 DUP3 MSTORE PUSH1 0x3 DUP5 ADD SLOAD SWAP1 PUSH1 0x60 DUP8 ADD SWAP2 DUP3 MSTORE DUP5 ADD SLOAD SWAP1 PUSH1 0x80 DUP8 ADD SWAP2 DUP3 MSTORE PUSH1 0x5 DUP6 ADD SLOAD SWAP3 PUSH1 0xA0 DUP9 ADD SWAP4 DUP5 MSTORE PUSH1 0x6 DUP7 ADD SLOAD SWAP5 PUSH1 0xC0 DUP10 ADD SWAP6 DUP7 MSTORE DUP10 PUSH1 0x8 PUSH1 0x7 DUP10 ADD SLOAD SWAP9 DUP11 DUP13 ADD SWAP10 DUP11 MSTORE ADD SLOAD SWAP10 ADD SWAP9 DUP10 MSTORE PUSH1 0x40 MLOAD SWAP11 DUP12 MSTORE MLOAD PUSH1 0x20 DUP12 ADD MSTORE MLOAD PUSH1 0x40 DUP11 ADD MSTORE MLOAD PUSH1 0x60 DUP10 ADD MSTORE MLOAD PUSH1 0x80 DUP9 ADD MSTORE MLOAD PUSH1 0xA0 DUP8 ADD MSTORE MLOAD PUSH1 0xC0 DUP7 ADD MSTORE MLOAD SWAP1 DUP5 ADD MSTORE MLOAD SWAP1 DUP3 ADD MSTORE RETURN JUMPDEST DUP4 CALLVALUE PUSH2 0x296 JUMPI DUP1 PUSH1 0x3 NOT CALLDATASIZE ADD SLT PUSH2 0x296 JUMPI PUSH2 0x1786 PUSH2 0x23DE JUMP JUMPDEST PUSH2 0xFF00 NOT PUSH1 0xF SLOAD AND PUSH1 0xF SSTORE CALLER PUSH32 0x5DB9EE0A495BF2E6FF9C91A7834C1BA4FDD244A5E8AA4E537BD38AEAE4B073AA DUP3 DUP1 LOG2 DUP1 RETURN JUMPDEST DUP4 DUP3 CALLVALUE PUSH2 0x392 JUMPI PUSH1 0x40 CALLDATASIZE PUSH1 0x3 NOT ADD SLT PUSH2 0x392 JUMPI SWAP1 PUSH1 0x80 SWAP2 CALLDATALOAD SWAP1 PUSH2 0x17DA PUSH2 0x1A78 JUMP JUMPDEST SWAP2 DUP1 DUP3 MSTORE PUSH1 0x20 SWAP2 PUSH1 0x16 DUP4 MSTORE PUSH1 0x40 DUP2 KECCAK256 PUSH1 0x1 DUP1 PUSH1 0xA0 SHL SUB DUP1 SWAP6 AND SWAP1 DUP2 DUP4 MSTORE DUP5 MSTORE PUSH1 0x40 DUP3 KECCAK256 SLOAD SWAP5 DUP4 DUP4 MSTORE PUSH1 0x17 DUP6 MSTORE PUSH1 0x40 DUP4 KECCAK256 DUP3 DUP5 MSTORE DUP6 MSTORE PUSH1 0x16 PUSH1 0x40 DUP1 DUP6 KECCAK256 SLOAD SWAP5 DUP7 DUP2 MSTORE PUSH1 0x18 DUP9 MSTORE DUP2 DUP2 KECCAK256 DUP6 DUP3 MSTORE DUP9 MSTORE DUP2 DUP2 KECCAK256 SLOAD SWAP7 DUP2 MSTORE PUSH1 0x14 DUP9 MSTORE KECCAK256 ADD SLOAD AND EQ SWAP3 PUSH1 0x40 MLOAD SWAP5 DUP6 MSTORE DUP5 ADD MSTORE PUSH1 0x40 DUP4 ADD MSTORE PUSH1 0x60 DUP3 ADD MSTORE RETURN JUMPDEST DUP4 CALLVALUE PUSH2 0x296 JUMPI DUP1 PUSH1 0x3 NOT CALLDATASIZE ADD SLT PUSH2 0x296 JUMPI PUSH1 0xD SLOAD PUSH1 0x40 MLOAD PUSH1 0x1 PUSH1 0x1 PUSH1 0xA0 SHL SUB SWAP1 SWAP2 AND DUP2 MSTORE PUSH1 0x20 SWAP1 RETURN JUMPDEST DUP4 DUP3 CALLVALUE PUSH2 0x392 JUMPI PUSH1 0x20 CALLDATASIZE PUSH1 0x3 NOT ADD SLT PUSH2 0x392 JUMPI DUP1 CALLDATALOAD SWAP1 PUSH2 0x1894 PUSH2 0x23DE JUMP JUMPDEST PUSH7 0x38D7EA4C68000 DUP3 LT ISZERO DUP1 PUSH2 0x1922 JUMPI JUMPDEST ISZERO PUSH2 0x18F4 JUMPI POP PUSH1 0x0 DUP1 MLOAD PUSH1 0x20 PUSH2 0x2FFA DUP4 CODECOPY DUP2 MLOAD SWAP2 MSTORE PUSH1 0xA0 PUSH1 0x6 SLOAD PUSH1 0x40 MLOAD SWAP1 PUSH1 0x60 DUP3 MSTORE PUSH1 0xB PUSH1 0x60 DUP4 ADD MSTORE PUSH11 0x1B5A5B91DC985890DBDCDD PUSH1 0xAA SHL PUSH1 0x80 DUP4 ADD MSTORE PUSH1 0x20 DUP3 ADD MSTORE DUP4 PUSH1 0x40 DUP3 ADD MSTORE LOG1 PUSH1 0x6 SSTORE DUP1 RETURN JUMPDEST PUSH1 0x64 SWAP1 PUSH1 0x20 PUSH1 0x40 MLOAD SWAP2 PUSH3 0x461BCD PUSH1 0xE5 SHL DUP4 MSTORE DUP3 ADD MSTORE PUSH1 0x7 PUSH1 0x24 DUP3 ADD MSTORE PUSH7 0x302E3030312D35 PUSH1 0xC8 SHL PUSH1 0x44 DUP3 ADD MSTORE REVERT JUMPDEST POP PUSH8 0x4563918244F40000 DUP3 GT ISZERO PUSH2 0x18A5 JUMP JUMPDEST DUP4 CALLVALUE PUSH2 0x296 JUMPI DUP1 PUSH1 0x3 NOT CALLDATASIZE ADD SLT PUSH2 0x296 JUMPI PUSH1 0x20 PUSH1 0x40 MLOAD PUSH2 0x2710 DUP2 MSTORE RETURN JUMPDEST DUP4 CALLVALUE PUSH2 0x296 JUMPI DUP1 PUSH1 0x3 NOT CALLDATASIZE ADD SLT PUSH2 0x296 JUMPI PUSH1 0xFF PUSH1 0xF SLOAD AND DUP1 PUSH2 0x197B JUMPI JUMPDEST PUSH1 0x20 SWAP1 PUSH1 0x40 MLOAD SWAP1 ISZERO ISZERO DUP2 MSTORE RETURN JUMPDEST POP PUSH1 0x11 SLOAD NUMBER LT ISZERO PUSH2 0x196E JUMP JUMPDEST DUP4 DUP3 CALLVALUE PUSH2 0x392 JUMPI DUP2 PUSH1 0x3 NOT CALLDATASIZE ADD SLT PUSH2 0x392 JUMPI PUSH2 0x19A1 PUSH2 0x23DE JUMP JUMPDEST PUSH1 0xFF PUSH1 0xF SLOAD PUSH2 0x19B4 DUP3 DUP3 PUSH1 0x8 SHR AND PUSH2 0x1C1E JUMP JUMPDEST AND ISZERO PUSH2 0x19ED JUMPI POP PUSH2 0x19C3 PUSH2 0x247B JUMP JUMPDEST PUSH1 0xE SLOAD PUSH32 0x900E907F9C9B41743F506B7F161368A7EDE0785F9E3FEA29DEA2E6ADAF94A3CF DUP3 DUP1 LOG2 DUP1 RETURN JUMPDEST PUSH1 0x64 SWAP1 PUSH1 0x20 PUSH1 0x40 MLOAD SWAP2 PUSH3 0x461BCD PUSH1 0xE5 SHL DUP4 MSTORE DUP3 ADD MSTORE PUSH1 0x8 PUSH1 0x24 DUP3 ADD MSTORE PUSH8 0x139BC81C9BDD5B99 PUSH1 0xC2 SHL PUSH1 0x44 DUP3 ADD MSTORE REVERT JUMPDEST DUP4 CALLVALUE PUSH2 0x296 JUMPI DUP1 PUSH1 0x3 NOT CALLDATASIZE ADD SLT PUSH2 0x296 JUMPI PUSH1 0x20 PUSH1 0x40 MLOAD PUSH2 0xDEAD DUP2 MSTORE RETURN JUMPDEST DUP4 CALLVALUE PUSH2 0x296 JUMPI DUP1 PUSH1 0x3 NOT CALLDATASIZE ADD SLT PUSH2 0x296 JUMPI PUSH1 0x20 PUSH1 0xFF PUSH1 0xF SLOAD AND PUSH1 0x40 MLOAD SWAP1 ISZERO ISZERO DUP2 MSTORE RETURN JUMPDEST DUP5 SWAP1 CALLVALUE PUSH2 0x392 JUMPI DUP2 PUSH1 0x3 NOT CALLDATASIZE ADD SLT PUSH2 0x392 JUMPI PUSH1 0x20 SWAP1 PUSH1 0x11 SLOAD DUP2 MSTORE RETURN JUMPDEST PUSH1 0x24 CALLDATALOAD SWAP1 PUSH1 0x1 PUSH1 0x1 PUSH1 0xA0 SHL SUB DUP3 AND DUP3 SUB PUSH2 0x1A8E JUMPI JUMP JUMPDEST PUSH1 0x0 DUP1 REVERT JUMPDEST PUSH1 0x4 CALLDATALOAD SWAP1 PUSH1 0x1 PUSH1 0x1 PUSH1 0xA0 SHL SUB DUP3 AND DUP3 SUB PUSH2 0x1A8E JUMPI JUMP JUMPDEST PUSH2 0x120 DUP2 ADD SWAP1 DUP2 LT PUSH8 0xFFFFFFFFFFFFFFFF DUP3 GT OR PUSH2 0x1AC6 JUMPI PUSH1 0x40 MSTORE JUMP JUMPDEST PUSH4 0x4E487B71 PUSH1 0xE0 SHL PUSH1 0x0 MSTORE PUSH1 0x41 PUSH1 0x4 MSTORE PUSH1 0x24 PUSH1 0x0 REVERT JUMPDEST PUSH2 0x160 DUP2 ADD SWAP1 DUP2 LT PUSH8 0xFFFFFFFFFFFFFFFF DUP3 GT OR PUSH2 0x1AC6 JUMPI PUSH1 0x40 MSTORE JUMP JUMPDEST PUSH1 0x80 DUP2 ADD SWAP1 DUP2 LT PUSH8 0xFFFFFFFFFFFFFFFF DUP3 GT OR PUSH2 0x1AC6 JUMPI PUSH1 0x40 MSTORE JUMP JUMPDEST SWAP1 PUSH1 0x1F DUP1 NOT SWAP2 ADD AND DUP2 ADD SWAP1 DUP2 LT PUSH8 0xFFFFFFFFFFFFFFFF DUP3 GT OR PUSH2 0x1AC6 JUMPI PUSH1 0x40 MSTORE JUMP JUMPDEST SWAP1 PUSH1 0x40 MLOAD PUSH2 0x1B44 DUP2 PUSH2 0x1ADC JUMP JUMPDEST PUSH2 0x140 PUSH1 0xA DUP3 SWAP5 DUP1 SLOAD DUP5 MSTORE PUSH1 0x1 DUP2 ADD SLOAD PUSH1 0x20 DUP6 ADD MSTORE PUSH1 0x2 DUP2 ADD SLOAD PUSH1 0x40 DUP6 ADD MSTORE PUSH1 0x3 DUP2 ADD SLOAD PUSH1 0x60 DUP6 ADD MSTORE PUSH1 0x4 DUP2 ADD SLOAD PUSH1 0x80 DUP6 ADD MSTORE PUSH1 0x5 DUP2 ADD SLOAD PUSH1 0xA0 DUP6 ADD MSTORE PUSH1 0x6 DUP2 ADD SLOAD PUSH1 0xC0 DUP6 ADD MSTORE PUSH1 0x7 DUP2 ADD SLOAD PUSH1 0xE0 DUP6 ADD MSTORE PUSH1 0x8 DUP2 ADD SLOAD PUSH2 0x100 DUP6 ADD MSTORE PUSH1 0x9 DUP2 ADD SLOAD PUSH2 0x120 DUP6 ADD MSTORE ADD SLOAD SWAP2 ADD MSTORE JUMP JUMPDEST DUP1 MLOAD DUP3 MSTORE PUSH1 0x20 DUP2 ADD MLOAD PUSH1 0x20 DUP4 ADD MSTORE PUSH1 0x40 DUP2 ADD MLOAD PUSH1 0x40 DUP4 ADD MSTORE PUSH1 0x60 DUP2 ADD MLOAD PUSH1 0x60 DUP4 ADD MSTORE PUSH1 0x80 DUP2 ADD MLOAD PUSH1 0x80 DUP4 ADD MSTORE PUSH1 0xA0 DUP2 ADD MLOAD PUSH1 0xA0 DUP4 ADD MSTORE PUSH1 0xC0 DUP2 ADD MLOAD PUSH1 0xC0 DUP4 ADD MSTORE PUSH1 0xE0 DUP2 ADD MLOAD PUSH1 0xE0 DUP4 ADD MSTORE PUSH2 0x100 DUP1 DUP3 ADD MLOAD SWAP1 DUP4 ADD MSTORE PUSH2 0x120 DUP1 DUP3 ADD MLOAD SWAP1 DUP4 ADD MSTORE PUSH2 0x140 DUP1 SWAP2 ADD MLOAD SWAP2 ADD MSTORE JUMP JUMPDEST ISZERO PUSH2 0x1C25 JUMPI JUMP JUMPDEST PUSH1 0x40 MLOAD PUSH3 0x461BCD PUSH1 0xE5 SHL DUP2 MSTORE PUSH1 0x20 PUSH1 0x4 DUP3 ADD MSTORE PUSH1 0xA PUSH1 0x24 DUP3 ADD MSTORE PUSH10 0x139BDD081C185D5CD959 PUSH1 0xB2 SHL PUSH1 0x44 DUP3 ADD MSTORE PUSH1 0x64 SWAP1 REVERT JUMPDEST ISZERO PUSH2 0x1C5E JUMPI JUMP JUMPDEST PUSH1 0x40 MLOAD PUSH3 0x461BCD PUSH1 0xE5 SHL DUP2 MSTORE PUSH1 0x20 PUSH1 0x4 DUP3 ADD MSTORE PUSH1 0x6 PUSH1 0x24 DUP3 ADD MSTORE PUSH6 0x4D6178203525 PUSH1 0xD0 SHL PUSH1 0x44 DUP3 ADD MSTORE PUSH1 0x64 SWAP1 REVERT JUMPDEST SWAP2 SWAP1 DUP3 ADD DUP1 SWAP3 GT PUSH2 0x1C99 JUMPI JUMP JUMPDEST PUSH4 0x4E487B71 PUSH1 0xE0 SHL PUSH1 0x0 MSTORE PUSH1 0x11 PUSH1 0x4 MSTORE PUSH1 0x24 PUSH1 0x0 REVERT JUMPDEST SWAP2 SWAP1 DUP3 SUB SWAP2 DUP3 GT PUSH2 0x1C99 JUMPI JUMP JUMPDEST PUSH1 0xE SLOAD PUSH1 0xF SLOAD SWAP1 SWAP2 DUP3 PUSH1 0xFF DUP4 AND ISZERO PUSH2 0x1D32 JUMPI PUSH1 0x0 SWAP1 DUP2 MSTORE PUSH1 0x14 PUSH1 0x20 MSTORE PUSH1 0x40 SWAP1 KECCAK256 PUSH1 0xB DUP2 ADD SLOAD PUSH1 0x10 DUP1 SLOAD PUSH1 0x11 SLOAD SWAP3 SWAP6 SWAP1 SWAP2 SHR PUSH1 0x1 PUSH1 0x1 PUSH1 0xA0 SHL SUB AND SWAP4 SWAP1 SWAP3 SWAP2 NUMBER DUP2 GT PUSH2 0x1D22 JUMPI POP PUSH1 0x0 JUMPDEST DUP1 SWAP3 PUSH1 0x15 DUP2 ADD SLOAD SWAP3 PUSH1 0xE PUSH1 0x14 DUP4 ADD SLOAD SWAP4 PUSH1 0x9 DUP5 ADD SLOAD LT ISZERO SWAP3 ADD SLOAD SWAP1 JUMP JUMPDEST PUSH2 0x1D2D SWAP1 NUMBER SWAP1 PUSH2 0x1CAF JUMP JUMPDEST PUSH2 0x1D05 JUMP JUMPDEST POP PUSH1 0x6 SLOAD PUSH1 0x0 SWAP3 POP DUP3 SWAP2 DUP3 SWAP1 DUP2 SWAP1 DUP2 SWAP1 DUP2 SWAP1 DUP2 SWAP1 JUMP JUMPDEST PUSH1 0x40 MLOAD SWAP1 PUSH2 0x1D55 DUP3 PUSH2 0x1ADC JUMP JUMPDEST DUP2 PUSH2 0x140 PUSH1 0x0 SWAP2 DUP3 DUP2 MSTORE DUP3 PUSH1 0x20 DUP3 ADD MSTORE DUP3 PUSH1 0x40 DUP3 ADD MSTORE DUP3 PUSH1 0x60 DUP3 ADD MSTORE DUP3 PUSH1 0x80 DUP3 ADD MSTORE DUP3 PUSH1 0xA0 DUP3 ADD MSTORE DUP3 PUSH1 0xC0 DUP3 ADD MSTORE DUP3 PUSH1 0xE0 DUP3 ADD MSTORE DUP3 PUSH2 0x100 DUP3 ADD MSTORE DUP3 PUSH2 0x120 DUP3 ADD MSTORE ADD MSTORE JUMP JUMPDEST DUP2 DUP2 MUL SWAP3 SWAP2 DUP2 ISZERO SWAP2 DUP5 DIV EQ OR ISZERO PUSH2 0x1C99 JUMPI JUMP JUMPDEST PUSH1 0xFF PUSH1 0xF SLOAD AND ISZERO DUP1 ISZERO PUSH2 0x1E06 JUMPI JUMPDEST PUSH2 0x1DFB JUMPI PUSH2 0x1DCD PUSH1 0x11 SLOAD NUMBER SWAP1 PUSH2 0x1CAF JUMP JUMPDEST SWAP1 DUP2 PUSH1 0x1 SHL DUP3 DUP2 DIV PUSH1 0x2 EQ DUP4 ISZERO OR ISZERO PUSH2 0x1C99 JUMPI SWAP1 PUSH1 0xE SLOAD PUSH1 0x0 MSTORE PUSH1 0x14 PUSH1 0x20 MSTORE PUSH1 0x9 PUSH1 0x40 PUSH1 0x0 KECCAK256 ADD SLOAD DUP4 GT ISZERO SWAP1 JUMP JUMPDEST PUSH1 0x0 SWAP1 PUSH1 0x0 SWAP1 PUSH1 0x0 SWAP1 JUMP JUMPDEST POP PUSH1 0x11 SLOAD NUMBER LT ISZERO PUSH2 0x1DBC JUMP JUMPDEST PUSH1 0xF PUSH1 0xFF DUP2 SLOAD AND DUP1 PUSH2 0x23D2 JUMPI JUMPDEST PUSH2 0x23C5 JUMPI JUMPDEST PUSH1 0xFF DUP2 SLOAD AND ISZERO PUSH2 0x2141 JUMPI DUP1 SLOAD PUSH1 0x1 PUSH1 0x1 PUSH1 0xA0 SHL SUB SWAP1 PUSH1 0x10 SWAP1 DUP2 SHR DUP3 AND CALLER EQ PUSH2 0x210A JUMPI SWAP1 DUP2 PUSH2 0x1E56 DUP6 SWAP4 SLOAD DUP5 LT ISZERO PUSH2 0x2F01 JUMP JUMPDEST PUSH2 0x1E82 DUP4 ADDRESS CALLER PUSH32 0x0 PUSH2 0x2E68 JUMP JUMPDEST PUSH1 0xE SWAP1 DUP2 SLOAD SWAP2 PUSH1 0x0 SWAP3 DUP4 MSTORE PUSH1 0x20 SWAP2 PUSH1 0x14 DUP4 MSTORE PUSH1 0x40 SWAP2 DUP3 DUP6 KECCAK256 SWAP5 PUSH2 0x1EA8 PUSH1 0x11 SLOAD NUMBER SWAP1 PUSH2 0x1CAF JUMP JUMPDEST PUSH2 0x1F87 PUSH2 0x1F95 PUSH1 0x9 DUP10 ADD SWAP3 DUP4 SLOAD DUP2 GT SWAP11 DUP14 SLOAD DUP9 SHR AND SWAP13 PUSH1 0xB DUP12 ADD SWAP13 DUP14 PUSH2 0x1ECF DUP3 DUP3 SLOAD PUSH2 0x1C8C JUMP JUMPDEST SWAP1 SSTORE PUSH1 0xD DUP13 ADD PUSH2 0x1EE0 DUP3 DUP3 SLOAD PUSH2 0x1C8C JUMP JUMPDEST SWAP1 SSTORE PUSH1 0x14 DUP13 ADD PUSH2 0x1EF0 DUP2 SLOAD PUSH2 0x246C JUMP JUMPDEST SWAP1 SSTORE DUP8 SLOAD DUP1 DUP9 MSTORE PUSH1 0x16 DUP13 MSTORE DUP11 DUP9 KECCAK256 CALLER DUP10 MSTORE DUP13 MSTORE DUP11 DUP9 KECCAK256 SLOAD ISZERO PUSH2 0x20CC JUMPI JUMPDEST POP DUP8 SLOAD DUP8 MSTORE PUSH1 0x16 DUP12 MSTORE DUP10 DUP8 KECCAK256 CALLER DUP9 MSTORE DUP12 MSTORE DUP10 DUP8 KECCAK256 PUSH2 0x1F2C DUP3 DUP3 SLOAD PUSH2 0x1C8C JUMP JUMPDEST SWAP1 SSTORE DUP8 SLOAD DUP8 MSTORE PUSH1 0x18 DUP12 MSTORE DUP10 DUP8 KECCAK256 CALLER DUP9 MSTORE DUP12 MSTORE DUP10 DUP8 KECCAK256 PUSH2 0x1F4B DUP2 SLOAD PUSH2 0x246C JUMP JUMPDEST SWAP1 SSTORE DUP13 ISZERO PUSH2 0x2096 JUMPI JUMPDEST POP DUP1 SLOAD PUSH3 0x10000 PUSH1 0x1 PUSH1 0xB0 SHL SUB CALLER DUP11 SHL AND SWAP1 PUSH3 0x10000 PUSH1 0x1 PUSH1 0xB0 SHL SUB NOT AND OR SWAP1 SSTORE DUP14 PUSH2 0x2710 SWAP4 DUP5 SWAP2 PUSH1 0x3 DUP14 ADD SLOAD SWAP1 PUSH2 0x1D9B JUMP JUMPDEST DIV DUP8 SSTORE PUSH1 0x1 DUP11 ADD SLOAD SWAP1 PUSH2 0x1D9B JUMP JUMPDEST DIV SWAP7 PUSH1 0x2 DUP2 ADD SLOAD DUP1 DUP10 LT PUSH2 0x208E JUMPI JUMPDEST POP SWAP2 DUP6 SWAP2 PUSH1 0x8 SWAP4 PUSH2 0x1FB5 DUP11 NUMBER PUSH2 0x1C8C JUMP JUMPDEST DUP1 PUSH1 0x11 SSTORE DUP8 DUP3 ADD SSTORE PUSH1 0x13 NUMBER SWAP2 ADD SSTORE SLOAD DUP9 GT ISZERO DUP1 SWAP10 DUP2 SWAP11 PUSH2 0x2086 JUMPI JUMPDEST POP PUSH2 0x2057 JUMPI JUMPDEST CALLER DUP2 MSTORE PUSH1 0x1E DUP8 MSTORE PUSH1 0x3 DUP3 DUP3 KECCAK256 ADD PUSH2 0x1FEE DUP14 DUP3 SLOAD PUSH2 0x1C8C JUMP JUMPDEST SWAP1 SSTORE CALLER DUP2 MSTORE PUSH1 0x1E DUP8 MSTORE KECCAK256 ADD PUSH2 0x2003 DUP2 SLOAD PUSH2 0x246C JUMP JUMPDEST SWAP1 SSTORE PUSH2 0x2011 DUP10 PUSH1 0x1D SLOAD PUSH2 0x1C8C JUMP JUMPDEST PUSH1 0x1D SSTORE SLOAD SWAP6 SLOAD SWAP1 SLOAD SWAP3 DUP3 MLOAD SWAP9 DUP10 MSTORE DUP9 ADD MSTORE DUP7 ADD MSTORE PUSH1 0x60 DUP6 ADD MSTORE PUSH1 0x80 DUP5 ADD MSTORE PUSH32 0x4FAC472D5B6591A42F8223494B16F053353D72A46610D443EFF08001B39A9951 PUSH1 0xA0 CALLER SWAP5 LOG4 JUMP JUMPDEST DUP4 SLOAD PUSH32 0x63068782713F7520CC644E32AD434F43630783099E68B3CBFEE46B7263B02BFE DUP9 DUP5 MLOAD DUP12 DUP2 MSTORE LOG2 PUSH2 0x1FD6 JUMP JUMPDEST SWAP1 POP CODESIZE PUSH2 0x1FD0 JUMP JUMPDEST SWAP8 POP DUP6 PUSH2 0x1FA4 JUMP JUMPDEST DUP8 DUP13 ADD PUSH2 0x20A4 DUP3 DUP3 SLOAD PUSH2 0x1C8C JUMP JUMPDEST SWAP1 SSTORE DUP8 SLOAD DUP8 MSTORE PUSH1 0x17 DUP12 MSTORE DUP10 DUP8 KECCAK256 CALLER DUP9 MSTORE DUP12 MSTORE PUSH2 0x20C4 DUP11 DUP9 KECCAK256 SWAP2 DUP3 SLOAD PUSH2 0x1C8C JUMP JUMPDEST SWAP1 SSTORE DUP15 PUSH2 0x1F54 JUMP JUMPDEST DUP8 MSTORE PUSH1 0x15 DUP12 MSTORE PUSH2 0x20DE CALLER DUP12 DUP10 KECCAK256 PUSH2 0x2F39 JUMP JUMPDEST PUSH1 0x15 DUP13 ADD PUSH2 0x20EC DUP2 SLOAD PUSH2 0x246C JUMP JUMPDEST SWAP1 SSTORE CALLER DUP8 MSTORE PUSH1 0x1E DUP12 MSTORE DUP10 DUP8 KECCAK256 PUSH2 0x2102 DUP2 SLOAD PUSH2 0x246C JUMP JUMPDEST SWAP1 SSTORE CODESIZE PUSH2 0x1F0D JUMP JUMPDEST PUSH1 0x40 MLOAD PUSH3 0x461BCD PUSH1 0xE5 SHL DUP2 MSTORE PUSH1 0x20 PUSH1 0x4 DUP3 ADD MSTORE PUSH1 0x24 DUP2 ADD DUP5 SWAP1 MSTORE PUSH15 0x416C726561647920686F6C64696E67 PUSH1 0x88 SHL PUSH1 0x44 DUP3 ADD MSTORE PUSH1 0x64 SWAP1 REVERT JUMPDEST PUSH2 0x214F PUSH1 0x6 SLOAD DUP4 LT ISZERO PUSH2 0x2F01 JUMP JUMPDEST PUSH2 0x217B DUP3 ADDRESS CALLER PUSH32 0x0 PUSH2 0x2E68 JUMP JUMPDEST PUSH1 0xE SWAP1 PUSH2 0x2188 DUP3 SLOAD PUSH2 0x246C JUMP JUMPDEST SWAP2 DUP3 DUP2 SSTORE PUSH2 0x2197 PUSH1 0x19 SLOAD PUSH2 0x246C JUMP JUMPDEST PUSH1 0x19 SSTORE PUSH1 0x1 PUSH1 0xFF NOT DUP4 SLOAD AND OR DUP3 SSTORE PUSH1 0x0 SWAP3 DUP4 MSTORE PUSH1 0x20 SWAP2 PUSH1 0x14 DUP4 MSTORE PUSH1 0x40 SWAP2 DUP3 DUP6 KECCAK256 SWAP5 PUSH1 0x2 DUP7 SUB PUSH2 0x236B JUMPI JUMPDEST DUP7 DUP3 PUSH2 0x21E1 DUP3 PUSH2 0x21D6 PUSH1 0x12 SLOAD PUSH1 0x13 SLOAD SWAP1 PUSH2 0x1C8C JUMP JUMPDEST DUP1 PUSH1 0xC DUP13 ADD SSTORE PUSH2 0x1C8C JUMP JUMPDEST SWAP8 PUSH1 0xB DUP2 ADD SWAP9 DUP10 SSTORE DUP3 PUSH1 0xD DUP3 ADD SSTORE NUMBER DUP7 DUP3 ADD SSTORE PUSH2 0x2200 PUSH1 0x2 SLOAD NUMBER PUSH2 0x1C8C JUMP JUMPDEST PUSH1 0x10 DUP3 DUP2 ADD SWAP2 DUP3 SSTORE TIMESTAMP PUSH1 0x11 DUP5 ADD SSTORE NUMBER PUSH1 0x13 DUP5 ADD SSTORE PUSH1 0x1 PUSH1 0x14 DUP5 ADD DUP2 SWAP1 SSTORE PUSH1 0x15 DUP5 ADD SSTORE DUP8 SLOAD PUSH3 0x10000 PUSH1 0x1 PUSH1 0xB0 SHL SUB NOT AND CALLER SWAP1 SWAP2 SHL PUSH3 0x10000 PUSH1 0x1 PUSH1 0xB0 SHL SUB AND OR SWAP1 SWAP7 SSTORE PUSH1 0x5 SLOAD PUSH2 0x2710 SWAP1 PUSH2 0x2254 SWAP1 DUP6 PUSH2 0x1D9B JUMP JUMPDEST DIV PUSH1 0x10 SSTORE DUP6 SLOAD PUSH1 0x11 SSTORE DUP2 SLOAD DUP5 MSTORE PUSH1 0x15 DUP9 MSTORE PUSH2 0x2271 CALLER DUP9 DUP7 KECCAK256 PUSH2 0x2F39 JUMP JUMPDEST DUP2 SLOAD DUP5 MSTORE PUSH1 0x16 DUP9 MSTORE DUP7 DUP5 KECCAK256 CALLER DUP6 MSTORE DUP9 MSTORE DUP3 DUP8 DUP6 KECCAK256 SSTORE DUP2 SLOAD DUP5 MSTORE PUSH1 0x18 DUP9 MSTORE DUP7 DUP5 KECCAK256 CALLER DUP6 MSTORE DUP9 MSTORE PUSH1 0x1 DUP8 DUP6 KECCAK256 SSTORE PUSH2 0x22A7 NUMBER DUP8 SLOAD PUSH2 0x1CAF JUMP JUMPDEST PUSH1 0xB SLOAD LT ISZERO PUSH2 0x234C JUMPI JUMPDEST POP POP POP CALLER DUP2 MSTORE PUSH1 0x1E DUP6 MSTORE DUP4 DUP2 KECCAK256 PUSH2 0x22C8 DUP2 SLOAD PUSH2 0x246C JUMP JUMPDEST SWAP1 SSTORE CALLER DUP2 MSTORE PUSH1 0x1E DUP6 MSTORE PUSH1 0x3 DUP5 DUP3 KECCAK256 ADD PUSH2 0x22E2 DUP9 DUP3 SLOAD PUSH2 0x1C8C JUMP JUMPDEST SWAP1 SSTORE CALLER DUP2 MSTORE PUSH1 0x1E DUP6 MSTORE PUSH1 0x8 DUP5 DUP3 KECCAK256 ADD PUSH2 0x22FB DUP2 SLOAD PUSH2 0x246C JUMP JUMPDEST SWAP1 SSTORE DUP1 PUSH1 0x12 SSTORE PUSH1 0x13 SSTORE PUSH2 0x2310 DUP7 PUSH1 0x1D SLOAD PUSH2 0x1C8C JUMP JUMPDEST PUSH1 0x1D SSTORE SLOAD SWAP4 SLOAD SWAP1 SLOAD SWAP3 DUP3 MLOAD SWAP6 DUP7 MSTORE DUP6 ADD MSTORE DUP4 ADD MSTORE PUSH32 0xE550933EAE5CB343560320C92FB0C4522E4D7D087A9503ECD95C3000952AE3E7 PUSH1 0x60 CALLER SWAP4 LOG3 JUMP JUMPDEST ADD SSTORE DUP2 SLOAD DUP2 MSTORE PUSH1 0x17 DUP6 MSTORE DUP4 DUP2 KECCAK256 CALLER DUP3 MSTORE DUP6 MSTORE DUP7 DUP5 DUP3 KECCAK256 SSTORE DUP7 DUP3 CODESIZE PUSH2 0x22B1 JUMP JUMPDEST PUSH1 0x2 SLOAD DUP7 SSTORE PUSH1 0x3 SLOAD PUSH1 0x1 DUP8 ADD SSTORE PUSH1 0x4 SLOAD PUSH1 0x2 DUP8 ADD SSTORE PUSH1 0x5 SLOAD PUSH1 0x3 DUP8 ADD SSTORE PUSH1 0x6 SLOAD PUSH1 0x4 DUP8 ADD SSTORE PUSH1 0x7 SLOAD PUSH1 0x5 DUP8 ADD SSTORE PUSH1 0x8 SLOAD PUSH1 0x6 DUP8 ADD SSTORE PUSH1 0x9 SLOAD PUSH1 0x7 DUP8 ADD SSTORE PUSH1 0xA SLOAD PUSH1 0x8 DUP8 ADD SSTORE PUSH1 0xB SLOAD PUSH1 0x9 DUP8 ADD SSTORE PUSH1 0xC SLOAD PUSH1 0xA DUP8 ADD SSTORE PUSH2 0x21C1 JUMP JUMPDEST PUSH2 0x23CD PUSH2 0x247B JUMP JUMPDEST PUSH2 0x1E24 JUMP JUMPDEST POP PUSH1 0x11 SLOAD NUMBER LT ISZERO PUSH2 0x1E1F JUMP JUMPDEST PUSH1 0x0 SLOAD PUSH1 0x1 PUSH1 0x1 PUSH1 0xA0 SHL SUB AND CALLER SUB PUSH2 0x23F2 JUMPI JUMP JUMPDEST PUSH1 0x40 MLOAD PUSH4 0x118CDAA7 PUSH1 0xE0 SHL DUP2 MSTORE CALLER PUSH1 0x4 DUP3 ADD MSTORE PUSH1 0x24 SWAP1 REVERT JUMPDEST DUP2 ISZERO PUSH2 0x2414 JUMPI DIV SWAP1 JUMP JUMPDEST PUSH4 0x4E487B71 PUSH1 0xE0 SHL PUSH1 0x0 MSTORE PUSH1 0x12 PUSH1 0x4 MSTORE PUSH1 0x24 PUSH1 0x0 REVERT JUMPDEST DUP1 MLOAD DUP3 LT ISZERO PUSH2 0x243E JUMPI PUSH1 0x20 SWAP2 PUSH1 0x5 SHL ADD ADD SWAP1 JUMP JUMPDEST PUSH4 0x4E487B71 PUSH1 0xE0 SHL PUSH1 0x0 MSTORE PUSH1 0x32 PUSH1 0x4 MSTORE PUSH1 0x24 PUSH1 0x0 REVERT JUMPDEST DUP1 SLOAD DUP3 LT ISZERO PUSH2 0x243E JUMPI PUSH1 0x0 MSTORE PUSH1 0x20 PUSH1 0x0 KECCAK256 ADD SWAP1 PUSH1 0x0 SWAP1 JUMP JUMPDEST PUSH1 0x0 NOT DUP2 EQ PUSH2 0x1C99 JUMPI PUSH1 0x1 ADD SWAP1 JUMP JUMPDEST PUSH1 0xE SLOAD PUSH1 0x0 MSTORE PUSH1 0x14 PUSH1 0x20 MSTORE PUSH1 0x40 PUSH1 0x0 KECCAK256 TIMESTAMP PUSH1 0x12 DUP3 ADD SSTORE PUSH1 0x1 DUP1 PUSH1 0xA0 SHL SUB PUSH1 0xF SLOAD PUSH1 0x10 SHR AND PUSH1 0x1 PUSH1 0x1 PUSH1 0x60 SHL SUB PUSH1 0xA0 SHL PUSH1 0x16 DUP4 ADD SLOAD AND OR PUSH1 0x16 DUP3 ADD SSTORE PUSH1 0x1A DUP2 ADD PUSH1 0xFF NOT SWAP1 PUSH1 0x1 DUP3 DUP3 SLOAD AND OR SWAP1 SSTORE PUSH1 0xF SLOAD AND PUSH1 0xF SSTORE PUSH1 0x1 PUSH1 0x15 DUP3 ADD SLOAD EQ PUSH2 0x2DE9 JUMPI PUSH1 0xE SLOAD PUSH1 0x0 MSTORE PUSH1 0x16 PUSH1 0x20 MSTORE PUSH1 0x40 PUSH1 0x0 KECCAK256 SWAP1 PUSH1 0x1 PUSH1 0xA0 SHL PUSH1 0x1 SWAP1 SUB PUSH1 0x16 DUP3 ADD SLOAD AND SWAP2 DUP3 PUSH1 0x0 MSTORE PUSH1 0x20 MSTORE PUSH1 0x40 PUSH1 0x0 KECCAK256 SLOAD SWAP2 DUP3 PUSH1 0x17 DUP4 ADD SSTORE PUSH1 0xE SLOAD PUSH1 0x0 MSTORE PUSH1 0x17 PUSH1 0x20 MSTORE PUSH1 0x40 PUSH1 0x0 KECCAK256 SWAP1 PUSH1 0x0 MSTORE PUSH1 0x20 MSTORE PUSH1 0x40 PUSH1 0x0 KECCAK256 SLOAD SWAP2 DUP3 PUSH1 0x18 DUP4 ADD SSTORE DUP1 PUSH1 0xD DUP4 ADD SLOAD SWAP1 PUSH2 0x2543 SWAP2 PUSH2 0x1CAF JUMP JUMPDEST SWAP3 PUSH1 0xE DUP4 ADD SLOAD SWAP1 PUSH2 0x2553 SWAP2 PUSH2 0x1CAF JUMP JUMPDEST SWAP3 PUSH1 0xC DUP4 ADD SLOAD SWAP2 PUSH1 0x5 DUP5 ADD SLOAD SWAP5 PUSH2 0x256A DUP7 DUP6 PUSH2 0x1D9B JUMP JUMPDEST PUSH2 0x2710 SWAP1 DIV PUSH1 0x6 DUP7 ADD SLOAD SWAP2 DUP2 PUSH2 0x2580 DUP5 DUP9 PUSH2 0x1D9B JUMP JUMPDEST PUSH2 0x2710 SWAP1 DIV SWAP7 DUP8 SWAP2 PUSH2 0x2591 SWAP2 PUSH2 0x1CAF JUMP JUMPDEST SWAP1 PUSH2 0x259B SWAP2 PUSH2 0x1CAF JUMP JUMPDEST SWAP8 DUP9 PUSH1 0x19 DUP10 ADD SSTORE PUSH2 0x25AC SWAP1 DUP6 PUSH2 0x1D9B JUMP JUMPDEST PUSH2 0x2710 SWAP1 DIV SWAP3 PUSH2 0x25BC SWAP1 DUP6 PUSH2 0x1D9B JUMP JUMPDEST PUSH2 0x2710 SWAP1 DIV SWAP6 DUP4 DUP8 PUSH1 0x8 DUP11 ADD SLOAD PUSH2 0x25D3 SWAP1 DUP9 PUSH2 0x1D9B JUMP JUMPDEST PUSH2 0x2710 SWAP1 DIV SWAP7 DUP8 SWAP3 PUSH2 0x25E4 SWAP2 PUSH2 0x1CAF JUMP JUMPDEST SWAP1 PUSH2 0x25EE SWAP2 PUSH2 0x1CAF JUMP JUMPDEST SWAP1 PUSH2 0x25F8 SWAP2 PUSH2 0x1CAF JUMP JUMPDEST SWAP7 PUSH1 0x0 SWAP4 PUSH1 0x0 SWAP5 PUSH1 0xE SLOAD SWAP6 DUP7 PUSH1 0x0 MSTORE PUSH1 0x15 PUSH1 0x20 MSTORE PUSH1 0x40 PUSH1 0x0 KECCAK256 SWAP7 PUSH1 0x14 PUSH1 0x20 MSTORE PUSH1 0x1 PUSH1 0xA0 SHL PUSH1 0x1 SWAP1 SUB PUSH1 0x40 PUSH1 0x0 KECCAK256 PUSH1 0x16 ADD SLOAD AND PUSH1 0x0 SWAP9 PUSH1 0x0 SWAP2 DUP2 SLOAD SWAP3 JUMPDEST DUP4 DUP2 LT PUSH2 0x2DAA JUMPI POP PUSH2 0x2645 DUP12 PUSH2 0x2F79 JUMP JUMPDEST SWAP11 PUSH2 0x2653 PUSH1 0x40 MLOAD SWAP13 DUP14 PUSH2 0x1B15 JUMP JUMPDEST DUP1 DUP13 MSTORE PUSH2 0x2662 PUSH1 0x1F NOT SWAP2 PUSH2 0x2F79 JUMP JUMPDEST ADD CALLDATASIZE PUSH1 0x20 DUP14 ADD CALLDATACOPY PUSH1 0x0 SWAP2 PUSH1 0x0 JUMPDEST DUP5 DUP2 LT PUSH2 0x2D41 JUMPI POP POP DUP11 MLOAD ISZERO SWAP3 POP PUSH2 0x2CF3 SWAP2 POP POP JUMPI POP POP POP PUSH1 0x13 DUP11 ADD SLOAD BLOCKHASH DUP1 ISZERO PUSH2 0x2CDC JUMPI JUMPDEST PUSH1 0xE SLOAD PUSH1 0x16 DUP13 ADD SLOAD PUSH1 0x40 MLOAD SWAP2 PUSH1 0x20 DUP4 ADD SWAP4 DUP5 MSTORE PUSH1 0x40 DUP4 ADD MSTORE PUSH1 0x1 PUSH1 0x1 PUSH1 0x60 SHL SUB NOT SWAP1 PUSH1 0x60 SHL AND PUSH1 0x60 DUP3 ADD MSTORE PUSH1 0x54 DUP2 MSTORE PUSH2 0x26CC DUP2 PUSH2 0x1AF9 JUMP JUMPDEST MLOAD SWAP1 KECCAK256 DUP6 MLOAD SWAP10 DUP11 ISZERO PUSH2 0x2414 JUMPI PUSH2 0x2766 DUP13 PUSH2 0x276C SWAP4 PUSH2 0x26F8 PUSH1 0x1D SWAP11 PUSH1 0x1F SWAP16 PUSH1 0x1 DUP1 PUSH1 0xA0 SHL SUB SWAP4 MOD SWAP1 PUSH2 0x242A JUMP JUMPDEST MLOAD AND SWAP11 PUSH1 0x20 DUP3 ADD DUP13 PUSH1 0x1 PUSH1 0x1 PUSH1 0x60 SHL SUB PUSH1 0xA0 SHL DUP3 SLOAD AND OR SWAP1 SSTORE PUSH1 0xE SLOAD PUSH1 0x0 MSTORE PUSH1 0x18 PUSH1 0x20 MSTORE PUSH1 0x40 PUSH1 0x0 KECCAK256 DUP13 PUSH1 0x0 MSTORE PUSH1 0x20 MSTORE PUSH2 0x2710 PUSH2 0x275A PUSH2 0x2742 PUSH1 0x40 PUSH1 0x0 KECCAK256 SLOAD PUSH1 0x7 DUP7 ADD SLOAD SWAP1 PUSH2 0x1D9B JUMP JUMPDEST PUSH1 0x8 DUP6 ADD SLOAD DUP1 DUP3 GT PUSH2 0x2CD4 JUMPI JUMPDEST POP PUSH1 0x17 DUP6 ADD SLOAD PUSH2 0x1D9B JUMP JUMPDEST DIV DUP1 SWAP11 DUP2 SWAP4 ADD SSTORE PUSH2 0x1CAF JUMP JUMPDEST SWAP1 PUSH2 0x1C8C JUMP JUMPDEST SWAP6 DUP11 PUSH2 0x2710 PUSH2 0x277F PUSH1 0xA DUP4 ADD SLOAD DUP9 PUSH2 0x1D9B JUMP JUMPDEST DIV SWAP8 DUP1 DUP10 GT PUSH2 0x2CCC JUMPI JUMPDEST SWAP2 PUSH2 0x27D8 SWAP6 SWAP5 SWAP4 SWAP2 PUSH2 0x279E DUP11 PUSH2 0x27CC SWAP6 PUSH2 0x1CAF JUMP JUMPDEST SWAP13 DUP14 SWAP2 PUSH2 0x27AB DUP6 DUP6 PUSH2 0x1C8C JUMP JUMPDEST PUSH1 0x1B DUP3 ADD SSTORE PUSH2 0x27BA DUP9 DUP9 PUSH2 0x1C8C JUMP JUMPDEST PUSH1 0x1C DUP3 ADD SSTORE DUP12 PUSH1 0x1E DUP3 ADD SSTORE ADD SSTORE PUSH2 0x1C8C JUMP JUMPDEST DUP1 PUSH2 0x2C63 JUMPI JUMPDEST POP PUSH2 0x1C8C JUMP JUMPDEST DUP1 PUSH2 0x2C15 JUMPI JUMPDEST POP DUP8 PUSH2 0x2B64 JUMPI JUMPDEST PUSH1 0xE SLOAD PUSH1 0x0 MSTORE PUSH1 0x15 PUSH1 0x20 MSTORE PUSH1 0x40 PUSH1 0x0 KECCAK256 SWAP9 PUSH1 0x0 JUMPDEST DUP11 SLOAD DUP2 LT ISZERO PUSH2 0x2A6A JUMPI DUP1 PUSH2 0x280F PUSH1 0x1 SWAP3 DUP14 PUSH2 0x2454 JUMP JUMPDEST DUP4 DUP1 PUSH1 0xA0 SHL SUB SWAP2 SLOAD SWAP1 PUSH1 0x3 SHL SHR AND DUP3 DUP1 PUSH1 0xA0 SHL SUB PUSH1 0x16 DUP13 ADD SLOAD AND DUP2 EQ PUSH2 0x2A64 JUMPI PUSH1 0xE SLOAD DUP1 PUSH1 0x0 MSTORE PUSH1 0x16 PUSH1 0x20 MSTORE PUSH1 0x40 PUSH1 0x0 KECCAK256 DUP3 PUSH1 0x0 MSTORE PUSH1 0x20 MSTORE PUSH1 0x40 PUSH1 0x0 KECCAK256 SLOAD SWAP1 PUSH1 0x0 MSTORE PUSH1 0x17 PUSH1 0x20 MSTORE PUSH1 0x40 PUSH1 0x0 KECCAK256 DUP3 PUSH1 0x0 MSTORE PUSH1 0x20 MSTORE PUSH1 0x40 PUSH1 0x0 KECCAK256 SLOAD SWAP1 PUSH1 0x0 SWAP2 DUP12 DUP14 DUP2 ISZERO ISZERO DUP3 PUSH2 0x2A5B JUMPI JUMPDEST PUSH2 0x2A1A JUMPI JUMPDEST POP POP PUSH32 0xA5D2CF8BBB998380D1C6011AC6200FC92D40D80A6F7EFF45A255A57738A91C78 SWAP2 PUSH1 0x80 SWAP2 DUP10 PUSH1 0x0 SWAP2 DUP14 DUP3 ISZERO ISZERO DUP4 PUSH2 0x2A11 JUMPI JUMPDEST DUP1 PUSH2 0x2A08 JUMPI JUMPDEST PUSH2 0x29EC JUMPI JUMPDEST POP POP POP PUSH1 0x0 SWAP1 DUP14 DUP10 DUP1 PUSH1 0xA0 SHL SUB AND DUP8 EQ DUP1 PUSH2 0x29E3 JUMPI JUMPDEST PUSH2 0x2990 JUMPI JUMPDEST PUSH2 0x28EE DUP3 PUSH2 0x28E9 DUP4 PUSH2 0x28E9 DUP11 DUP9 PUSH2 0x1C8C JUMP JUMPDEST PUSH2 0x1C8C JUMP JUMPDEST SWAP2 DUP3 PUSH2 0x2917 JUMPI JUMPDEST POP PUSH1 0xE SLOAD SWAP6 PUSH1 0x40 MLOAD SWAP4 DUP5 MSTORE PUSH1 0x20 DUP5 ADD MSTORE PUSH1 0x40 DUP4 ADD MSTORE PUSH1 0x60 DUP3 ADD MSTORE LOG3 JUMPDEST ADD PUSH2 0x27F9 JUMP JUMPDEST PUSH2 0x2950 SWAP1 PUSH2 0x2946 DUP5 DUP11 PUSH32 0x0 PUSH2 0x2EC3 JUMP JUMPDEST PUSH2 0x28E9 DUP4 DUP10 PUSH2 0x1C8C JUMP JUMPDEST DUP8 PUSH1 0x0 MSTORE PUSH1 0x1E PUSH1 0x20 MSTORE PUSH2 0x296C PUSH1 0x4 PUSH1 0x40 PUSH1 0x0 KECCAK256 ADD SWAP2 DUP3 SLOAD PUSH2 0x1C8C JUMP JUMPDEST SWAP1 SSTORE DUP7 PUSH1 0x0 MSTORE PUSH1 0x1E PUSH1 0x20 MSTORE DUP9 PUSH1 0x40 PUSH1 0x0 KECCAK256 ADD PUSH2 0x2988 DUP2 SLOAD PUSH2 0x246C JUMP JUMPDEST SWAP1 SSTORE CODESIZE PUSH2 0x28F5 JUMP JUMPDEST SWAP1 POP DUP11 SWAP1 PUSH2 0x29A0 DUP13 PUSH1 0x1B SLOAD PUSH2 0x1C8C JUMP JUMPDEST PUSH1 0x1B SSTORE DUP7 PUSH1 0x0 MSTORE PUSH1 0x1E PUSH1 0x20 MSTORE PUSH1 0x6 PUSH1 0x40 PUSH1 0x0 KECCAK256 ADD PUSH2 0x29BE DUP2 SLOAD PUSH2 0x246C JUMP JUMPDEST SWAP1 SSTORE DUP7 PUSH1 0x0 MSTORE PUSH1 0x1E PUSH1 0x20 MSTORE PUSH1 0x7 PUSH1 0x40 PUSH1 0x0 KECCAK256 ADD PUSH2 0x29DC DUP14 DUP3 SLOAD PUSH2 0x1C8C JUMP JUMPDEST SWAP1 SSTORE PUSH2 0x28D7 JUMP JUMPDEST POP DUP12 ISZERO ISZERO PUSH2 0x28D2 JUMP JUMPDEST PUSH2 0x2A00 SWAP4 POP SWAP1 PUSH2 0x29FB SWAP2 PUSH2 0x1D9B JUMP JUMPDEST PUSH2 0x240A JUMP JUMPDEST DUP10 CODESIZE DUP14 PUSH2 0x28BC JUMP JUMPDEST POP DUP2 ISZERO ISZERO PUSH2 0x28B7 JUMP JUMPDEST POP DUP1 ISZERO ISZERO PUSH2 0x28B1 JUMP JUMPDEST PUSH1 0x80 SWAP3 SWAP5 POP DUP4 SWAP2 PUSH2 0x29FB PUSH32 0xA5D2CF8BBB998380D1C6011AC6200FC92D40D80A6F7EFF45A255A57738A91C78 SWAP6 PUSH2 0x2A4F SWAP4 PUSH2 0x1D9B JUMP JUMPDEST SWAP4 SWAP2 POP SWAP2 POP DUP12 DUP14 PUSH2 0x287C JUMP JUMPDEST POP DUP1 ISZERO ISZERO PUSH2 0x2877 JUMP JUMPDEST POP PUSH2 0x2911 JUMP JUMPDEST POP SWAP9 POP POP SWAP6 PUSH32 0xC31996D40E5893861400760C37787365EB4D183C84DC81F29B76371A26D62835 SWAP4 POP SWAP5 PUSH1 0xE0 SWAP3 SWAP2 SWAP6 PUSH1 0x1 DUP1 PUSH1 0xA0 SHL SUB PUSH1 0x16 DUP4 ADD SLOAD AND PUSH1 0x0 MSTORE PUSH1 0x1E PUSH1 0x20 MSTORE PUSH1 0x2 PUSH1 0x40 PUSH1 0x0 KECCAK256 ADD PUSH2 0x2ABF DUP2 SLOAD PUSH2 0x246C JUMP JUMPDEST SWAP1 SSTORE PUSH1 0x17 DUP3 ADD SLOAD SWAP1 DUP1 DUP3 GT PUSH2 0x2B2A JUMPI JUMPDEST POP POP PUSH1 0xE SLOAD SWAP5 PUSH1 0x1 DUP1 PUSH1 0xA0 SHL SUB PUSH1 0x16 DUP4 ADD SLOAD AND SWAP7 PUSH1 0x17 DUP4 ADD SLOAD SWAP9 PUSH1 0x1B DUP5 ADD SLOAD SWAP4 PUSH1 0x15 PUSH1 0x1C DUP3 ADD SLOAD SWAP2 ADD SLOAD SWAP5 PUSH1 0x40 MLOAD SWAP12 DUP13 MSTORE PUSH1 0x20 DUP13 ADD MSTORE PUSH1 0x40 DUP12 ADD MSTORE PUSH1 0x60 DUP11 ADD MSTORE PUSH1 0x80 DUP10 ADD MSTORE PUSH1 0xA0 DUP9 ADD MSTORE PUSH1 0xC0 DUP8 ADD MSTORE PUSH1 0x1 DUP1 PUSH1 0xA0 SHL SUB AND SWAP5 LOG4 JUMP JUMPDEST PUSH2 0x2B33 SWAP2 PUSH2 0x1CAF JUMP JUMPDEST PUSH1 0x1 DUP1 PUSH1 0xA0 SHL SUB PUSH1 0x16 DUP4 ADD SLOAD AND PUSH1 0x0 MSTORE PUSH1 0x1E PUSH1 0x20 MSTORE PUSH2 0x2B5B PUSH1 0x5 PUSH1 0x40 PUSH1 0x0 KECCAK256 ADD SWAP2 DUP3 SLOAD PUSH2 0x1C8C JUMP JUMPDEST SWAP1 SSTORE CODESIZE DUP1 PUSH2 0x2ACF JUMP JUMPDEST PUSH1 0x16 DUP8 ADD SLOAD PUSH2 0x2B9E SWAP1 DUP10 SWAP1 PUSH1 0x1 PUSH1 0x1 PUSH1 0xA0 SHL SUB AND PUSH32 0x0 PUSH2 0x2EC3 JUMP JUMPDEST PUSH1 0x17 DUP8 ADD SLOAD PUSH1 0x0 DUP2 SLT DUP10 DUP3 DUP2 SUB SLT DUP2 AND SWAP1 DUP11 DUP4 DUP2 SUB SGT SWAP1 ISZERO AND OR PUSH2 0x1C99 JUMPI PUSH1 0xE SLOAD PUSH32 0x4119E264BE4FC285D7DC58E5960CF706D6AF27FAAB8AB0DF53D738E3727AD838 PUSH1 0x80 PUSH1 0x1 DUP1 PUSH1 0xA0 SHL SUB PUSH1 0x16 DUP13 ADD SLOAD AND SWAP4 PUSH1 0xC DUP13 ADD SLOAD SWAP1 PUSH1 0x40 MLOAD SWAP2 DUP3 MSTORE DUP14 PUSH1 0x20 DUP4 ADD MSTORE DUP1 PUSH1 0x40 DUP4 ADD MSTORE DUP14 SUB PUSH1 0x60 DUP3 ADD MSTORE LOG3 PUSH2 0x27E5 JUMP JUMPDEST PUSH1 0xD SLOAD PUSH2 0x2C5A SWAP2 SWAP1 PUSH2 0x2C52 SWAP1 DUP3 SWAP1 PUSH1 0x1 PUSH1 0x1 PUSH1 0xA0 SHL SUB AND PUSH32 0x0 PUSH2 0x2EC3 JUMP JUMPDEST PUSH1 0x1C SLOAD PUSH2 0x1C8C JUMP JUMPDEST PUSH1 0x1C SSTORE CODESIZE PUSH2 0x27DE JUMP JUMPDEST PUSH2 0x2CC3 SWAP1 PUSH2 0x2CBB PUSH1 0x40 MLOAD PUSH4 0xA9059CBB PUSH1 0xE0 SHL PUSH1 0x20 DUP3 ADD MSTORE PUSH2 0xDEAD PUSH1 0x24 DUP3 ADD MSTORE DUP3 PUSH1 0x44 DUP3 ADD MSTORE PUSH1 0x44 DUP2 MSTORE PUSH2 0x2C95 DUP2 PUSH2 0x1AF9 JUMP JUMPDEST PUSH32 0x0 PUSH2 0x2F91 JUMP JUMPDEST PUSH1 0x1A SLOAD PUSH2 0x1C8C JUMP JUMPDEST PUSH1 0x1A SSTORE CODESIZE PUSH2 0x27D2 JUMP JUMPDEST SWAP8 POP DUP8 PUSH2 0x2789 JUMP JUMPDEST SWAP1 POP CODESIZE PUSH2 0x274F JUMP JUMPDEST POP NUMBER PUSH1 0x0 NOT DUP2 ADD GT PUSH2 0x1C99 JUMPI NUMBER PUSH1 0x0 NOT ADD BLOCKHASH PUSH2 0x2694 JUMP JUMPDEST DUP2 PUSH1 0x1F SWAP13 SWAP3 SWAP9 POP DUP11 PUSH2 0x2766 SWAP3 PUSH2 0x2D0F PUSH2 0x276C SWAP7 SWAP14 PUSH1 0x13 SLOAD PUSH2 0x1C8C JUMP JUMPDEST PUSH1 0x13 SSTORE PUSH32 0xDC76F7BD9027753B77634361D9BDB47369CF0D2A02F5C12333E17CC029209417 PUSH1 0x20 PUSH1 0x40 MLOAD DUP5 DUP2 MSTORE LOG2 PUSH2 0x1CAF JUMP JUMPDEST DUP13 DUP4 PUSH2 0x2D4D DUP4 DUP6 PUSH2 0x2454 JUMP JUMPDEST SWAP1 SLOAD PUSH1 0x3 SWAP3 SWAP2 DUP4 SHL SHR PUSH1 0x1 PUSH1 0x1 PUSH1 0xA0 SHL SUB AND SUB PUSH2 0x2D6F JUMPI JUMPDEST POP POP PUSH1 0x1 ADD PUSH2 0x266F JUMP JUMPDEST SWAP5 PUSH2 0x2DA0 DUP4 SWAP3 SWAP7 PUSH2 0x2D82 PUSH1 0x1 SWAP6 DUP8 PUSH2 0x2454 JUMP JUMPDEST SWAP1 SLOAD SWAP2 SHL SHR PUSH1 0xA0 DUP6 SWAP1 SHL DUP6 SWAP1 SUB AND SWAP2 PUSH2 0x2D9A DUP2 PUSH2 0x246C JUMP JUMPDEST SWAP8 PUSH2 0x242A JUMP JUMPDEST MSTORE SWAP1 POP DUP13 CODESIZE PUSH2 0x2D65 JUMP JUMPDEST DUP2 PUSH2 0x2DB5 DUP3 DUP6 PUSH2 0x2454 JUMP JUMPDEST SWAP1 SLOAD PUSH1 0x3 SWAP2 SWAP1 SWAP2 SHL SHR PUSH1 0x1 PUSH1 0x1 PUSH1 0xA0 SHL SUB AND SUB PUSH2 0x2DD5 JUMPI JUMPDEST PUSH1 0x1 ADD PUSH2 0x2634 JUMP JUMPDEST SWAP11 PUSH2 0x2DE1 PUSH1 0x1 SWAP2 PUSH2 0x246C JUMP JUMPDEST SWAP12 SWAP1 POP PUSH2 0x2DCD JUMP JUMPDEST PUSH1 0xB ADD SLOAD DUP1 PUSH1 0x12 SSTORE PUSH32 0xDB5921DF7FBB38E24667925D5736D9D890212D79605330D0315A5C7225663AF7 PUSH1 0x80 PUSH1 0xE SLOAD SWAP3 PUSH1 0x40 MLOAD SWAP1 DUP2 MSTORE PUSH1 0x40 PUSH1 0x20 DUP3 ADD MSTORE PUSH1 0xD PUSH1 0x40 DUP3 ADD MSTORE PUSH13 0x39B4B733B63290383630BCB2B9 PUSH1 0x99 SHL PUSH1 0x60 DUP3 ADD MSTORE LOG2 JUMP JUMPDEST PUSH1 0x2 PUSH1 0x1 SLOAD EQ PUSH2 0x2E56 JUMPI PUSH1 0x2 PUSH1 0x1 SSTORE JUMP JUMPDEST PUSH1 0x40 MLOAD PUSH4 0x3EE5AEB5 PUSH1 0xE0 SHL DUP2 MSTORE PUSH1 0x4 SWAP1 REVERT JUMPDEST PUSH1 0x40 MLOAD PUSH4 0x23B872DD PUSH1 0xE0 SHL PUSH1 0x20 DUP3 ADD MSTORE PUSH1 0x1 PUSH1 0x1 PUSH1 0xA0 SHL SUB SWAP3 DUP4 AND PUSH1 0x24 DUP3 ADD MSTORE SWAP3 SWAP1 SWAP2 AND PUSH1 0x44 DUP4 ADD MSTORE PUSH1 0x64 DUP1 DUP4 ADD SWAP4 SWAP1 SWAP4 MSTORE SWAP2 DUP2 MSTORE PUSH1 0xA0 DUP2 ADD SWAP2 DUP2 DUP4 LT PUSH8 0xFFFFFFFFFFFFFFFF DUP5 GT OR PUSH2 0x1AC6 JUMPI PUSH2 0x2EC1 SWAP3 PUSH1 0x40 MSTORE PUSH2 0x2F91 JUMP JUMPDEST JUMP JUMPDEST PUSH1 0x40 MLOAD PUSH4 0xA9059CBB PUSH1 0xE0 SHL PUSH1 0x20 DUP3 ADD MSTORE PUSH1 0x1 PUSH1 0x1 PUSH1 0xA0 SHL SUB SWAP1 SWAP3 AND PUSH1 0x24 DUP4 ADD MSTORE PUSH1 0x44 DUP1 DUP4 ADD SWAP4 SWAP1 SWAP4 MSTORE SWAP2 DUP2 MSTORE PUSH2 0x2EC1 SWAP2 PUSH2 0x2EFC DUP3 PUSH2 0x1AF9 JUMP JUMPDEST PUSH2 0x2F91 JUMP JUMPDEST ISZERO PUSH2 0x2F08 JUMPI JUMP JUMPDEST PUSH1 0x40 MLOAD PUSH3 0x461BCD PUSH1 0xE5 SHL DUP2 MSTORE PUSH1 0x20 PUSH1 0x4 DUP3 ADD MSTORE PUSH1 0x9 PUSH1 0x24 DUP3 ADD MSTORE PUSH9 0x2132B637BB9036B4B7 PUSH1 0xB9 SHL PUSH1 0x44 DUP3 ADD MSTORE PUSH1 0x64 SWAP1 REVERT JUMPDEST DUP1 SLOAD PUSH9 0x10000000000000000 DUP2 LT ISZERO PUSH2 0x1AC6 JUMPI PUSH2 0x2F5B SWAP2 PUSH1 0x1 DUP3 ADD DUP2 SSTORE PUSH2 0x2454 JUMP JUMPDEST PUSH1 0x1 DUP1 PUSH1 0xA0 SWAP5 SWAP4 SWAP5 SHL SUB DUP1 DUP5 SLOAD SWAP3 PUSH1 0x3 SHL SWAP4 AND DUP4 SHL SWAP3 SHL NOT AND OR SWAP1 SSTORE JUMP JUMPDEST PUSH8 0xFFFFFFFFFFFFFFFF DUP2 GT PUSH2 0x1AC6 JUMPI PUSH1 0x5 SHL PUSH1 0x20 ADD SWAP1 JUMP JUMPDEST SWAP1 PUSH1 0x0 PUSH1 0x20 SWAP2 DUP3 DUP2 MLOAD SWAP2 ADD DUP3 DUP6 GAS CALL ISZERO PUSH2 0x2FED JUMPI PUSH1 0x0 MLOAD RETURNDATASIZE PUSH2 0x2FE4 JUMPI POP PUSH1 0x1 PUSH1 0x1 PUSH1 0xA0 SHL SUB DUP2 AND EXTCODESIZE ISZERO JUMPDEST PUSH2 0x2FC2 JUMPI POP JUMP JUMPDEST PUSH1 0x40 MLOAD PUSH4 0x5274AFE7 PUSH1 0xE0 SHL DUP2 MSTORE PUSH1 0x1 PUSH1 0x1 PUSH1 0xA0 SHL SUB SWAP1 SWAP2 AND PUSH1 0x4 DUP3 ADD MSTORE PUSH1 0x24 SWAP1 REVERT JUMPDEST PUSH1 0x1 EQ ISZERO PUSH2 0x2FBB JUMP JUMPDEST PUSH1 0x40 MLOAD RETURNDATASIZE PUSH1 0x0 DUP3 RETURNDATACOPY RETURNDATASIZE SWAP1 REVERT INVALID 0xD7 SELFBALANCE COINBASE PUSH7 0xE78731BC168CAC LOG1 INVALID SHR 0xCE 0xBB 0xD6 RETURN 0xC9 JUMPDEST 0xAE 0xE6 BLOBHASH SWAP8 SWAP1 0x2E PUSH12 0x48F442B81AA2646970667358 0x22 SLT KECCAK256 0xE3 SWAP3 0x24 PUSH14 0xB14464108F9DE0706EE067FD477 DUP7 0x2C 0xF7 0xB4 0xCC PUSH29 0xB7BBA97DC0A768F864736F6C6343000818003300000000000000000000 "},"methodIdentifiers":{"BPS()":"249d39e9","DEAD()":"03fd2a45","chickenHolder()":"f553a20d","currentMinGrab()":"cb4e24ed","currentRound()":"8a19c8bc","depositSeed(uint256)":"7aed11c1","deposits(uint256,address)":"53a58de1","emergencyPause()":"51858e27","emergencySettle()":"06fe8766","emergencyUnpause()":"4a4e3bd5","emergencyWithdraw()":"db2e21bc","eshare()":"f5075ee8","feeRecipient()":"46904840","getConfig()":"c3f909d4","getCurrentRound()":"a32bf597","getGlobalStats()":"6b4169c3","getParticipants(uint256)":"c1e3bd3e","getPlayerRound(uint256,address)":"497c7e0f","getPlayerStats(address)":"4fd66eae","getRoundConfig(uint256)":"cba0b841","getRoundInfo(uint256)":"88c3ffb0","getTimeLeft()":"c7e284b8","grabChicken(uint256)":"f13c8a99","grabCount(uint256,address)":"71a588a5","hotZoneDeposits(uint256,address)":"6af24a86","needsSettle()":"0aa7813f","nextConfig()":"64e9f671","owner()":"8da5cb5b","paused()":"5c975abb","pendingLottoRollover()":"9653af2b","pendingSeed()":"f8ed217b","playerStats(address)":"cdafbbb6","renounceOwnership()":"715018a6","roundActive()":"027471b0","roundEndBlock()":"01feb02c","rounds(uint256)":"8c65c81f","setBaseTimerBlocks(uint256)":"7f8a1408","setBurnBps(uint256)":"addc831e","setEscalationBps(uint256)":"e0bcfddb","setFeeRecipient(address)":"e74b981b","setHotZoneBlocks(uint256)":"9fc98444","setHotZoneBonusBps(uint256)":"dce57519","setLottoMaxBps(uint256)":"dbb4998d","setLottoPerGrabBps(uint256)":"dd78c968","setMinGrabCost(uint256)":"42bae31f","setOwnerBps(uint256)":"59af99a2","setTimerDecayBps(uint256)":"dd4ac1b0","setTimerFloorBlocks(uint256)":"e9f2a71f","totalBurned()":"d89135cd","totalLottoPaid()":"bf5e5a30","totalOwnerRevenue()":"b75bbd9b","totalRounds()":"8a568299","totalVolume()":"5f81a57c","transferOwnership(address)":"f2fde38b"}}}}}